:020000040000fa
:080000000001040000000000f3
:020000040000fa
:100200006f82200000bf2000000188000000000075
:100210000a00070011000700000020000000e000b5
:10022000020032000000020000000000f80102009d
:10023000000000000040da000000fe004440a90079
:10024000000720000000e000030032000000200052
:10025000a00188004440a800000006004060200083
:10026000010020001500370062004000e0804800d7
:10027000910188009001ba0062004000e0804800cf
:10028000910188009002ba0062004000e0804800be
:100290000002eb006028e10004003a000059eb0086
:1002a0008301e900fdff3e00040037006128e10002
:1002b000010032000082eb00050007009101880078
:1002c0001001ba000200e000e7ff3a00000005005c
:1002d000910188008002780062004000e0804800c0
:1002e0003559ba008301e900080032002559ba00e7
:1002f0008301e900050032000400e000f4ff320051
:1003000015d9ba008301e900f1ff3a0000000600a8
:020000040000fa
:0200000401f009
:04000000e3ff00001a
:020000040000fa
:0200000401f009
:04000400ff7f00007a
:020000040000fa
:100008001406000014060000140600001406000080
:100018001406000014060000140600001406000070
:100028001406000014060000140600003204000044
:100038001406000014060000140600001406000050
:10004800140600001406000014060000d002000088
:100058001406000014060000140600001406000030
:100068001406000014060000140600001406000020
:100078001406000014060000140600001406000010
:100088001406000014060000140600001406000000
:1000980014060000140600001406000014060000f0
:1000a80014060000140600001406000014060000e0
:1000b8001406000014060000140600004e03000099
:1000c80014060000140600001406000014060000c0
:1000d80014060000140600001406000014060000b0
:1000e80014060000140600001406000014060000a0
:0800f8001406000014060000cc
:020000040000fa
:10010800140600001406000014060000140600007f
:10011800140600001406000014060000140600006f
:100128001406000014060000140600003204000043
:10013800140600001406000014060000140600004f
:10014800140600001406000014060000d002000087
:10015800140600001406000014060000140600002f
:10016800140600001406000014060000140600001f
:10017800140600001406000014060000140600000f
:1001880014060000140600001406000014060000ff
:1001980014060000140600001406000014060000ef
:1001a80014060000140600001406000014060000df
:1001b8001406000014060000140600004e03000098
:1001c80014060000140600001406000014060000bf
:1001d80014060000140600001406000014060000af
:1001e800140600001406000014060000140600009f
:0801f8001406000014060000cb
:020000040000fa
:100310000000000001200000042000000402000092
:10032000100200001008000001080000000000009a
:1003300000000000020000000100000004000000b6
:1003400002000000010000000400000000000000a6
:100350000000000000000000ffff0000000000009f
:10036000ffff000000000000ffff00000000000091
:100370000002000004060000080a00000c0e000045
:100380001012000014160000181a00001c1e0000b5
:100390002022000024260000282a00002c2e000025
:1003a0000101000001360000013a00003c3e00005f
:1003b0000002000004060000080a00000c0e000005
:1003c0000101000001160000011a00001c1e0000bf
:1003d0000101000001260000012a00002c2e00006f
:1003e0000101000001360000013a00003c3e00001f
:020000040000fa
:1003f0000000fa00dca2a900d8a2a900dc82a900b2
:10040000d882a900dc62a900d862a900dc42a90058
:10041000d842a900dc22a900d822a900dc02a90048
:10042000d802a900d1a2a900cda2a800d1c2a900da
:10043000cdc2a80081e0a900a30107008801070040
:10044000c3010700cb0107000028a9000008a9008c
:1004500000003700cfc2bf000042b2000004e0003d
:10046000fcff3a000200370040012000d4010700e1
:10047000cfc2bf000042b2000004e000faff320029
:1004800011e1a80070772000400e88000028a80025
:100490000008a80080022000c040880080022000e0
:1004a000b04088000000eb002040880010c0b3007e
:1004b0001ae8b700120037001ac8bf000080fb001e
:1004c000811828000000400060807800a00e88009d
:1004d000204080000000e80020408800214080008b
:1004e000d04c2000808f5000f3ff36000000eb005e
:1004f000204088001ac8bf000040e8001ae8b70092
:100500001ac8bf00e64f5000f1ff36000028a900ce
:10051000f04c2000204088000000eb00a8010700fc
:100520001a003700cfc2bf000042b2000004e00052
:1005300016003a000200370040012000a001070029
:10054000cfc2bf000042b2000004e000faff320058
:1005500000702000400e88000000eb00a00e880014
:100560000028a9000008a90010002000c040880051
:1005700011e1a9000000eb00300888000000eb004a
:10058000e04088000000eb00f04088000040800060
:10059000610060000000e000e2ff3a00adff3700bc
:1005a0003600f800809fbe00821f78003400f800fb
:1005b00000c0b300a00188000000fa000014800011
:1005c0001041880010418000f90f500002003e00e9
:1005d000a0012000104188001014800060408800b5
:1005e0002014800070408800301480008040880013
:1005f000614080007040800080804000804080002a
:100600000080400032002000110009000280d80064
:100610005040880009c8bf00e54f50001700360061
:100620000000eb0090408800614080005040800056
:10063000808f500003003600904080000000e800ea
:10064000904088007140800050408000808f5000b2
:1006500003003600904080000080e8009040880051
:100660008140800050408000808f500003003600a1
:10067000904080006400400090408800a002a900e3
:100680008560a9000080fa003400f9004f0178006d
:100690004f00be003600f900004006003600f800aa
:1006a000809fbe00829fbe00849fbe00869fbe00ca
:1006b0003400f80000c0b300a00188000000fa0078
:1006c000c1408000000a2000808f50000c003600de
:1006d000c04080008000d100f0ff270080806000d3
:1006e000f0ff270000816000310e8000000028002c
:1006f0000080600002007000300e88001400370097
:10070000c1408000c0042000808f50000c003600e3
:10071000c0408000c300de00f0ff27008080600042
:10072000f0ff270000816000310e800000002800eb
:100730000080600002007000300e88000400370066
:10074000300e80000100280001006000300e88009b
:1007500000408000620060000000e0000d003200f8
:1007600000408000610060000000e00009003200ed
:10077000c0408000d00e8800d00e8000c00e8800df
:10078000c00e8000b00e8800204080000000e8000d
:1007900020408800204080000000e80020408800c1
:1007a00021408000e04c2000808f50000100360086
:1007b0004100070009c8bf000040e80009e8b70091
:1007c00009c8bf00e54f50001d00360007c8bf0034
:1007d0000080fb00811a280000004000e0807800c3
:1007e000904080000081680007c8bf000080fb00c7
:1007f000811928000000400060807800000061003e
:100800000000e0000300320008c8bf000004a000a0
:1008100008e8b70008c8bf008080fb00801b2800e4
:100820006140780008e8b70008c8bf000080fb00fe
:10083000610060000004e000010032001e000700bb
:1008400088e0a9000080fa003400f9004f03be00e0
:100850004f02be004f01be004f00be003600f9003f
:1008600000400600809fbe003400f80000c0b300c6
:10087000a00188000000fa0007c8bf000080fb004c
:10088000811828000000400060807800a00e8800d9
:100890000040eb0009e8b7008460a90005e1a90069
:1008a0000000eb00000888000080fa003400f90026
:1008b0004f00be00004006000000fa0011e1a90050
:1008c000f1408000e04080008080400030088000df
:1008d0000080400032002000110009000280d80092
:1008e000f040880030088000e04088000000eb0005
:1008f0003008880011e1a800f04080007900b900bc
:10090000c2032000110009000280d80020418800a5
:10091000f04080008000d100204180000080500025
:100920000041880000418000e10f500003003600c4
:1009300000418000100888000400370010002000eb
:1009400000418800004180001008880005e1a800ef
:100950000000eb002040880070c0b3001ae8b70028
:1009600000408000620060000000e00005003a00e6
:1009700000408000610060000000e00001003200e3
:100980000c0007000040eb0008e8b70007c8bf00f4
:100990000040e80007e8b70007c8bf00e64f500076
:1009a0000200360010c0b30007e8b7000080fa006c
:1009b000000006000000fa00104180006300b9004a
:1009c0000000d100b0408800c1408000b0408000ed
:1009d000808f50000e003200c1408000b040800087
:1009e000808f500003003100c04080000000e8000c
:1009f000c0408800c1408000b0408000808f50001f
:100a000003003600c04080000000e900c0408800bc
:100a1000c140800070022000808f500002003e0024
:100a200080022000c0408800c14080008057200024
:100a3000808f50000200360080572000c0408800a0
:100a4000c0408000b00e8800c0408000c00e88000a
:100a5000c0408000d00e88000080fa000000060030
:100a60000000fa0000fc2f0040158800c00620009e
:100a70000015880020022000301588000000eb00df
:100a8000501588004000200020158800003020000c
:100a900010158800a002a90091092000914078005b
:100aa000f0c8b30000c0600001c5b3000140700091
:100ab00099e0b7008560a9008d60a800a1e2a800b8
:100ac0000080fa00000006000000fa00002e20005e
:100ad000200e8800011c200091407800c0cfb30098
:100ae00000c060000014a000c0e1b700007020004a
:100af000400e88000000eb00a00e8800c7e1a900ae
:100b0000310e80000000280000806000300e880058
:100b1000f0082000800e88000000eb00500e8800d6
:100b2000710a200091407800f0c8b30000c0600056
:100b300001c4b30001407000a7e0b70088e0a9003d
:100b400090e0a800c1e1a8000080fa0000000600c3
:100b50000000fa000000eb00300888000080eb0085
:100b60006008880000032000800888000080fa00e8
:100b7000000006000000fa000000eb0000088800fa
:100b8000a000200010088800000320002008880032
:100b90005109200091407800f0c8b30000c0600007
:100ba00001c5b3000140700095e0b7008460a90062
:100bb0008c60a80005e1a8000080fa000000060093
:100bc0000400fa0010079800070037000000eb004f
:100bd000000f7800010037001e0fe800703e200073
:100be0009e0f1000fcff36001e0090000000e90080
:100bf000100798001e009000e10f4000f3ff3a003c
:080c00000080fa00000006006c
:020000040000fa
:100c080024080000020000000200000000000000ac
:100c180000080000240000000000000000000000a0
:020000040000fa
:040c28000000fe00ca
:00000001FF
