:020000040000fa
:080000000001040000000000f3
:020000040000fa
:04000800de03000013
:020000040000fa
:04000c00ae0300003f
:020000040000fa
:04001000b403000035
:020000040000fa
:04001400ba0300002b
:020000040000fa
:04001800c003000021
:020000040000fa
:04001c00de030000ff
:020000040000fa
:04002000de030000fb
:020000040000fa
:04002400de030000f7
:020000040000fa
:04002800de030000f3
:020000040000fa
:04002c00de030000ef
:020000040000fa
:04003000de030000eb
:020000040000fa
:04003400ca020000fc
:020000040000fa
:04003800de030000e3
:020000040000fa
:04003c00de030000df
:020000040000fa
:040040003a0300007f
:020000040000fa
:040044007403000041
:020000040000fa
:04004800de030000d3
:020000040000fa
:04004c00d8010000d7
:020000040000fa
:04005000d0010000db
:020000040000fa
:040054001002000096
:020000040000fa
:04005800de030000c3
:020000040000fa
:04005c00de030000bf
:020000040000fa
:04006000de030000bb
:020000040000fa
:04006400de030000b7
:020000040000fa
:04006800de030000b3
:020000040000fa
:04006c00de030000af
:020000040000fa
:04007000de030000ab
:020000040000fa
:04007400de030000a7
:020000040000fa
:04007800de030000a3
:020000040000fa
:04007c00de0300009f
:020000040000fa
:04008000de0300009b
:020000040000fa
:04008400de03000097
:020000040000fa
:04008800de03000093
:020000040000fa
:04008c00de0300008f
:020000040000fa
:04009000de0300008b
:020000040000fa
:04009400de03000087
:020000040000fa
:04009800de03000083
:020000040000fa
:04009c00de0300007f
:020000040000fa
:0400a000de0300007b
:020000040000fa
:0400a400de03000077
:020000040000fa
:0400a800de03000073
:020000040000fa
:0400ac00de0300006f
:020000040000fa
:0400b000de0300006b
:020000040000fa
:0400b400de03000067
:020000040000fa
:0400b800de03000063
:020000040000fa
:0400bc00de0300005f
:020000040000fa
:0400c000de0300005b
:020000040000fa
:0400c400f402000042
:020000040000fa
:0400c800de03000053
:020000040000fa
:0400cc00de0300004f
:020000040000fa
:0400d000de0300004b
:020000040000fa
:0400d400de03000047
:020000040000fa
:0400d800de03000043
:020000040000fa
:04010800de03000012
:020000040000fa
:04010c00c603000026
:020000040000fa
:04011000cc0300001c
:020000040000fa
:04011400d203000012
:020000040000fa
:04011800d803000008
:020000040000fa
:04011c00de030000fe
:020000040000fa
:04012000de030000fa
:020000040000fa
:04012400de030000f6
:020000040000fa
:04012800de030000f2
:020000040000fa
:04012c00de030000ee
:020000040000fa
:04013000de030000ea
:020000040000fa
:04013400ca020000fb
:020000040000fa
:04013800de030000e2
:020000040000fa
:04013c00de030000de
:020000040000fa
:040140003a0300007e
:020000040000fa
:040144007403000040
:020000040000fa
:04014800de030000d2
:020000040000fa
:04014c00d8010000d6
:020000040000fa
:04015000d0010000da
:020000040000fa
:040154001002000095
:020000040000fa
:04015800de030000c2
:020000040000fa
:04015c00de030000be
:020000040000fa
:04016000de030000ba
:020000040000fa
:04016400de030000b6
:020000040000fa
:04016800de030000b2
:020000040000fa
:04016c00de030000ae
:020000040000fa
:04017000de030000aa
:020000040000fa
:04017400de030000a6
:020000040000fa
:04017800de030000a2
:020000040000fa
:04017c00de0300009e
:020000040000fa
:04018000de0300009a
:020000040000fa
:04018400de03000096
:020000040000fa
:04018800de03000092
:020000040000fa
:04018c00de0300008e
:020000040000fa
:04019000de0300008a
:020000040000fa
:04019400de03000086
:020000040000fa
:04019800de03000082
:020000040000fa
:04019c00de0300007e
:020000040000fa
:0401a000de0300007a
:020000040000fa
:0401a400de03000076
:020000040000fa
:0401a800de03000072
:020000040000fa
:0401ac00de0300006e
:020000040000fa
:0401b000de0300006a
:020000040000fa
:0401b400de03000066
:020000040000fa
:0401b800de03000062
:020000040000fa
:0401bc00de0300005e
:020000040000fa
:0401c000de0300005a
:020000040000fa
:0401c400f402000041
:020000040000fa
:0401c800de03000052
:020000040000fa
:0401cc00de0300004e
:020000040000fa
:0401d000de0300004a
:020000040000fa
:0401d400de03000046
:020000040000fa
:0401d800de03000042
:020000040000fa
:10020000efa320006efc20000e018800000000001b
:10021000000020000000e000020032000001200089
:1002200020028800140007000f0207000000e00011
:1002300003003a0040422100010020000200370084
:100240000000200001002000810f7000010032003a
:1002500014000700000020000000e000020032004f
:100260000000020000000000641502000000000011
:100270000040da000000fe004440a90020052000f4
:100280000000e0000300320000002000a001880010
:100290004440a800000006008a1f78008b1f7800e9
:1002a0000000060091018800800478000000eb0047
:1002b0001a003700e284440032a0b4009905ba0065
:1002c000e284440032a0b4009906ba00e2844400fb
:1002d00032a0b4000006eb00476fde00fd07b2005d
:1002e000636ce10003003a00ebff07000000eb0045
:1002f0000a003700606ce10004003a00005deb008a
:100300008b05e900fdff3e00040037006168e10055
:10031000010032000086eb000b00070019c7ba008d
:100320001905ba000e04e00003003a000a00e000dc
:10033000e0ff3a0000000600fe07b2009e018800c0
:100340008a047800f5ff3700395dba008b05e900b3
:100350000c003200295dba008b05e900080032006c
:100360000c00e00003003a00e284440032a0b40034
:10037000f5ff370019ddba008b05e900faff3a00f6
:100380008904e800e184440032a0b40000000600c3
:10039000000000000000000000000000000000005d
:1003a0000000fa008540a9000080fa000040060025
:1003b0003600f800809fbe00829fbe00849fbe0072
:1003c000869fbe00881f78000000fa008520a900e3
:1003d00007003700a851800022050200000000003d
:1003e00000407800004c78000800e800a051880028
:1003f00014050200000000000004e000f5ff3a00d0
:100400000080fa004f0478004f03be004f02be0088
:100410004f01be004f00be003600f900004006004c
:100420003600f800809fbe00829fbe00849fbe0001
:10043000869fbe000200fa008560a9005146800038
:1004400010148000008040000000d1005046880059
:10045000e05080000000e0000a003200e050800020
:100460000000e900e0508800904780009046880036
:10047000a0478000a0468800b0478000b0468800b2
:100480000600370020148000904688003014800059
:10049000a046880040148000b0468800c046800016
:1004a0008000780000148000008040000000d1002f
:1004b000c046880000478000e30f500005003e0062
:1004c000e20f5000220031000000e0000400320082
:1004d00022003700e40f5000030032001f003700f5
:1004e000d421ef0024003700a01680004800de0071
:1004f0006700600060468800604680008000400021
:1005000000a02000008040001000780070468800a5
:100510001e0fe80070468000e10f400003003a0023
:100520001e007800e30f5000efff3400714680009a
:1005300080468000808f50000500320070468000a9
:10054000300e0200000000000621ef0084c0a90068
:10055000120a020000000000070037000047800078
:10056000e40f5000030036000000eb000047880055
:1005700001003700000000000080fa004f03be00b9
:100580004f02be004f01be004f00be003600f90012
:1005900000400600809fbe00821f78000000fa0025
:1005a0008460a900d1468000d24e800010c0b30004
:1005b000828f5000010031000040eb008100e80014
:1005c000d14688000004e000030032008c60a900de
:1005d0000000eb00004788000080fa004f0178001f
:1005e0004f00be0000400600809fbe000000fa00e1
:1005f00088e0a900304780000000e800304788000c
:1006000031478000700c2000808f500005003600bc
:100610000000eb0030478800304980000040a00017
:1006200030498800204780000000e800204788000b
:1006300020478000f30f5000050036000000eb005b
:1006400020478800304980000030a00030498800f1
:1006500000478000e20f500003003a00204780006e
:1006600069004000204788000080fa004f00be006b
:10067000004006003600f800809fbe00829fbe004a
:10068000849fbe00869fbe000000fa000621ef0096
:1006900084c0a90000478000e30f50000b003a001f
:1006a000704680000000e8007046880070468000b8
:1006b000e50f5000020034000000eb007046880097
:1006c00070468000300e0200000000000080fa003a
:1006d0004f03be004f02be004f01be004f00be00e0
:1006e0003600f900004006003600f800809fbe008a
:1006f000829fbe00849fbe00869fbe000000fa005d
:1007000013e1a9000a21ef000621ef0084c0a9002f
:1007100084e0a9008ce0a9000000eb00d04688002e
:1007200000478000e30f500005003a00c0478000fa
:100730007046880070468000300e02000000000005
:100740000080fa004f03be004f02be004f01be0002
:100750004f00be003600f900004006000000fa001d
:100760008020a900ffff37000000fa008060a90088
:10077000ffff37000000fa008040a900ffff3700ac
:100780000000fa008080a900ffff37000000fa0097
:100790008020a900ffff37000000fa008060a90058
:1007a000ffff37000000fa008040a900ffff37007c
:1007b0000000fa008080a900ffff37000040da0047
:1007c0000000fe000a00fa0011002000b1bf9f00e7
:1007d000c0bf9f006a805700dd0207004fb8970036
:1007e0000080fa00000006000a00fa00e20f500044
:1007f00034003e00d0518000e10f50000300320071
:10080000e20f500011003a000c003700c320200016
:100810000300e00001003a000040da000c02e200b0
:10082000020035001422ef000de2a8000f42ab00d9
:100830000d003a000f42a8000b0037006321200092
:100840000300e00001003a000040da001602e20076
:10085000020035001e22ef0017e2a8001942ab008b
:1008600001003a001942a800820178000b0037000d
:100870003102fb00e10f500004003a000f22ab00f0
:10088000feff3a0084108800030037001922ab00f5
:10089000feff3a00d41088008301e9000300e00065
:1008a000f3ff3a00e10f500003003a000f02ab00e3
:1008b000feff32000b0037001902ab00feff3200d2
:1008c0000800370033002000b3bf9f00c0bf9f0067
:1008d000d1bf9f00e2bf9f006a8057009e020700c1
:1008e0006fb99700020078000080fa00000006004f
:1008f0000a00fa0051002000b1bf9f00c0bf9f0056
:100900006a805700960207005fb897000080fa00df
:1009100000000600889fbe0080047800e05180003f
:100920000000e00004003a000e0007000084eb0025
:100930000000e00008003500e85180000900e000f8
:100940000500320009004400060007000000e00036
:1009500001003d000084eb00080078004f04be0059
:1009600000000600800078000100e00003003a006b
:1009700000002000e0518800000005000080eb002e
:1009800002002000828f500002003e00e1518800ea
:100990000000eb00000006008520a900e7006000d1
:1009a0008540a900c408dd0000017800f3f82f009d
:1009b0000207b200c4048000848161004411dd009c
:1009c00083817000e8006000c3048800c308de0073
:1009d000f38f2f00e1806000c404800084816100f7
:1009e000c908dd00830171000008b200c30488005b
:1009f000f2df2f004700de00630480000301610086
:100a000061006000028170004a00dd00620488001d
:100a1000f1bf2f00640480008480600081007000ba
:100a200061048800000006007010800061406000d2
:100a300000000600a2108800601088007110880075
:100a4000000006006010800066006000e60f5000a5
:100a500002003a0090108000000006009010800014
:100a6000f00fb2000000060000000500839f680040
:100a70000100e00002003d0060001000e08018006e
:100a80000300e00002003d0060011100e081190058
:100a9000050007004f00e00002003b00600010006e
:100aa000e0801800000006006022b8000602200066
:100ab0000000d0008180d2000482d2008582d20062
:100ac0000000a0000202520083825a00030031009d
:100ad0000202420083824a000000a1000603e900ee
:100ae000f3ff3a0000000600a18620006a0007001c
:100af000800078000080eb000100e0000400350079
:100b0000a1862000a0002000020007004f80de0028
:100b100000000600889fbe008a1f78000004be0007
:100b2000c900900069009000808f500005003900d6
:100b300009007800b70007008080eb000000e000ab
:100b400016003500084578004900900008587800e4
:100b5000c00498001900780000b8a30004003a000f
:100b600000a8a30007003200ea4f540005003a0035
:100b7000090078000d0007008080eb000000e00015
:100b800006003a0000c02000190060000200320098
:100b900049009000e00498008a80fb000100780082
:100ba0004f0578004f04be0000000600889fbe007d
:100bb0008a1f7800000478000800e0000d003a0069
:100bc000888b2000700544008004eb0058007800fa
:100bd0000000e00004003200f4ff07000000e00025
:100be00001003d008084eb008a0f5400f7ff3a00bb
:100bf0002500370000002200180060008004eb0090
:100c000021003200a80490000f00370009015100b4
:100c1000384090000000fb0089007800f2fe0700d9
:100c20000000e00007003c0028009000400498000d
:100c300060049800500c98001890a0008084eb008d
:100c4000110037008084440048019000828f5400d6
:100c5000eeff3900280090004004980098007800ca
:100c600002c020000281600001003a0038009000bc
:100c700001e8a30002003200600498000100370080
:100c8000500c98008004eb00090078004f057800b4
:100c90004f04be0000000600889fbe008a9fbe0071
:100ca00080047800010478002c003700c800900010
:100cb00068009000808f5000040039000800780020
:100cc000540007000000e00037003500004020001d
:100cd0001800600009003200a1002000090078001f
:100ce00042000700800578000b00e000030032009e
:100cf000618514000a85450004003700090078006a
:100d000034000700000578008005eb0048009000e3
:100d1000e8009000808050008a8f5000020031006f
:100d2000010578008005eb000a0178008900780051
:100d300021000700480090000a004000400498008d
:100d40000b00e000040032000800780097ff070065
:100d50000000e00014003a008a8444001904e00016
:100d6000d2ff3a0000802000180060000600320028
:100d7000080078008dff0700800078000080eb00fd
:100d80000100e00009003a0001c0200098806000e6
:100d90000000eb000500320048009000600498005d
:100da0000000eb00010037000080eb004f05be00a3
:100db0004f04be00000006008001780002003700ea
:100dc000b15978000201e9000200e000fcff3a009e
:100dd0000000060080007800010178003104e00086
:100de000fdff3a0000005100000006000001eb008a
:100df00000027800b041780081cf510001003a0034
:100e0000040178000304e000f9ff3a0002007800d2
:100e100000000600889fbe008a1f7800000478004a
:100e2000c8009000680190000000eb00828f500025
:100e30003c003900180078002200290002016000ff
:100e4000e20f510007003200012024000000e00002
:100e500001003d0001202000008c70000080eb00ac
:100e6000300037000200260002006000820f5000b0
:100e700009003a0038009000808f500006003900c9
:100e80000800780049ff0700800078000080eb0030
:100e90000100e00023003a001805780000c020009f
:100ea0000000650018003a00a804900060022000cd
:100eb00008004000808f540013003a0000202000fa
:100ec000ef000700200498000000e00005003a0051
:100ed00029049800490498008904e800390498001e
:100ee000080037000a60a0000a0c7800400498004f
:100ef000012020008080400031049800400c9800c0
:100f0000500c98000c000700280090005004980036
:100f1000380090006004980000002600180c700053
:100f20000000eb004f0578004f04be0000000600f3
:100f3000e083200061003700881f780068a320004c
:100f40001804e00003003a00f9ff070020c0b300d6
:100f5000004c78004f04780000000600889fbe0017
:100f6000000478000800780010ff07008004780073
:100f700000042000180060000200320028009000e9
:100f80005a0007000000eb00200498003840900051
:100f90000004e000050035000000fb0009fe07002a
:100fa0000000e000010032008084eb001810900087
:100fb0000000e000080032004dfe07000000e000e5
:100fc000010032008084eb001810900047000700f9
:100fd0000000eb00101498000008200018006000ca
:100fe000150032000001eb006000b800a38b200068
:100ff0000202d00063027a00880f520005003a0016
:101000000000400081804800008041000008eb00a3
:101010000600370061004000e08048000201e8005f
:10102000e80f5000e08f5800f0ff3a000800780009
:101030002e0007000e003700000c780000c0eb0007
:10104000304498006002200008004000200498000e
:101050004004980050049800400c980060049800e8
:10106000500c98007004980076004400000c980022
:10107000090078004f04be0000000600881f7800b9
:101080000004eb006140b800e2ff2f00f3ff2f00e7
:10109000b5000700828c2000620078000000e000ac
:1010a00001003200adff07000804e800e80f54001b
:1010b000f4ff3a004f047800000006000100200011
:1010c0000100e00008003200010080000100e000a3
:1010d000050032008100e900010088008100d00095
:1010e0000200800000b17800000006000000e0006f
:1010f0002f003200c0017800e38f51002c00360031
:101100000308a3002a003a00915180000100e0008a
:1011100002003200810f50000400310011009800dd
:10112000905188001600370082007800110190006d
:101130000200e00002003200800f5100faff390087
:101140001102780084824000850f50001800390099
:10115000808f520003003a008308420001007800ab
:10116000070037000200e000030032008301400066
:10117000830f51000e003900120098009000980073
:10118000900090000100e0000900320010014000d2
:10119000828f500006003a0002a320000009eb00f5
:1011a0001001780011084100910090001100980092
:1011b00000000600889fbe00000478008151800076
:1011c0000100e00002003200010078000d0037004d
:1011d0009151800020a3200004003700910f54009b
:1011e000250036000180e800910090000100e00039
:1011f000faff3a0010003700920f54001e0036002c
:101200000280e800100178000200e000faff3a00d6
:10121000110178009151800020a3200004003700c4
:10122000910f5400140036000180e80091009000f6
:10123000828f5000faff3a00c9518000888f540015
:1012400001003100880478000900780036000700aa
:101250000000e00004003a00888f540005003200ce
:101260008904d100f5ff3700091878009fff0700b7
:10127000d2ff37000000eb004f04be000000060064
:10128000881f7800630440000800a1008000eb0084
:10129000800f540021003600e30f540001003e008f
:1012a0004800200008007800c2ff07008000eb0023
:1012b0000000e000190032009000780091017800f1
:1012c00064815100880f510003003100110190002a
:1012d0000208780007003700088140000208780003
:1012e0009101900013019800100178001109140079
:1012f00088087800100178000000eb000200e00090
:1013000004003200920190000300e000010032006e
:101310000280e800805188008180e80001007800a8
:101320004f04780000000600800078000000eb0009
:101330000100e000050034000100780075fd0700a1
:10134000e10f400001003a000000eb000000060041
:1013500000c0da000000060000c0da00000006004d
:1013600000c0da0000000600020ab900001bb90044
:101370000200b80081004200810043000000060026
:020000040000fa
:10138000000000006400000000000000e80300000e
:10139000f4010000641900000a000000f4010000dc
:1013a000f40100008813000000000000ffff0000af
:1013b000000000001400000000000000007d00009c
:1013c00000000000ffff0000000000001e00000001
:1013d000020000001400000064000000840300000c
:1013e00000000000140000005541000052540000ad
:1013f000204900004e490000542000004f4b0000df
:101400000d0000004d430000505700004d2000002b
:10141000494e000049540000204f00004b0d0000d1
:0414200000000000c8
:020000040000fa
:101424000600fa00889fbe0060498000e50f500066
:101434000f003e00e0812000f04e880013002000e1
:10144400428f2000418d2000809e200074160200ef
:101454000000000013002000628f2000618d200036
:10146400409f2000741602000000000002003700b4
:1014740000802000f04e880013002000228f2000fe
:10148400218d2000c09d2000741602000000000081
:10149400c0468000cf00de00008040000080d10004
:1014a4008000780070498000008040006047880018
:1014b4009147800060478000008050006101b900be
:1014c400404780005147800002004000838048006c
:1014d40040478800514788004047800051478000ba
:1014e4004309dd004d04de0008047100cd8cde00ec
:1014f400080078007049880060498000e50f5000ba
:1015040004003e00e0468000e017b0001007980099
:1015140003003700e0468000c016b00010079800b2
:10152400604980008000eb0092002000030020004e
:10153400820f5000838f5800aa013e000060010012
:1015440009003700320037005b00370084003700a1
:10155400c2003700eb0037001301370019013700d0
:101564004f013700550137009147800060478000e4
:10157400808f50009f013d00604980000108800079
:1015840000014000a08f2000000041000108780005
:101594000021ef00bd010700000f78001e0090003d
:1015a4009e007800808f5000020031009e00900061
:1015b400010f78001e0090001e00100070088800c3
:1015c40030002000c047880013e1a8008ce0a80088
:1015d400f04680006f0160001e0078006600b900cc
:1015e400800078000201410060902000000041006a
:1015f40001087800f04680000000e800f04688000a
:10160400604980000000e8006049880090013700cc
:10161400b147800060478000808f5000770134001c
:10162400604980000108800000014000a08f200074
:1016340000004100010878000021ef009301070039
:10164400000f78001e0090009e007800808f5000ec
:10165400020031001e019000020f78001e0090006d
:101664001e0010007008880040002000c047880059
:1016740013e1a8008ce0a800f04680006f01600030
:101684001e0078006600b900800078000201410065
:10169400609020000000410001087800f0468000be
:1016a4000000e800f0468800604980000000e8007f
:1016b4006049880066013700a147800060478000c8
:1016c400808f50004f013d00604980000108800078
:1016d40000014000a08f20000000410001087800b4
:1016e4000021ef0069010700000f78001e00900040
:1016f4009e007800808f5000020031009e00900010
:10170400010f78001e0090001e0010007008880071
:1017140050002000c047880013e1a8008ce0a80016
:10172400f04680006f0160001e0078006600b9007a
:101734008000780002014100609020000000410018
:1017440001087800f04680000000e800f0468800b8
:10175400604980000000e800604988003c013700cf
:101764009147800060478000808f5000270134003b
:10177400604980000108800000014000a08f200023
:1017840000004100010878000021ef003f0107003c
:10179400000f78001e0090009e007800808f50009b
:1017a400020031001e019000020f78001e0090001c
:1017b4001e001000700888000000eb00c04788007d
:1017c40013e1a8008ce0a800f04680006f016000df
:1017d4001e0078006600b900800078000201410014
:1017e400609020000000410001087800f04680006d
:1017f4000000e800f0468800604980000000e8002e
:101804006049880030498000620060000000e00008
:101814000001320060002000604988000621ef00ca
:101824001e007800000040006008880084c0a90001
:101834008cc0a800304980000020a00030498800f6
:10184400a1e2a900d00020005015880080402000ab
:1018540010158800a1e2a800fd003700b147800000
:1018640060478000808f5000ec003d00604980009c
:101874000108800000014000a08f2000000041000a
:10188400010878000021ef0000010700000f780034
:101894001e0090009e007800808f500002003100ee
:1018a4009e009000010f78001e0090001e001000a2
:1018b4007008880010002000c047880013e1a800c9
:1018c4008ce0a800f04680006f0160001e007800e4
:1018d4006600b90080007800020141006090200099
:1018e4000000410001087800f04680000000e80094
:1018f400f0468800604980000000e80060498800e4
:10190400d3003700a147800060478000808f5000db
:10191400c4003400604980000108800000014000d8
:10192400a08f200000004100010878000021ef0092
:10193400d6000700000f78001e0090009e0078007b
:10194400808f5000020031001e019000020f7800c9
:101954001e0090001e001000700888002000200067
:10196400c047880013e1a8008ce0a800f04680007e
:101974006f0160001e0078006600b90080007800e6
:10198400020141006090200000004100010878003d
:10199400f04680000000e800f04688000000eb00fc
:1019a40060498800aa00370070468000e20f5000aa
:1019b4009e003a00604980000000e8006049880009
:1019c400a30037009147800060478000808f50005b
:1019d40098003d00f04680006f0060000108800020
:1019e40000014000609020000000410001087800e0
:1019f4000021ef00f04680006f006000800040008e
:101a0400609020000080400090007800f046800044
:101a14000000e9006f0060000001400060902000b9
:101a2400000041001000780000804000200798006a
:101a3400ae009000b0aa2a000008b8004208de00f8
:101a4400600888002e009000c200de001e00900096
:101a5400808f5000020031000e21ef000500370096
:101a64002e009000c200de001e0090000080500096
:101a740070088800f04680000000e800f046880006
:101a840040002000c047880013e1a8008ce0a800b3
:101a9400604980000000e800604988006c0037005d
:101aa40070468000e50f500064003a0060498000f1
:101ab4000000e80060498800650037009147800015
:101ac40060478000808f50005e003400f046800044
:101ad4006f00600001088000000140006090200059
:101ae40000004100010878000021ef00f04680006a
:101af4006f00600080004000609020000080400083
:101b040090007800f04680000000e9006f0060005b
:101b140000014000609020000000410010007800a7
:101b24000080400020079800ae009000b0aa2a0070
:101b34000008b8004208de00600888002e0090000b
:101b4400c200de001e009000808f500002003100b1
:101b54000e21ef00050037002e009000c200de00c9
:101b64001e0090000080500070088800f04680003d
:101b74000000e800f046880010002000c0478800fc
:101b840013e1a8008ce0a8006000200060498800f0
:101b940030498000620060000000e0002b003a0041
:101ba40040002000604988000000eb00c047880026
:101bb400600880008000d1001e009000008050006a
:101bc400700888008cc0a900a1e2a900d0032000fd
:101bd400501588000041200010158800a1e2a800db
:101be4001b0037000000eb00604988000000000083
:101bf4001700370000000000150037000000000047
:101c0400130037000000000011003700000000003e
:101c14000f003700000000000d0037000000000036
:101c24000b0037000000000009003700000000002e
:101c34000700370000000000050037000000000026
:101c4400030037000000000001003700000000001e
:101c54004f04be000080fa00000006000200fa00f3
:101c6400000f78001e0078008000400000a12000d2
:101c74000080400010007800a00e88001e0078004c
:101c8400804688000080fa00000006000a00fa007e
:101c94006000b80010079800210798000000eb00ce
:101ca400000f78000d0037001e007800800040000f
:101cb400a08f200000804000100078008000eb001e
:101cc4001e019000ae019000020040008380480095
:101cd40010079800210798001e0fe8001e007800e6
:101ce400e50f5000f0ff36001e019000ae01900099
:101cf4003207980043079800c20020003e0290007b
:101d0400ce0290001100090042aad800000f78000a
:101d14001e0078000080fa00000006000400fa00ab
:101d240010079800114e8400a04d8000808f500051
:101d340002003100104e8400a04d8800114e840032
:101d4400b04d8000808f500002003100104e84009e
:101d5400b04d8800114e8400e04d8000808f50000b
:101d640002003100104e8400e04d8800114e8400c2
:101d7400f04d8000808f500002003100104e84002e
:101d8400f04d8800114e8400a04e8000808f5000da
:101d940002003100104e8400a04e8800314e8400b1
:101da400c04d8000808f500002003100304e84000e
:101db400c04d8800314e8400d04d8000808f50008b
:101dc40002003100304e8400d04d8800414e840022
:101dd400004e8000808f500002003600404e840088
:101de400004e8800514e8400004e8000808f5000c9
:101df40002003100504e8400004e8800614e840081
:101e0400104e8000808f500002003600604e840027
:101e1400104e8800714e8400104e8000808f500058
:101e240002003100704e8400104e8800814e840000
:101e3400204e8000808f500002003600804e8400c7
:101e4400204e8800914e8400204e8000808f5000e8
:101e540002003100904e8400204e8800f14e840030
:101e6400504e8000808f500002003100f04e8400fc
:101e7400504e8800f14e8400604e8000808f5000e8
:101e840002003100f04e8400604e8800f14e840060
:101e9400704e8000808f500002003100f04e8400ac
:101ea400704e8800b14e8400304e8000808f500008
:101eb40002003100b04e8400304e8800d14e8400c0
:101ec400404e8000808f500002003100d04e8400cc
:101ed400404e8800114f8400804e8000808f500057
:101ee40002003100104f8400804e8800314f84007e
:101ef400904e8000808f500002003100304f8400eb
:101f0400904e8800414f8400b04e8000808f500076
:101f140002003600404f8400b04e8800514f8400c8
:101f2400b04e8000808f500002003100504f84007a
:101f3400b04e8800614f8400c04e8000808f5000f6
:101f440002003600604f8400c04e8800714f840048
:101f5400c04e8000808f500002003100704f84001a
:101f6400c04e8800814f8400d04e8000808f500086
:101f740002003600804f8400d04e8800914f8400c8
:101f8400d04e8000808f500002003100904f8400ba
:101f9400d04e8800a04d80008000eb0052b8200095
:101fa4000289b900020178006002b9008401780056
:101fb4000301410053b820000300b80001014100af
:101fc400820078004206200003002000360502004b
:101fd4000000000000007800004c8800b04d800034
:101fe4008000eb0052b820000289b9000201780099
:101ff4006002b900840178000301410053b8200055
:102004000300b8000101410082007800420620006c
:1020140003002000360502000000000000007800e4
:10202400104c8800c04d80006a00b90000007800a0
:10203400204c8800d04d80006a00b9000000780070
:10204400304c8800e04d80008000eb0052b8200046
:102054000289b900020178006002b90084017800a5
:102064000301410053b820000300b80001014100fe
:10207400820078004206200003002000360502009a
:102084000000000000007800404c8800f04d800003
:102094008000eb0052b820000289b90002017800e8
:1020a4006002b900840178000301410053b82000a4
:1020b4000300b800010141008200780042062000bc
:1020c4000300200036050200000000000000780034
:1020d400504c8800004e80006a00b900000078006f
:1020e400604c8800b04e80006101b800104e800042
:1020f4008000eb00009ab90004027800028bb9005a
:1021040086027800050242000010b8000102420075
:10211400840078000001be0000d4200031002000bb
:10212400540502000000000000007800704c880094
:10213400b04e80006101b800204e80008000eb00aa
:10214400009ab90004027800028bb9008602780074
:10215400050242000010b800010242008400780029
:102164000001be0000d4200031002000540502000c
:102174000000000000007800804c8800714c800052
:10218400804c8000808f500003003100804c800020
:102194000080e800704c8800614c8000724c800024
:1021a400804c8000000051000001780011000900fb
:1021b4008280d8000000e800a04c8800514c8000c8
:1021c400404c8000808f500003003100404c800060
:1021d4000080e800504c8800614c8000524c800024
:1021e400404c8000000051000001780011000900fb
:1021f4008280d8000000e800904c8800b04e800037
:102204006101b8004318dd00cd10de0081007000cc
:102214004310dd000001be00000020008197220071
:102224005405020000000000b04c8800c14c880036
:10223400304e80004a00de000000e800d04c8800e8
:10224400404e8000e04c8800804e8000f04c8800b6
:10225400904e8000004d8800304e8000104d880064
:10226400504e8000204d8800604e8000304d880024
:10227400704e8000404d8800c0832000504d88007f
:1022840060fd2000604d88000000eb00000f780026
:10229400070037001e0078008000400060fd200029
:1022a400008040008000eb00010878001e0fe80069
:1022b4001e007800e20f5000f6ff3e000047800049
:1022c400e10f500013003a00a04e80008000eb00a4
:1022d40072eb27000289b900020178006002b9009c
:1022e400840178000301410073eb27000300b80068
:1022f4000101410082007800420620000300200012
:10230400540502000000000000007800704d8800b1
:10231400020037000000eb00704d88000000eb0065
:10232400000f78001b003700b04e80006101b80038
:10233400104e80008000eb00009ab900040278007f
:10234400028bb90086027800050242000010b80032
:1023540001024200840078004309dd00cd01de0063
:10236400830171004301dd000000200081972600f5
:102374005405020000000000800078001e00780070
:102384000001400060902000000041000108780036
:102394001e0fe8001e007800ef0f5000e2ff360029
:1023a4000080fa00000006000400fa0030498000b2
:1023b4000030a10030498800ca01a800004780000d
:1023c400e10f50006d003200e10f500005003900ac
:1023d400e20f500076003200e30f50000500320097
:1023e4000c013700d621ef00d821ef00da21ef00ed
:1023f400110137007247800083478000f04c800051
:102404008000eb000001510081815900004d8000e3
:102414008000eb00009ab90004027800028bb90036
:1024240086027800050242000013b800068fbe0041
:102434009e0390000702420014079800823e200089
:102444001e02be001100090042aad800f050880004
:10245400f0508000fe0f500002003600e001200022
:10246400f0508800f05080000000e00003003a00c3
:102474000000eb00e04688001d003700f04c8000af
:102484006101b8007047800081478000800f5100cf
:10249400818f590014003100f05080006101b800b0
:1024a4001051800021518000009ab9000402780084
:1024b400028bb90086027800050242000013b800be
:1024c400068fbe009e039000070242001407980086
:1024d400821620001e02be001100090042aad80084
:1024e400e0468800020037000000eb00e046880068
:1024f400c04e8000210320008080400000518000f5
:10250400808f500003003100305180000000e8004b
:1025140030518800c04e8000e1fc2f0080804000d4
:1025240000518000808f500003003600305180003d
:102534000000e9003051880030518000f40f500051
:1025440005003400304980000010a00030498800a4
:102554000000eb003051880030518000f40f40003f
:10256400b2003d00304980000010a10030498800cd
:102574000000eb0030518800af003700900e0200dd
:1025840000000000c04680000080d1006047880041
:1025940020002000004788000000eb003051880034
:1025a400304980000010a10030498800a2003700a3
:1025b40010478000e10f500022003200e10f50006c
:1025c40005003900e20f500039003200e30f5000db
:1025d400430032008b003700004c8000b00e8800ae
:1025e400b00e8000c00e8800b00e8000d00e8800af
:1025f400204c80000000e900204c8800204c800022
:102604000000e0000e003a00704680000000e80080
:102614007046880070468000e50f500002003400c8
:102624000000eb007046880070468000300e020007
:1026340000000000104780000000e80010478800f8
:1026440073003700104c8000b00e8800b00e80007c
:10265400c00e8800b00e8000d00e8800304c800080
:102664000000e900304c8800304c80000000e0009d
:102674000e003a00704680000000e80070468800b2
:1026840070468000e50f5000020034000000eb00ab
:102694007046880070468000300e02000000000082
:1026a400104780000000e8001047880058003700f9
:1026b4000000eb0040518800404c800050518800dd
:1026c400704c800060518800704c8000705188000c
:1026d400104780000000e800104788004c003700d5
:1026e40041518000624c800010c0b300828f5000c2
:1026f400010031000040eb008100e80041518800f6
:102704000004e000090032000000eb0010478800dc
:10271400300020000047880013e1a9008ce0a900e4
:102724008460a9008c60a800350037004151800006
:10273400904c800080027800110009008580d80048
:102744008000fd000000e00003003a0050518000ca
:102754000000e8005051880050518000b00e8800fd
:10276400b00e8000c00e8800b00e8000d00e88002d
:1027740041518000a04c8000000378001100090042
:102784008680d8008000fd000000e00006003a00ca
:10279400605180000000e9006051880070518000a1
:1027a4000000e900705188006151800010c0b3003e
:1027b4000100e000010034000040eb008100e9006a
:1027c400615188000004e0000d0032007051800067
:1027d40060518800704680000000e8007046880060
:1027e40070468000e50f5000020034000000eb004a
:1027f4007046880070468000300e02000000000021
:10280400030037000000eb001047880000000000c0
:102814000900370000478000e40f5000050036002f
:102824000000eb00004788000300370000000000b0
:102834000100370000000000ca01a9000080fa006e
:04284400000006008a
:020000040000fa
:10284800340a000002000000020000003009000005
:10285800300900005000000000000000000a0000dd
:102868001e00000002000000ffff0200000400003c
:1028780003000000000100000500ff00ff00060043
:1028880000120000180009000021000024030000c5
:10289800ca08000066000000000000001e0a0000d0
:1028a8001200000000000000b40900002800000029
:1028b80002000000280028000058020058023700d3
:1028c800004b0000a00f640000d007003075060020
:1028d8000078000014001400008813000200320081
:1028e80000040000fa000500000000008009000054
:1028f80034000000000000003c0800000600000052
:1029080000000000d60f00000600000000000000d4
:10291800dc090000240000000200000002001e0084
:102928000800ff00dc0fe2000f00000002001e009c
:102938000800ff00e80fee000f00000002001e0074
:102948000800ff00f40ffa000f0000000008000064
:102958003c000000020000004b02960004de550017
:102968004b02f600e03d02007a041e00663d0200bc
:10297800f9ce54000e540e007a2800000000000022
:10298800440589000a253e004405c800ec8405007a
:10299800080b4a004f840500d3d581001581150026
:1029a800b41c000000000000dc0f00002400000040
:1029b800000000004208000088000000020000003b
:1029c800010000000068080069086800086808003d
:1029d80068086800085808000000000000000000af
:1029e80000000000000000000000000000000000df
:1029f8000000000000020800010190000891080092
:102a080090089000089008009008800008000000d6
:102a180000000000000000000000000000000000ae
:102a28000000000000000000000002000802020090
:102a3800b808b90008b80800b808b80008b808000d
:102a4800a8080000000000000000000000000000ce
:102a5800000000000000000000000000000000006e
:102a680042086a0008920800000000000000000008
:102a78000000000000000000360a0000020000000c
:102a880000000000380a00000200000002000000f8
:102a980004000000300a00000400000000000000ec
:102aa8003a0a0000020000000200000001000000d5
:102ab8003c0a0000020000000000000000000000c6
:020000040000fa
:102ac8000000fa00dc22ef0000fc2f00c01688008e
:102ad800d022ef00d622ef0000012800200888004d
:102ae80000012000800888000621ef0084c0a900aa
:102af8008cc0a80011e1a8000001200090088800ff
:102b08000a21ef0084e0a9008ce0a800000028005a
:102b1800f00888003c17020000000000e10f500098
:102b280003003a00409f28007405020000000000de
:102b3800e616020000000000e10f500003003a0012
:102b480020a02800740502000000000014170200ed
:102b5800000000000000eb0000478800010037007b
:102b68000000000030498000680060000000e000bc
:102b780002003200d6110200000000003049800037
:102b8800700060000000e000f5ff3200001602004f
:102b980000000000f3ff37000400fa001007980057
:102ba800080037000000eb00000f78000100370034
:102bb8001e0fe800703e20009e007800808f5000b5
:102bc800fbff36001e00900000f0a7000000ea009e
:102bd8000000ea004f00de00004078009e009000f0
:102be8008100e900110798000004e000edff3a00b9
:102bf8000080fa00000006000200fa003049800058
:102c08000040a10030498800a016800061006000e3
:102c18000000e0000c003a001e007800610060002f
:102c28000000e00008003a00304980000000a100e0
:102c3800304988001e0078000000a000000f7800ce
:102c48001000200000478800a01680006200600085
:102c58000000e0000a003a000000eb00004788008e
:102c6800304980000000a100304988000000eb00d6
:102c7800104788001e0078000010a000000f7800a0
:102c88001e007800610060000000e00007003200cc
:102c9800a0168000610060000000e0000300320020
:102ca8001e0078000000a100000f78001e007800c8
:102cb800620060000000e00007003200a0168000fb
:102cc800620060000000e000030032001e0078008f
:102cd8000010a100000f78000080fa000000060034
:102ce800881f7800891f78008a1f78008b1f78005a
:102cf8004400f8003400f8002005900008f02f0088
:102d08000a40e10003003200480f2000aa018800b1
:102d180001003700080f20002802880000029000f8
:102d2800d00490008301e90003800800150000002a
:102d3800100490003103780030059000c005900021
:102d4800b80278009a00ca00048008000a0000004f
:102d58005210c4009b80ca008707cd005290c4005f
:102d68005290c500ba87cd005390c4008607cd00a5
:102d78009a00ca005290c500bb87cd000600ca0061
:102d88000900c8003200cd003400f9004400f90001
:102d9800cf0578004f057800cf0478004f047800fd
:102da80000000600b0009000400190000000900074
:102db80000800800010000008018eb000019eb00fb
:102dc800000006000000fa00d421ef00205c20007b
:102dd800200e880070772000400e8800a003200095
:102de800600e8800d021ef00205c2000b00e880023
:102df800205c2000c00e8800205c2000d00e8800d7
:102e0800c621ef0000002800000e880088e0a90015
:102e180090e0a800100020000080fa0000000600e2
:102e28000000fa00a842a900a802a900a8c2a900a7
:102e3800a8e2a900a902a900400e200000158800f8
:102e4800004120001015880090c02000201588003f
:102e5800d003200050158800a622ef008560a90045
:102e68008d60a800a1e2a8000080fa00000006001a
:102e78000400fa00e0f22f00cc0402000000000079
:102e880000f62d00000f7800d0792f001007980069
:102e9800f20020009e0090001e0078001a05020033
:102ea80000000000100020000080fa00000006006a
:020000040000fa
:0200000401f009
:04000000f7bf000046
:020000040000fa
:0200000401f009
:04000400ff7f00007a
:020000040000fa
:0200000401f009
:04000800ffff0000f6
:020000040000fa
:0200000401f009
:04001400ffff0000ea
:020000040000fa
:0200000401f009
:04001800ffff0000e6
:00000001FF
