:020000040000fa
:080000000001040000000000f3
:020000040000fa
:040008008e02000064
:020000040000fa
:04000c006e02000080
:020000040000fa
:040010007202000078
:020000040000fa
:040014007602000070
:020000040000fa
:040018007a02000068
:020000040000fa
:04001c008e02000050
:020000040000fa
:040020008e0200004c
:020000040000fa
:040024008e02000048
:020000040000fa
:040028008e02000044
:020000040000fa
:04002c008e02000040
:020000040000fa
:040030008e0200003c
:020000040000fa
:040034008e02000038
:020000040000fa
:040038008e02000034
:020000040000fa
:04003c008e02000030
:020000040000fa
:040040002a02000090
:020000040000fa
:040044008e02000028
:020000040000fa
:040048008e02000024
:020000040000fa
:04004c00d4010000db
:020000040000fa
:04005000d0010000db
:020000040000fa
:040054000a0200009c
:020000040000fa
:040058008e02000014
:020000040000fa
:04005c008e02000010
:020000040000fa
:040060008e0200000c
:020000040000fa
:040064008e02000008
:020000040000fa
:040068008e02000004
:020000040000fa
:04006c008e02000000
:020000040000fa
:040070008e020000fc
:020000040000fa
:040074008e020000f8
:020000040000fa
:040078008e020000f4
:020000040000fa
:04007c008e020000f0
:020000040000fa
:040080008e020000ec
:020000040000fa
:040084008e020000e8
:020000040000fa
:040088008e020000e4
:020000040000fa
:04008c008e020000e0
:020000040000fa
:040090008e020000dc
:020000040000fa
:040094008e020000d8
:020000040000fa
:040098008e020000d4
:020000040000fa
:04009c008e020000d0
:020000040000fa
:0400a0008e020000cc
:020000040000fa
:0400a4008e020000c8
:020000040000fa
:0400a8008e020000c4
:020000040000fa
:0400ac008e020000c0
:020000040000fa
:0400b0008e020000bc
:020000040000fa
:0400b4008e020000b8
:020000040000fa
:0400b8008e020000b4
:020000040000fa
:0400bc008e020000b0
:020000040000fa
:0400c0008e020000ac
:020000040000fa
:0400c4008e020000a8
:020000040000fa
:0400c8008e020000a4
:020000040000fa
:0400cc008e020000a0
:020000040000fa
:0400d0008e0200009c
:020000040000fa
:0400d4008e02000098
:020000040000fa
:0400d8008e02000094
:020000040000fa
:040108008e02000063
:020000040000fa
:04010c007e0200006f
:020000040000fa
:040110008202000067
:020000040000fa
:04011400860200005f
:020000040000fa
:040118008a02000057
:020000040000fa
:04011c008e0200004f
:020000040000fa
:040120008e0200004b
:020000040000fa
:040124008e02000047
:020000040000fa
:040128008e02000043
:020000040000fa
:04012c008e0200003f
:020000040000fa
:040130008e0200003b
:020000040000fa
:040134008e02000037
:020000040000fa
:040138008e02000033
:020000040000fa
:04013c008e0200002f
:020000040000fa
:040140002a0200008f
:020000040000fa
:040144008e02000027
:020000040000fa
:040148008e02000023
:020000040000fa
:04014c00d4010000da
:020000040000fa
:04015000d0010000da
:020000040000fa
:040154000a0200009b
:020000040000fa
:040158008e02000013
:020000040000fa
:04015c008e0200000f
:020000040000fa
:040160008e0200000b
:020000040000fa
:040164008e02000007
:020000040000fa
:040168008e02000003
:020000040000fa
:04016c008e020000ff
:020000040000fa
:040170008e020000fb
:020000040000fa
:040174008e020000f7
:020000040000fa
:040178008e020000f3
:020000040000fa
:04017c008e020000ef
:020000040000fa
:040180008e020000eb
:020000040000fa
:040184008e020000e7
:020000040000fa
:040188008e020000e3
:020000040000fa
:04018c008e020000df
:020000040000fa
:040190008e020000db
:020000040000fa
:040194008e020000d7
:020000040000fa
:040198008e020000d3
:020000040000fa
:04019c008e020000cf
:020000040000fa
:0401a0008e020000cb
:020000040000fa
:0401a4008e020000c7
:020000040000fa
:0401a8008e020000c3
:020000040000fa
:0401ac008e020000bf
:020000040000fa
:0401b0008e020000bb
:020000040000fa
:0401b4008e020000b7
:020000040000fa
:0401b8008e020000b3
:020000040000fa
:0401bc008e020000af
:020000040000fa
:0401c0008e020000ab
:020000040000fa
:0401c4008e020000a7
:020000040000fa
:0401c8008e020000a3
:020000040000fa
:0401cc008e0200009f
:020000040000fa
:0401d0008e0200009b
:020000040000fa
:0401d4008e02000097
:020000040000fa
:0401d8008e02000093
:020000040000fa
:100200004f9d2000aefe20000e018800000000007f
:10021000000020000000e000020032000001200089
:100220002002880014000700670107000000e000ba
:1002300003003a0080ef2000010020000200370098
:100240000000200001002000810f7000010032003a
:1002500014000700000020000000e000020032004f
:100260000000020000000000e60f02000000000095
:100270000040da000000fe004440a90020062000f3
:100280000000e0000300320000002000a001880010
:100290004440a800000006008a1f78008b1f7800e9
:1002a0000000060091018800800478000000eb0047
:1002b0001a003700e284440032a0b4009905ba0065
:1002c000e284440032a0b4009906ba00e2844400fb
:1002d00032a0b4000006eb00476fde00fd07b2005d
:1002e000636ce10003003a00ebff07000000eb0045
:1002f0000a003700606ce10004003a00005deb008a
:100300008b05e900fdff3e00040037006168e10055
:10031000010032000086eb000b00070019c7ba008d
:100320001905ba000e04e00003003a000a00e000dc
:10033000e0ff3a0000000600fe07b2009e018800c0
:100340008a047800f5ff3700395dba008b05e900b3
:100350000c003200295dba008b05e900080032006c
:100360000c00e00003003a00e284440032a0b40034
:10037000f5ff370019ddba008b05e900faff3a00f6
:100380008904e800e184440032a0b40000000600c3
:10039000000000000000000000000000000000005d
:1003a0008540a900004006003600f800809fbe008e
:1003b000829fbe00849fbe00869fbe00881f78007b
:1003c0008520a900c4030200000000000004e00032
:1003d00009003200584e8000d203020000000000e5
:1003e000005c7800584e8800c40302000000000042
:1003f0000004e000f7ff3a004f0478004f03be000e
:100400004f02be004f01be004f00be003600f90093
:1004100000400600801f78003400f8000000200033
:10042000a00188008560a900304580008202b400e8
:100430000000d10030458800404580008002b400b3
:100440000000d100404588003400f9004f007800da
:1004500000400600809fbe00821f78000621ef004a
:1004600084c0a900a0448000e30f500003003200c4
:100470004f0178004f00be0000400600704480002d
:100480000000e80070448800e50f50000c003400c4
:100490000000eb00704488008000eb008180400089
:1004a000c29a200062817800a20e8800604688000f
:1004b0004f0178004f00be0000400600efff3700fc
:1004c0008000780081804000c29a2000628178001c
:1004d000a20e880060468800f5ff37008020a90042
:1004e000ffff37008060a900ffff37008040a900b0
:1004f000ffff37008080a900ffff37008020a900a0
:10050000ffff37008060a900ffff37008040a9008f
:10051000ffff37008080a900ffff37000040da00ae
:100520000000fe000a00fa0011002000b1bf9f0089
:10053000c0bf9f006a805700dd0207004fb89700d8
:100540000080fa00000006000a00fa00e20f5000e6
:1005500034003e00804e8000e10f50000300320066
:10056000e20f500011003a000c003700c3202000b9
:100570000300e00001003a000040da000c02e20053
:10058000020035001422ef000de2a8000f42ab007c
:100590000d003a000f42a8000b0037006321200035
:1005a0000300e00001003a000040da001602e20019
:1005b000020035001e22ef0017e2a8001942ab002e
:1005c00001003a001942a800820178000b003700b0
:1005d0003102fb00e10f500004003a000f22ab0093
:1005e000feff3a0084108800030037001922ab0098
:1005f000feff3a00d41088008301e9000300e00008
:10060000f3ff3a00e10f500003003a000f02ab0085
:10061000feff32000b0037001902ab00feff320074
:100620000800370033002000b3bf9f00c0bf9f0009
:10063000d1bf9f00e2bf9f006a8057009e02070063
:100640006fb99700020078000080fa0000000600f1
:100650000a00fa0051002000b1bf9f00c0bf9f00f8
:100660006a805700960207005fb897000080fa0082
:1006700000000600889fbe0080047800904e800035
:100680000000e00004003a000e0007000084eb00c8
:100690000000e00008003500984e80000900e000ee
:1006a0000500320009004400060007000000e000d9
:1006b00001003d000084eb00080078004f04be00fc
:1006c00000000600800078000100e00003003a000e
:1006d00000002000904e8800000005000080eb0024
:1006e00002002000828f500002003e00914e8800e0
:1006f0000000eb00000006008520a900e700600074
:100700008540a900c408dd0000017800f3f82f003f
:100710000207b200c4048000848161004411dd003e
:1007200083817000e8006000c3048800c308de0015
:10073000f38f2f00e1806000c40480008481610099
:10074000c908dd00830171000008b200c3048800fd
:10075000f2df2f004700de00630480000301610028
:1007600061006000028170004a00dd0062048800c0
:10077000f1bf2f006404800084806000810070005d
:100780006104880000000600701080006140600075
:1007900000000600a2108800601088007110880018
:1007a000000006006010800066006000e60f500048
:1007b00002003a00901080000000060090108000b7
:1007c000f00fb2000000060000000500839f6800e3
:1007d0000100e00002003d0060001000e080180011
:1007e0000300e00002003d0060011100e0811900fb
:1007f000050007004f00e00002003b006000100011
:10080000e0801800000006006022b8000602200008
:100810000000d0008180d2000482d2008582d20004
:100820000000a0000202520083825a00030031003f
:100830000202420083824a000000a1000603e90090
:10084000f3ff3a0000000600e18220006a00070082
:10085000800078000080eb000100e000040035001b
:10086000e1822000a0002000020007004f80de008f
:1008700000000600889fbe008a1f78000004be00aa
:10088000c900900069009000808f50000500390079
:1008900009007800b70007008080eb000000e0004e
:1008a0001600350008457800490090000858780087
:1008b000c00498001900780000b8a30004003a00b2
:1008c00000a8a30007003200ea4f540005003a00d8
:1008d000090078000d0007008080eb000000e000b8
:1008e00006003a0000c0200019006000020032003b
:1008f00049009000e00498008a80fb000100780025
:100900004f0578004f04be0000000600889fbe001f
:100910008a1f7800000478000800e0000d003a000b
:10092000c8872000700544008004eb005800780060
:100930000000e00004003200f4ff07000000e000c7
:1009400001003d008084eb008a0f5400f7ff3a005d
:100950002500370000002200180060008004eb0032
:1009600021003200a80490000f0037000901510057
:10097000384090000000fb0089007800f2fe07007c
:100980000000e00007003c002800900040049800b0
:1009900060049800500c98001890a0008084eb0030
:1009a000110037008084440048019000828f540079
:1009b000eeff39002800900040049800980078006d
:1009c00002c020000281600001003a00380090005f
:1009d00001e8a30002003200600498000100370023
:1009e000500c98008004eb00090078004f05780057
:1009f0004f04be0000000600889fbe008a9fbe0014
:100a000080047800010478002c003700c8009000b2
:100a100068009000808f50000400390008007800c2
:100a2000540007000000e0003700350000402000bf
:100a30001800600009003200a100200009007800c1
:100a400042000700800578000b00e0000300320040
:100a5000618514000a85450004003700090078000c
:100a600034000700000578008005eb004800900086
:100a7000e8009000808050008a8f50000200310012
:100a8000010578008005eb000a01780089007800f4
:100a900021000700480090000a0040004004980030
:100aa0000b00e000040032000800780097ff070008
:100ab0000000e00014003a008a8444001904e000b9
:100ac000d2ff3a00008020001800600006003200cb
:100ad000080078008dff0700800078000080eb00a0
:100ae0000100e00009003a0001c020009880600089
:100af0000000eb0005003200480090006004980000
:100b00000000eb00010037000080eb004f05be0045
:100b10004f04be000000060080017800020037008c
:100b2000b15978000201e9000200e000fcff3a0040
:100b30000000060080007800010178003104e00028
:100b4000fdff3a0000005100000006000001eb002c
:100b500000027800b041780081cf510001003a00d6
:100b6000040178000304e000f9ff3a000200780075
:100b700000000600889fbe008a1f780000047800ed
:100b8000c8009000680190000000eb00828f5000c8
:100b90003c003900180078002200290002016000a2
:100ba000e20f510007003200012024000000e000a5
:100bb00001003d0001202000008c70000080eb004f
:100bc000300037000200260002006000820f500053
:100bd00009003a0038009000808f5000060039006c
:100be0000800780049ff0700800078000080eb00d3
:100bf0000100e00023003a001805780000c0200042
:100c00000000650018003a00a8049000600220006f
:100c100008004000808f540013003a00002020009c
:100c2000ef000700200498000000e00005003a00f3
:100c300029049800490498008904e80039049800c0
:100c4000080037000a60a0000a0c780040049800f1
:100c5000012020008080400031049800400c980062
:100c6000500c98000c0007002800900050049800d9
:100c7000380090006004980000002600180c7000f6
:100c80000000eb004f0578004f04be000000060096
:100c9000e06e200061003700881f7800c89c2000ab
:100ca0001804e00003003a00f9ff070020c0b30079
:100cb000004c78004f04780000000600889fbe00ba
:100cc000000478000800780010ff07008004780016
:100cd000000420001800600002003200280090008c
:100ce0005a0007000000eb002004980038409000f4
:100cf0000004e000050035000000fb0009fe0700cd
:100d00000000e000010032008084eb001810900029
:100d10000000e000080032004dfe07000000e00087
:100d2000010032008084eb0018109000470007009b
:100d30000000eb001014980000082000180060006c
:100d4000150032000001eb006000b800e3872000ce
:100d50000202d00063027a00880f520005003a00b8
:100d60000000400081804800008041000008eb0046
:100d70000600370061004000e08048000201e80002
:100d8000e80f5000e08f5800f0ff3a0008007800ac
:100d90002e0007000e003700000c780000c0eb00aa
:100da00030449800600220000800400020049800b1
:100db0004004980050049800400c9800600498008b
:100dc000500c98007004980076004400000c9800c5
:100dd000090078004f04be0000000600881f78005c
:100de0000004eb006140b800e2ff2f00f3ff2f008a
:100df000b5000700c2882000620078000000e00013
:100e000001003200adff07000804e800e80f5400bd
:100e1000f4ff3a004f0478000000060001002000b3
:100e20000100e00008003200010080000100e00045
:100e3000050032008100e900010088008100d00037
:100e40000200800000b17800000006000000e00011
:100e50002f003200c0017800e38f51002c003600d3
:100e60000308a3002a003a00414e80000100e00080
:100e700002003200810f5000040031001100980080
:100e8000404e880016003700820078001101900063
:100e90000200e00002003200800f5100faff39002a
:100ea0001102780084824000850f5000180039003c
:100eb000808f520003003a0083084200010078004e
:100ec000070037000200e000030032008301400009
:100ed000830f51000e003900120098009000980016
:100ee000900090000100e000090032001001400075
:100ef000828f500006003a00629c20000009eb003f
:100f00001001780011084100910090001100980034
:100f100000000600889fbe0000047800314e80006b
:100f20000100e00002003200010078000d003700ef
:100f3000414e8000809c200004003700910f540037
:100f4000250036000180e800910090000100e000db
:100f5000faff3a0010003700920f54001e003600ce
:100f60000280e800100178000200e000faff3a0079
:100f700011017800414e8000809c20000400370061
:100f8000910f5400140036000180e8009100900099
:100f9000828f5000faff3a00794e8000888f54000b
:100fa000010031008804780009007800360007004d
:100fb0000000e00004003a00888f54000500320071
:100fc0008904d100f5ff3700091878009fff07005a
:100fd000d2ff37000000eb004f04be000000060007
:100fe000881f7800630440000800a1008000eb0027
:100ff000800f540021003600e30f540001003e0032
:101000004800200008007800c2ff07008000eb00c5
:101010000000e00019003200900078009101780093
:1010200064815100880f51000300310011019000cc
:1010300002087800070037000881400002087800a5
:10104000910190001301980010017800110914001b
:1010500088087800100178000000eb000200e00032
:1010600004003200920190000300e0000100320011
:101070000280e800304e88008180e800010078009e
:101080004f04780000000600800078000000eb00ac
:101090000100e000050034000100780075fd070044
:1010a000e10f400001003a000000eb0000000600e4
:1010b00000c0da000000060000c0da0000000600f0
:1010c00000c0da0000000600020ab900001bb900e7
:1010d0000200b800810042008100430000000600c9
:020000040000fa
:1010e000000000006400000000000000e8030000b1
:1010f000f4010000641900000a000000f40100007f
:10110000f40100008813000000000000ffff000051
:10111000000000001400000000000000007d00003e
:1011200000000000ffff0000000000001e000000a3
:1011300002000000140000006400000084030000ae
:10114000000000001400000055410000525400004f
:10115000204900004e490000542000004f4b000081
:101160000d000000546900006d6500007220000051
:1011700032200000494e000049540000204f00007a
:101180004b0d0000004d000043500000574d000083
:10119000204900004e490000542000004f4b000041
:0411a0000d0000003e
:020000040000fa
:1011a400889fbe008a9fbe00a14b8000400620009d
:1011b400808f500001003600a04b8800b14b8000a6
:1011c40040062000808f500001003600b04b88009c
:1011d400e14b800040062000808f50000100360063
:1011e400e04b8800f14b800040062000808f5000c7
:1011f40001003600f04b8800a14c8000400620001e
:10120400808f500001003600a04c8800c14b800044
:10121400803e2000808f500001003600c04b8800c3
:10122400d14b8000803e2000808f500001003600aa
:10123400d04b8800014c8000301f2000808f50006c
:1012440002003e000000e800004c8800014c8000d1
:1012540040962100808f500001003600004c880029
:10126400104c8000e90f500002003e00a000200056
:10127400104c8800114c8000401f2000808f5000cb
:1012840001003600104c8800214c8000301f2000e3
:10129400808f500002003e000000e800204c8800cf
:1012a400214c800080382100808f500001003600de
:1012b400204c8800514c800000d02700808f5000c3
:1012c40001003600504c8800614c800000d027009b
:1012d400808f500001003600604c8800714c800003
:1012e40000d02700808f500001003600704c880029
:1012f400304c8000404c8000f40f50000200360057
:1013040040012000404c8800804c8000904c8000bc
:10131400fe0f500002003600e0012000904c8800cf
:10132400b04c8000e10f50004c013600b04c8000fe
:10133400f40f50000200360040012000b04c880039
:10134400c14c800030062000808f500002003e0017
:101354000000e800c04c8800c14c800040382000e8
:10136400808f500001003600c04c8800d04c8000b3
:10137400d04c8000f40f50000200360040012000e1
:10138400d04c8800a04b800058b820000800b8005a
:101394004206200003002000e603020000000000d3
:1013a400004a8800b04b80000800b80042062000c4
:1013b40003002000e603020000000000104a880039
:1013c400c04b80006a00b900204a8800d04b8000de
:1013d4006a00b900304a8800e04b80000800b80079
:1013e4004206200003002000e60302000000000083
:1013f400800578004b4a8800f04b80000800b80054
:101404004206200003002000e60302000000000062
:1014140080047800594a8800004c80006a00b900b2
:1014240000047800604a8800b24c8000104c8000b0
:101434000011b80000d42000310020000404020090
:1014440000000000000578007a4a8800b24c800051
:10145400204c80000011b80000d42000310020008e
:101464000404020000000000804a8800800f550038
:10147400020031000085e8007a4a88000005550022
:10148400110009000a84d8000005e800aa4a88006f
:10149400898f5500020036008b84e800594a880081
:1014a4008b845400110009000984d8000004e8006a
:1014b400984a8800b04c80008000eb004309dd00ae
:1014c400cd01de00830171004301dd000000200036
:1014d400819722000404020000000000b04a880042
:1014e400c14a8800304c80004a00de000000e80059
:1014f400d04a8800404c8000e04a8800804c80003c
:10150400f04a8800904c8000004b8800304c8000ea
:10151400104b8800504c8000204b8800604c8000a9
:10152400304b8800704c8000404b880000802000c5
:10153400504b8800a0ff2000604b8800a04480002e
:10154400e10f5000c8003200e09620000008eb00d4
:10155400b14c8000104c80000008b8004309dd0045
:10156400cd01de00830171004301dd000000200095
:101574008197260004040200000000005045880002
:10158400b14c8000104c80000008b8004309dd0015
:10159400cd01de00830171004301dd000000200065
:1015a40081972600040402000000000060458800c2
:1015b400b14c8000104c80000008b8004309dd00e5
:1015c400cd01de00830171004301dd000000200035
:1015d4008197260004040200000000007045880082
:1015e400b14c8000104c80000008b8004309dd00b5
:1015f400cd01de00830171004301dd000000200005
:101604008197260004040200000000008045880041
:10161400b14c8000104c80000008b8004309dd0084
:10162400cd01de00830171004301dd0000002000d4
:101634008197260004040200000000009045880001
:10164400b14c8000104c80000008b8004309dd0054
:10165400cd01de00830171004301dd0000002000a4
:10166400819726000404020000000000a0458800c1
:10167400b14c8000104c80000008b8004309dd0024
:10168400cd01de00830171004301dd000000200074
:10169400819726000404020000000000b045880081
:1016a400b14c8000104c80000008b8004309dd00f4
:1016b400cd01de00830171004301dd000000200044
:1016c400819726000404020000000000c045880041
:1016d400b14c8000104c80000008b8004309dd00c4
:1016e400cd01de00830171004301dd000000200014
:1016f400819726000404020000000000d045880001
:10170400b14c8000104c80000008b8004309dd0093
:10171400cd01de00830171004301dd0000002000e3
:10172400819726000404020000000000e0458800c0
:10173400b14c8000104c80000008b8004309dd0063
:10174400cd01de00830171004301dd0000002000b3
:10175400819726000404020000000000f045880080
:10176400b14c8000104c80000008b8004309dd0033
:10177400cd01de00830171004301dd000000200083
:10178400819726000404020000000000004688003f
:10179400b14c8000104c80000008b8004309dd0003
:1017a400cd01de00830171004301dd000000200053
:1017b40081972600040402000000000010468800ff
:1017c400b14c8000104c80000008b8004309dd00d3
:1017d400cd01de00830171004301dd000000200023
:1017e40081972600040402000000000020468800bf
:1017f400b14c8000104c80000008b8004309dd00a3
:10180400cd01de00830171004301dd0000002000f2
:10181400819726000404020000000000304688007e
:10182400b14c8000104c80000008b8004309dd0072
:10183400cd01de00830171004301dd0000002000c2
:10184400819726000404020000000000404688003e
:101854004f05be004f04be0000000600200020001b
:10186400b04c8800b1fe3700a14c800070eb27001b
:101874000008b8004206200003002000040402000f
:1018840000000000704b8800b14c8000104c8000b8
:101894000008b8004309dd00cd01de0083017100ba
:1018a4004301dd00000020008197260004040200ab
:1018b4000000000050458800b14c8000104c8000ae
:1018c4000008b8004309dd00cd01de00830171008a
:1018d4004301dd000000200081972600040402007b
:1018e4000000000060458800b14c8000104c80006e
:1018f4000008b8004309dd00cd01de00830171005a
:101904004301dd000000200081972600040402004a
:101914000000000070458800b14c8000104c80002d
:101924000008b8004309dd00cd01de008301710029
:101934004301dd000000200081972600040402001a
:101944000000000080458800b14c8000104c8000ed
:101954000008b8004309dd00cd01de0083017100f9
:101964004301dd00000020008197260004040200ea
:101974000000000090458800b14c8000104c8000ad
:101984000008b8004309dd00cd01de0083017100c9
:101994004301dd00000020008197260004040200ba
:1019a40000000000a0458800b14c8000104c80006d
:1019b4000008b8004309dd00cd01de008301710099
:1019c4004301dd000000200081972600040402008a
:1019d40000000000b0458800b14c8000104c80002d
:1019e4000008b8004309dd00cd01de008301710069
:1019f4004301dd000000200081972600040402005a
:101a040000000000c0458800b14c8000104c8000ec
:101a14000008b8004309dd00cd01de008301710038
:101a24004301dd0000002000819726000404020029
:101a340000000000d0458800b14c8000104c8000ac
:101a44000008b8004309dd00cd01de008301710008
:101a54004301dd00000020008197260004040200f9
:101a640000000000e0458800b14c8000104c80006c
:101a74000008b8004309dd00cd01de0083017100d8
:101a84004301dd00000020008197260004040200c9
:101a940000000000f0458800b14c8000104c80002c
:101aa4000008b8004309dd00cd01de0083017100a8
:101ab4004301dd0000002000819726000404020099
:101ac4000000000000468800b14c8000104c8000eb
:101ad4000008b8004309dd00cd01de008301710078
:101ae4004301dd0000002000819726000404020069
:101af4000000000010468800b14c8000104c8000ab
:101b04000008b8004309dd00cd01de008301710047
:101b14004301dd0000002000819726000404020038
:101b24000000000020468800b14c8000104c80006a
:101b34000008b8004309dd00cd01de008301710017
:101b44004301dd0000002000819726000404020008
:101b54000000000030468800b14c8000104c80002a
:101b64000008b8004309dd00cd01de0083017100e7
:101b74004301dd00000020008197260004040200d8
:101b840000000000404688004f05be004f04be0020
:101b94000000060031ff3700104580000030a1002e
:101ba40010458800ca01a800a04480000000e0009d
:101bb40005003a00d621ef00d821ef00da21ef002a
:101bc400ca01a90000000600e20f5000070032001d
:101bd400e40f5000faff36000000eb00a044880038
:101be400ca01a90000000600f7ff3700b0448000d6
:101bf400e10f50002300320009003900e20f5000c9
:101c04005a003200e30f50002e0032000000eb00b7
:101c1400b0448800ca01a90000000600eaff3700aa
:101c2400004a8000b00e8800d601f800d801f900ff
:101c3400d601f800da01f900214a80008100e900a8
:101c4400214a8800deff3a00704480000000e8006a
:101c540070448800e50f500002003400714488008d
:101c64000000eb000811020000000000b0448000f6
:101c74000000e800b0448800ca01a9000000060082
:101c8400d1ff3700114a8000b10e8800d601f80058
:101c9400d801f900d601f800da01f900314a8000d0
:101ca4008100e900314a8800c5ff3a007044800091
:101cb4000000e80070448800e50f5000e7ff3c0096
:101cc400e8ff3700224e80000202e800244e88001c
:101cd400634a8000830f510030003100924a800033
:101ce400110009000282d8008000fd000000e0001d
:101cf4003a003200104e8000b00e8800d601f80081
:101d0400d801f900d601f800da01f900a24a8000ee
:101d1400110009000282d8000100e000290032000d
:101d2400f04d80008000e900f14d88000000e000e3
:101d3400a3ff3c00004e8000f04d880070448000fa
:101d44000000e80070448800e50f500002003400f1
:101d54000000eb007044880008110200000000003d
:101d6400ca01a9000000060097ff37000000eb003d
:101d7400204e8800404a8000104e8800704a80003f
:101d8400f04d8800004e880030002000b0448800e8
:101d9400ca01a900000006008bff37008000eb0099
:101da400b1448800a044880013e1a9008ce0a90094
:101db4008460a9008c60a800ca01a9000000060084
:101dc40081ff3700f04d80000000e900014e8000e3
:101dd4008100e900014e8800d2ff3700104e8000d8
:0c1de4000000e800104e8800c3ff37002c
:020000040000fa
:101df000ca0900000200000002000000f008000014
:101e0000f008000050000000000000009c090000e5
:101e10001e00000002000000ffff0200000400009e
:101e200003000000000100000500ff00ff000600a5
:101e30000012000018000900002100002403000027
:101e40008e0800006200000000000000ba090000d7
:101e50000c000000000000007409000028000000d1
:101e60000200000028002800005802005802370035
:101e7000004b0000a00f640000d007003075060082
:101e800000780000140014000088130002003200e3
:101e900000040000fa0005000000000040090000f6
:101ea00034000000000000000008000006000000f0
:101eb00000000000fa0f0000060000000000000013
:101ec0000608000088000000020000000100000079
:101ed000002c08002d082c00082c08002c082c00d1
:101ee000081c0800000000000000000000000000c6
:101ef00000000000000000000000000000000000e2
:101f0000000208000101540008550800540854005c
:101f100008540800540844000800000000000000b5
:101f200000000000000000000000000000000000b1
:101f30000000000000000200080202007c087d0092
:101f4000087c08007c087c00087c08006c08000005
:101f50000000000000000000000000000000000081
:101f600000000000000000000000000006082e0035
:101f700008560800000000000000000000000000fb
:101f800000000000cc09000002000000000000007a
:101f9000ce09000002000000020000000400000062
:101fa000c60900000400000000000000d009000085
:101fb000020000000200000001000000d209000041
:0c1fc00002000000000000000000000013
:020000040000fa
:101fcc00dc22ef0000fc2f00c0168800f610020087
:101fdc0000000000e10f50001e0032000001200044
:101fec00800888000621ef0084c0a9008cc0a800de
:101ffc0011e1a800208b280024040200000000003e
:10200c00d810020000000000e10f5000090032005f
:10201c00b4100200000000000000eb00a044880097
:10202c0054100200000000005410020000000000d8
:10203c00fbff3700308c2800240402000000000055
:10204c00b4100200000000000000eb00a044880067
:10205c00f3ff3700408a280024040200000000002f
:10206c0000012000800888000621ef0084c0a90030
:10207c008cc0a80011e1a800208b280024040200c9
:10208c0000000000d810020000000000e10f50001a
:10209c00dfff3a00e7ff3700000006000200fa00fd
:1020ac00104580000040a10010458800d402ab0010
:1020bc0003003a007fb897000008a3001e0032000e
:1020cc00a01680006200600008003a00a04488005e
:1020dc00114580000100a10011458800b044880022
:1020ec007fb897000010a000f0bf9f007fb897004a
:1020fc000008a30002003200d402ab000a003a0030
:10210c007fb897000018a30005003200d422ab0062
:10211c00030032007fb897000010a100f0bf9f00b1
:10212c000080fa00000006007fb897000000a100b4
:10213c00f0bf9f00f2ff3700104580000000a100a7
:10214c00104588007fb897000000a000f0bf9f00ea
:10215c0030002000a0448800d9ff3700a842a90015
:10216c00a802a900a8c2a900a8e2a900a902a90076
:10217c00400e200000158800c032b00010158800f9
:10218c0090c0200020158800d00320005015880036
:10219c00a622ef008560a9008d60a800a1e2a8002e
:1021ac0000000600d421ef00205c2000200e8800e7
:1021bc0071772000410e8800a1032000610e880079
:1021cc00d021ef00b00e8800c00e8800d00e880021
:1021dc00c621ef0000002800000e8800100005004a
:1021ec00e0f22f007c03020000000000f20020004f
:1021fc00d1792f0000f62d00ca0302000000000068
:10220c001000050080004000c29a20006281780016
:0c221c00a20e880060468800000006004a
:020000040000fa
:0200000401f009
:04000000f7bf000046
:020000040000fa
:0200000401f009
:04000400ff7f00007a
:020000040000fa
:0200000401f009
:04000800ffff0000f6
:020000040000fa
:0200000401f009
:04001400ffff0000ea
:020000040000fa
:0200000401f009
:04001800ffff0000e6
:00000001FF
