:020000040000fa
:080000000001040000000000f3
:020000040000fa
:0400080020020000d2
:020000040000fa
:04000c0020020000ce
:020000040000fa
:0400100020020000ca
:020000040000fa
:0400140020020000c6
:020000040000fa
:0400180020020000c2
:020000040000fa
:04001c0020020000be
:020000040000fa
:0400200020020000ba
:020000040000fa
:0400240020020000b6
:020000040000fa
:0400280020020000b2
:020000040000fa
:04002c0020020000ae
:020000040000fa
:0400300020020000aa
:020000040000fa
:0400340020020000a6
:020000040000fa
:0400380020020000a2
:020000040000fa
:04003c00200200009e
:020000040000fa
:04004000200200009a
:020000040000fa
:040044002002000096
:020000040000fa
:040048002002000092
:020000040000fa
:04004c00e4010000cb
:020000040000fa
:04005000d0010000db
:020000040000fa
:040054002002000086
:020000040000fa
:040058002002000082
:020000040000fa
:04005c00200200007e
:020000040000fa
:04006000200200007a
:020000040000fa
:040064002002000076
:020000040000fa
:040068002002000072
:020000040000fa
:04006c00200200006e
:020000040000fa
:04007000200200006a
:020000040000fa
:040074002002000066
:020000040000fa
:040078002002000062
:020000040000fa
:04007c00200200005e
:020000040000fa
:04008000200200005a
:020000040000fa
:040084002002000056
:020000040000fa
:040088002002000052
:020000040000fa
:04008c00200200004e
:020000040000fa
:04009000200200004a
:020000040000fa
:040094002002000046
:020000040000fa
:040098002002000042
:020000040000fa
:04009c00200200003e
:020000040000fa
:0400a000200200003a
:020000040000fa
:0400a4002002000036
:020000040000fa
:0400a8002002000032
:020000040000fa
:0400ac00200200002e
:020000040000fa
:0400b000200200002a
:020000040000fa
:0400b4002002000026
:020000040000fa
:0400b8002002000022
:020000040000fa
:0400bc00200200001e
:020000040000fa
:0400c000200200001a
:020000040000fa
:0400c4002002000016
:020000040000fa
:0400c8002002000012
:020000040000fa
:0400cc00200200000e
:020000040000fa
:0400d000200200000a
:020000040000fa
:0400d4002002000006
:020000040000fa
:0400d8002002000002
:020000040000fa
:0401080020020000d1
:020000040000fa
:04010c0020020000cd
:020000040000fa
:0401100020020000c9
:020000040000fa
:0401140020020000c5
:020000040000fa
:0401180020020000c1
:020000040000fa
:04011c0020020000bd
:020000040000fa
:0401200020020000b9
:020000040000fa
:0401240020020000b5
:020000040000fa
:0401280020020000b1
:020000040000fa
:04012c0020020000ad
:020000040000fa
:0401300020020000a9
:020000040000fa
:0401340020020000a5
:020000040000fa
:0401380020020000a1
:020000040000fa
:04013c00200200009d
:020000040000fa
:040140002002000099
:020000040000fa
:040144002002000095
:020000040000fa
:040148002002000091
:020000040000fa
:04014c00e4010000ca
:020000040000fa
:04015000d0010000da
:020000040000fa
:040154002002000085
:020000040000fa
:040158002002000081
:020000040000fa
:04015c00200200007d
:020000040000fa
:040160002002000079
:020000040000fa
:040164002002000075
:020000040000fa
:040168002002000071
:020000040000fa
:04016c00200200006d
:020000040000fa
:040170002002000069
:020000040000fa
:040174002002000065
:020000040000fa
:040178002002000061
:020000040000fa
:04017c00200200005d
:020000040000fa
:040180002002000059
:020000040000fa
:040184002002000055
:020000040000fa
:040188002002000051
:020000040000fa
:04018c00200200004d
:020000040000fa
:040190002002000049
:020000040000fa
:040194002002000045
:020000040000fa
:040198002002000041
:020000040000fa
:04019c00200200003d
:020000040000fa
:0401a0002002000039
:020000040000fa
:0401a4002002000035
:020000040000fa
:0401a8002002000031
:020000040000fa
:0401ac00200200002d
:020000040000fa
:0401b0002002000029
:020000040000fa
:0401b4002002000025
:020000040000fa
:0401b8002002000021
:020000040000fa
:0401bc00200200001d
:020000040000fa
:0401c0002002000019
:020000040000fa
:0401c4002002000015
:020000040000fa
:0401c8002002000011
:020000040000fa
:0401cc00200200000d
:020000040000fa
:0401d0002002000009
:020000040000fa
:0401d4002002000005
:020000040000fa
:0401d8002002000001
:020000040000fa
:100200006f8e20000eff20000e018800000000000d
:10021000000020000000e000020032000001200089
:100220002002880014000700300107000000e000f1
:1002300003003a0060812000010020000200370026
:100240000000200001002000810f7000010032003a
:1002500014000700000020000000e000020032004f
:100260000000020000000000b008020000000000d2
:100270000040da000000fe004440a90020052000f4
:100280000000e0000300320000002000a001880010
:100290004440a800000006008a1f78008b1f7800e9
:1002a0000000060091018800800478000000eb0047
:1002b0001a003700e284440032a0b4009905ba0065
:1002c000e284440032a0b4009906ba00e2844400fb
:1002d00032a0b4000006eb00476fde00fd07b2005d
:1002e000636ce10003003a00ebff07000000eb0045
:1002f0000a003700606ce10004003a00005deb008a
:100300008b05e900fdff3e00040037006168e10055
:10031000010032000086eb000b00070019c7ba008d
:100320001905ba000e04e00003003a000a00e000dc
:10033000e0ff3a0000000600fe07b2009e018800c0
:100340008a047800f5ff3700395dba008b05e900b3
:100350000c003200295dba008b05e900080032006c
:100360000c00e00003003a00e284440032a0b40034
:10037000f5ff370019ddba008b05e900faff3a00f6
:100380008904e800e184440032a0b40000000600c3
:10039000000000000000000000000000000000005d
:1003a0003400f800881f780008002000a8018800a9
:1003b0004f0478000000fa008540a9000080fa0090
:1003c0003400f900004006003600f800809fbe00af
:1003d000829fbe00849fbe00869fbe00881f78005b
:1003e0003400f80000002000a00188000000fa009e
:1003f0008520a9000600370088428000b20007006f
:1004000000407800004c78000800e8008042880036
:10041000a60007000004e000f7ff3a000080fa00a1
:100420003400f9004f0478004f03be004f02be00b5
:100430004f01be004f00be003600f900004006002c
:100440000040da000000fe000a00fa00110020005f
:10045000b1bf9f00c0bf9f006a805700be02070067
:100460004fb897000080fa00000006000a00fa006a
:10047000e20f500034003e0010478000e10f5000b2
:1004800003003200e20f500011003a000c00370068
:10049000c32020000300e00001003a000040da0021
:1004a0000c02e200020035001422ef000de2a80069
:1004b0000f42ab000d003a000f42a8000b003700be
:1004c000632120000300e00001003a000040da0050
:1004d0001602e200020035001e22ef0017e2a8001b
:1004e0001942ab0001003a001942a80082017800cd
:1004f0000b0037003102fb00e10f500004003a000e
:100500000f22ab00feff3a00841088000300370082
:100510001922ab00feff3a00d41088008301e900e5
:100520000300e000f3ff3a00e10f500003003a003f
:100530000f02ab00feff32000b0037001902ab00c8
:10054000feff32000800370033002000b3bf9f00d9
:10055000c0bf9f00d1bf9f00e2bf9f006a805700cd
:100560007f0207006fb99700020078000080fa0050
:10057000000006000a00fa0051002000b1bf9f00f1
:10058000c0bf9f006a805700770207005fb89700de
:100590000080fa0000000600889fbe0080047800fa
:1005a000204780000000e00004003a000e00070031
:1005b0000084eb000000e0000800350028478000c0
:1005c0000900e000050032000900440006000700b1
:1005d0000000e00001003d000084eb00080078000e
:1005e0004f04be0000000600800078000100e0001b
:1005f00003003a00000020002047880000000500aa
:100600000080eb0002002000828f500002003e00bc
:10061000214788000000eb00000006008520a900ab
:10062000e70060008540a900c408dd0000017800f3
:10063000f3f82f000207b200c40480008481610037
:100640004411dd0083817000e8006000c30488006d
:10065000c308de00f38f2f00e1806000c404800037
:1006600084816100c908dd00830171000008b200c7
:10067000c3048800f2df2f004700de00630480001f
:100680000301610061006000028170004a00dd002a
:1006900062048800f1bf2f00640480008480600041
:1006a0008100700061048800000006007010800066
:1006b0006140600000000600a21088006010880001
:1006c0007110880000000600601080006600600065
:1006d000e60f500002003a00901080000000060073
:1006e00090108000f00fb20000000600000005002e
:1006f000a18720006a000700800078000080eb00de
:100700000100e00004003500a1872000a0002000c7
:10071000020007004f80de0000000600889fbe0038
:100720008a1f78000004be00c90090006900900094
:10073000808f50000500390009007800b7000700dd
:100740008080eb000000e0001600350008457800ce
:100750004900900008587800c004980019007800fb
:1007600000b8a30004003a0000a8a300070032006c
:10077000ea4f540005003a00090078000d00070018
:100780008080eb000000e00006003a0000c020007e
:10079000190060000200320049009000e004980057
:1007a0008a80fb00010078004f0578004f04be00ee
:1007b00000000600889fbe008a1f780000047800b1
:1007c0000800e0000d003a00888c2000700544000d
:1007d0008004eb00580078000000e00004003200c4
:1007e000f4ff07000000e00001003d008084eb0002
:1007f0008a0f5400f7ff3a0025003700000022005e
:10080000180060008004eb0021003200a804900072
:100810000f00370009015100384090000000fb0034
:100820008900780011ff07000000e00007003c008d
:10083000280090004004980060049800500c980034
:100840001890a0008084eb001100370080844400e1
:1008500048019000828f5400eeff3900280090007c
:10086000400498009800780002c0200002816000d7
:1008700001003a003800900001e8a30002003200b5
:100880006004980001003700500c98008004eb00d1
:10089000090078004f0578004f04be0000000600f4
:1008a000889fbe008a9fbe00800478000104780003
:1008b0002c003700c800900068009000808f500026
:1008c0000400390008007800540007000000e00030
:1008d0003700350000402000180060000900320099
:1008e000a100200009007800420007008005780080
:1008f0000b00e00003003200618514000a8545000a
:100900000400370009007800340007000005780073
:100910008005eb0048009000e800900080805000c7
:100920008a8f500002003100010578008005eb003d
:100930000a01780089007800210007004800900033
:100940000a004000400498000b00e0000400320060
:100950000800780097ff07000000e00014003a004c
:100960008a8444001904e000d2ff3a00008020008d
:100970001800600006003200080078008dff0700b4
:10098000800078000080eb000100e00009003a00e0
:1009900001c02000988060000000eb0005003200dc
:1009a00048009000600498000000eb000100370050
:1009b0000080eb004f05be004f04be0000000600a3
:1009c0008001780002003700b15978000201e90087
:1009d0000200e000fcff3a00000006008000780002
:1009e000010178003104e000fdff3a0000005100f1
:1009f000000006000001eb0000027800b041780022
:100a000081cf510001003a00040178000304e000a6
:100a1000f9ff3a000200780000000600889fbe003f
:100a20008a1f780000047800c800900068019000d8
:100a30000000eb00828f50003c0039001800780065
:100a40002200290002016000e20f5100070032007d
:100a5000012024000000e00001003d0001202000f2
:100a6000008c70000080eb00300037000200260090
:100a700002006000820f500009003a003800900028
:100a8000808f5000060039000800780049ff0700f9
:100a9000800078000080eb000100e00023003a00b5
:100aa0001805780000c020000000650018003a001a
:100ab000a80490006002200008004000808f5400cd
:100ac00013003a0000202000ef00070020049800e7
:100ad0000000e00005003a0029049800490498004d
:100ae0008904e80039049800080037000a60a00073
:100af0000a0c78004004980001202000808040000b
:100b000031049800400c9800500c98000c0007002d
:100b1000280090005004980038009000600498006d
:100b200000002600180c70000000eb004f05780054
:100b30004f04be0000000600206420006100370062
:100b4000881f7800e88d20001804e00003003a00b8
:100b5000f9ff070020c0b300004c78004f04780074
:100b600000000600889fbe0000047800080078009e
:100b700010ff0700800478000004200018006000c7
:100b800002003200280090005a0007000000eb002d
:100b900020049800384090000004e0000500350073
:100ba0000000fb0028fe07000000e000010032000a
:100bb0008084eb00181090000000e0000800320074
:100bc0006cfe07000000e000010032008084eb00b2
:100bd00018109000470007000000eb001014980068
:100be0000008200018006000150032000001eb0032
:100bf0006000b800a38c20000202d00063027a00db
:100c0000880f520005003a00000040008180480033
:100c1000008041000008eb00060037006100400042
:100c2000e08048000201e800e80f5000e08f580023
:100c3000f0ff3a00080078002e0007000e00370091
:100c4000000c780000c0eb003044980060022000e7
:100c500008004000200498004004980050049800c8
:100c6000400c980060049800500c980070049800a4
:100c700076004400000c9800090078004f04be0084
:100c800000000600881f78000004eb006140b800f7
:100c9000e2ff2f00f3ff2f00b5000700828d200038
:100ca000620078000000e00001003200adff0700a4
:100cb0000804e800e80f5400f4ff3a004f047800fd
:100cc00000000600010020000100e00008003200e2
:100cd000010080000100e000050032008100e90011
:100ce000010088008100d0000200800000b178007f
:100cf000000006000000e0002f003200c001780074
:100d0000e38f51002c0036000308a3002a003a00ac
:100d1000e14680000100e00002003200810f500037
:100d20000400310011009800e046880016003700ea
:100d300082007800110190000200e0000200320001
:100d4000800f5100faff39001102780084824000c0
:100d5000850f500018003900808f520003003a00c0
:100d60008308420001007800070037000200e0001d
:100d70000300320083014000830f51000e00390050
:100d80001200980090009800900090000100e00090
:100d90000900320010014000828f500006003a0026
:100da000a28d20000009eb0010017800110841001d
:100db000910090001100980000000600889fbe007e
:100dc00000047800d14680000100e00002003200fb
:100dd000010078000d003700e1468000c08d200042
:100de00004003700910f5400250036000180e80010
:100df000910090000100e000faff3a001000370077
:100e0000920f54001e0036000280e80010017800a6
:100e10000200e000faff3a0011017800e14680008c
:100e2000c08d200004003700910f540014003600dc
:100e30000180e80091009000828f5000faff3a0094
:100e400009478000888f5400010031008804780031
:100e500009007800360007000000e00004003a00b6
:100e6000888f5400050032008904d100f5ff370057
:100e7000091878009fff0700d2ff37000000eb0041
:100e80004f04be0000000600881f78006304400085
:100e90000800a1008000eb00800f54002100360004
:100ea000e30f540001003e004800200008007800d5
:100eb000c2ff07008000eb000000e00019003200d4
:100ec000900078009101780064815100880f5100f2
:100ed000030031001101900002087800070037007c
:100ee00008814000020878009101900013019800e9
:100ef00010017800110914008808780010017800aa
:100f00000000eb000200e0000400320092019000bb
:100f10000300e000010032000280e800d0468800b3
:100f20008180e800010078004f047800000006008e
:100f3000800078000000eb000100e00005003400b4
:100f40000100780094fd0700e10f400001003a0025
:100f50000000eb000000060000c0da000000060000
:100f600000c0da000000060000c0da000000060041
:100f7000020ab900001bb9000200b800810042005b
:080f800081004300000006009f
:020000040000fa
:100f8800424c00004443000020530000454e00003e
:100f9800534f0000524c00004553000053200000fe
:100fa800434f00004e540000524f00004c450000d3
:100fb800520d0000006e0000676f000064690000b9
:100fc8006e6800006475000079300000313100005f
:100fd800406700006d610000696c00002e6300002e
:100fe8006f6d00000d0000005541000052540000d4
:100ff800204900004e490000542000004f4b0000db
:101008000d0000004d430000505700004d20000027
:10101800494e000049540000204f00004b0d0000cd
:0410280000000000c4
:020000040000fa
:10102c000008000050000000000000005008000004
:10103c00020000000200000000080000520800003e
:10104c008800000002000000010000000078080089
:10105c007908780008780800780878000868080093
:10106c000000000000000000000000000000000074
:10107c00000000000000000000000000000208005a
:10108c000101a00008a10800a008a00008a0080009
:10109c00a008900008000000000000000000000004
:1010ac000000000000000000000000000000000034
:1010bc000000020008020200c808c90008c80800a5
:1010cc00c808c80008c80800b808000000000000e4
:1010dc000000000000000000000000000000000004
:1010ec00000000000000000052087a0008a208006e
:1010fc0000000000000000000000000000000000e4
:10110c00de0800000200000000000000e008000003
:10111c00020000000200000004000000da080000d9
:10112c000400000000000000e208000002000000c3
:10113c000200000001000000e408000002000000b2
:08114c0000000000000000009b
:020000040000fa
:101154000000fa000080fa00000006000000fa0017
:10116400dc22ef0000fc2f00c01688003a000700c4
:10117400e10f500006003a00407c28005bfd0700a8
:10118400f07d280059fd0700807f280057fd0700e7
:101194001f000700e10f500002003a0060802800a1
:1011a40052fd0700803e200001000700fdff3700cc
:1011b4000400fa0010079800080037000000eb0054
:1011c400000f7800010037001e0fe800703e200079
:1011d4009e007800808f5000fbff36001e009000b8
:1011e40000f0a7000000ea000000ea004f00de0063
:1011f400004078009e0090008100e90011079800eb
:101204000004e000edff3a000080fa000000060050
:101214000000fa00d421ef00205c2000200e88009a
:1012240070772000400e8800a0032000600e880024
:10123400d021ef00d621ef00d821ef00da21ef0012
:10124400c621ef0000002800000e880010002000d6
:101254000080fa00000006000400fa00e0f22f000b
:10126400edfc070000f62d00000f7800d0792f0068
:1012740010079800f20020009e0090001e007800e5
:101284000cfd0700100020000080fa00000006009a
:020000040000fa
:0200000401f009
:04000000f7bf000046
:020000040000fa
:0200000401f009
:04000400ff7f00007a
:020000040000fa
:0200000401f009
:04000800ffff0000f6
:020000040000fa
:0200000401f009
:04001400ffff0000ea
:020000040000fa
:0200000401f009
:04001800ffff0000e6
:00000001FF
