:020000040000fa
:080000000001040000000000f3
:020000040000fa
:04000800c80100002b
:020000040000fa
:04000c00c801000027
:020000040000fa
:04001000c801000023
:020000040000fa
:04001400c80100001f
:020000040000fa
:04001800c80100001b
:020000040000fa
:04001c00c801000017
:020000040000fa
:04002000c801000013
:020000040000fa
:04002400c80100000f
:020000040000fa
:04002800c80100000b
:020000040000fa
:04002c00c801000007
:020000040000fa
:04003000c801000003
:020000040000fa
:04003400c8010000ff
:020000040000fa
:04003800c8010000fb
:020000040000fa
:04003c00c8010000f7
:020000040000fa
:04004000c8010000f3
:020000040000fa
:04004400c8010000ef
:020000040000fa
:04004800c8010000eb
:020000040000fa
:04004c00c8010000e7
:020000040000fa
:04005000c8010000e3
:020000040000fa
:04005400c8010000df
:020000040000fa
:04005800c8010000db
:020000040000fa
:04005c00c8010000d7
:020000040000fa
:04006000c8010000d3
:020000040000fa
:04006400c8010000cf
:020000040000fa
:04006800c8010000cb
:020000040000fa
:04006c00c8010000c7
:020000040000fa
:04007000c8010000c3
:020000040000fa
:04007400c8010000bf
:020000040000fa
:04007800c8010000bb
:020000040000fa
:04007c00c8010000b7
:020000040000fa
:04008000c8010000b3
:020000040000fa
:04008400c8010000af
:020000040000fa
:04008800c8010000ab
:020000040000fa
:04008c00c8010000a7
:020000040000fa
:04009000c8010000a3
:020000040000fa
:04009400c80100009f
:020000040000fa
:04009800c80100009b
:020000040000fa
:04009c00c801000097
:020000040000fa
:0400a000c801000093
:020000040000fa
:0400a400c80100008f
:020000040000fa
:0400a800c80100008b
:020000040000fa
:0400ac00c801000087
:020000040000fa
:0400b000c801000083
:020000040000fa
:0400b400c80100007f
:020000040000fa
:0400b800c80100007b
:020000040000fa
:0400bc00c801000077
:020000040000fa
:0400c000c801000073
:020000040000fa
:0400c400c80100006f
:020000040000fa
:0400c800c80100006b
:020000040000fa
:0400cc00c801000067
:020000040000fa
:0400d000c801000063
:020000040000fa
:0400d400c80100005f
:020000040000fa
:0400d800c80100005b
:020000040000fa
:04010800c80100002a
:020000040000fa
:04010c00c801000026
:020000040000fa
:04011000c801000022
:020000040000fa
:04011400c80100001e
:020000040000fa
:04011800c80100001a
:020000040000fa
:04011c00c801000016
:020000040000fa
:04012000c801000012
:020000040000fa
:04012400c80100000e
:020000040000fa
:04012800c80100000a
:020000040000fa
:04012c00c801000006
:020000040000fa
:04013000c801000002
:020000040000fa
:04013400c8010000fe
:020000040000fa
:04013800c8010000fa
:020000040000fa
:04013c00c8010000f6
:020000040000fa
:04014000c8010000f2
:020000040000fa
:04014400c8010000ee
:020000040000fa
:04014800c8010000ea
:020000040000fa
:04014c00c8010000e6
:020000040000fa
:04015000c8010000e2
:020000040000fa
:04015400c8010000de
:020000040000fa
:04015800c8010000da
:020000040000fa
:04015c00c8010000d6
:020000040000fa
:04016000c8010000d2
:020000040000fa
:04016400c8010000ce
:020000040000fa
:04016800c8010000ca
:020000040000fa
:04016c00c8010000c6
:020000040000fa
:04017000c8010000c2
:020000040000fa
:04017400c8010000be
:020000040000fa
:04017800c8010000ba
:020000040000fa
:04017c00c8010000b6
:020000040000fa
:04018000c8010000b2
:020000040000fa
:04018400c8010000ae
:020000040000fa
:04018800c8010000aa
:020000040000fa
:04018c00c8010000a6
:020000040000fa
:04019000c8010000a2
:020000040000fa
:04019400c80100009e
:020000040000fa
:04019800c80100009a
:020000040000fa
:04019c00c801000096
:020000040000fa
:0401a000c801000092
:020000040000fa
:0401a400c80100008e
:020000040000fa
:0401a800c80100008a
:020000040000fa
:0401ac00c801000086
:020000040000fa
:0401b000c801000082
:020000040000fa
:0401b400c80100007e
:020000040000fa
:0401b800c80100007a
:020000040000fa
:0401bc00c801000076
:020000040000fa
:0401c000c801000072
:020000040000fa
:0401c400c80100006e
:020000040000fa
:0401c800c80100006a
:020000040000fa
:0401cc00c801000066
:020000040000fa
:0401d000c801000062
:020000040000fa
:0401d400c80100005e
:020000040000fa
:0401d800c80100005a
:020000040000fa
:100200000f8020000eff20000e018800000000007b
:10021000000020000000e000020032000001200089
:100220002002880014000700310107000000e000f0
:1002300003003a0000002000010020000200370007
:100240000000200001002000810f7000010032003a
:1002500014000700000020000000e000020032004f
:1002600000000200000000007a030200000000000d
:100270000040da000000fe004440a9000000200019
:100280000000e0000300320000002000a001880010
:100290004440a800000006008a1f78008b1f7800e9
:1002a0000000060091018800800478000000eb0047
:1002b0001a003700e284440032a0b4009905ba0065
:1002c000e284440032a0b4009906ba00e2844400fb
:1002d00032a0b4000006eb00476fde00fd07b2005d
:1002e000636ce10003003a00ebff07000000eb0045
:1002f0000a003700606ce10004003a00005deb008a
:100300008b05e900fdff3e00040037006168e10055
:10031000010032000086eb000b00070019c7ba008d
:100320001905ba000e04e00003003a000a00e000dc
:10033000e0ff3a0000000600fe07b2009e018800c0
:100340008a047800f5ff3700395dba008b05e900b3
:100350000c003200295dba008b05e900080032006c
:100360000c00e00003003a00e284440032a0b40034
:10037000f5ff370019ddba008b05e900faff3a00f6
:100380008904e800e184440032a0b40000000600c3
:100390000040da000000fe000000fa000de2a900b3
:1003a0008d20a9008d40a9008520a9008540a900c5
:1003b0000080fa00000006000000fa0070108000c3
:1003c00000407800614060000080fa0000000600f4
:1003d0000600fa00000f7800110798002207980025
:1003e000ae009000a11088009e0078006110880087
:1003f0009e009000711088000080fa000000060046
:100400000000fa006010800066006000e60f5000f7
:1004100002003a0090108000030037009110800025
:10042000f00f2000008060000080fa00000006004d
:100430000000fa00711080000010200000806000b1
:1004400000f0a7000000ea000000e9004f00de0015
:10045000004078000080fa00000006000200fa0068
:10046000000f78008520a9008540a9001e007800b3
:1004700000407800674060006740600067406000af
:100480000080fb00670060004400dd00c2048000c3
:10049000f1f82f008100610001007000c0048800a5
:1004a000000720001e0060004400de0000407800cd
:1004b000674060000080fb00670060004800dd00ce
:1004c000c2048000f18f2f008100610001007000e4
:1004d000c00488009e007800688060004300de0051
:1004e00000407800614060000080fb006100600017
:1004f0004900dd00610480000190a100010070004e
:1005000060048800000820001e0060004700de0034
:1005100000407800614060000080fb0061006000e6
:100520004a00dd006104800001a0a100010070000c
:10053000600488000080fa00000006000a00fa004b
:100540002007980031079800420798000000eb0050
:10055000000f7800be0090001107980023003700bc
:100560009e0078004e009000808f50000200310005
:100570001e0fe800030037002e0090001f00370018
:10058000000000008cff07000004e000f4ff3200d0
:100590000000eb00000f7800601080006600600033
:1005a000e60f500007003a00911080003e009000d6
:1005b000010878003e0090000080e80030079800b5
:1005c0000700370090108000804078001e009000e7
:1005d000014878001e0090000000e8001007980015
:1005e0002e0090000000e900200798002e009000e7
:1005f0000000e000e2ff3a002e0090000080fa00c8
:10060000000006000400fa00100798009e00900009
:10061000010f78006010800066006000e60f500057
:100620001e003a000c00370000000000711080002e
:1006300000102000008060000000e000fbff32009e
:100640001e00900010007800801088001e009000ae
:100650000080e800100798001e009000100078004d
:100660000000e000f0ff3a00110037000000000039
:100670007110800000102000008060000000e00089
:10068000fbff32001e007800104078000000fb00e5
:10069000801088001e0fe8000100370000000000f5
:1006a0001e007800104078000004e000efff3a00e0
:1006b0000080fa00000006000200fa00000f780037
:1006c0006010800066006000e60f500003003a00f2
:1006d0009e0078008110880003003700f00f200092
:1006e0001e006000801088000080fa0000000600f4
:0406f0000000050001
:020000040000fa
:1006f4000000fa00dc22ef0000fc2f00c016880086
:10070400cda2a900cdc2a800ffff37000400fa0063
:1007140010079800080037000000eb00000f780075
:10072400010037001e0fe800703e20009e00780094
:10073400808f5000fbff36001e00900000f0a700e1
:100744000000ea000000ea004f00de0000407800ec
:100754009e0090008100e900110798000004e00069
:0c076400edff3a000080fa0000000600e3
:020000040000fa
:0200000401f009
:04000000f7bf000046
:020000040000fa
:0200000401f009
:04000400ff7f00007a
:020000040000fa
:0200000401f009
:04000800cfff000026
:020000040000fa
:0200000401f009
:04001400ffff0000ea
:020000040000fa
:0200000401f009
:04001800ffff0000e6
:00000001FF
