:020000040000fa
:080000000001040000000000f3
:020000040000fa
:040008009202000060
:020000040000fa
:04000c00920200005c
:020000040000fa
:040010009202000058
:020000040000fa
:040014009202000054
:020000040000fa
:040018009202000050
:020000040000fa
:04001c00920200004c
:020000040000fa
:040020009202000048
:020000040000fa
:040024009202000044
:020000040000fa
:040028009202000040
:020000040000fa
:04002c00920200003c
:020000040000fa
:040030009202000038
:020000040000fa
:040034009202000034
:020000040000fa
:040038009202000030
:020000040000fa
:04003c00920200002c
:020000040000fa
:040040009202000028
:020000040000fa
:040044009202000024
:020000040000fa
:040048009202000020
:020000040000fa
:04004c002c02000082
:020000040000fa
:04005000d0010000db
:020000040000fa
:040054009202000014
:020000040000fa
:040058009202000010
:020000040000fa
:04005c00920200000c
:020000040000fa
:040060009202000008
:020000040000fa
:040064009202000004
:020000040000fa
:040068009202000000
:020000040000fa
:04006c0092020000fc
:020000040000fa
:0400700092020000f8
:020000040000fa
:0400740092020000f4
:020000040000fa
:0400780092020000f0
:020000040000fa
:04007c0092020000ec
:020000040000fa
:0400800092020000e8
:020000040000fa
:0400840092020000e4
:020000040000fa
:0400880092020000e0
:020000040000fa
:04008c0092020000dc
:020000040000fa
:0400900092020000d8
:020000040000fa
:0400940092020000d4
:020000040000fa
:0400980092020000d0
:020000040000fa
:04009c0092020000cc
:020000040000fa
:0400a00092020000c8
:020000040000fa
:0400a40092020000c4
:020000040000fa
:0400a80092020000c0
:020000040000fa
:0400ac0092020000bc
:020000040000fa
:0400b00092020000b8
:020000040000fa
:0400b40092020000b4
:020000040000fa
:0400b80092020000b0
:020000040000fa
:0400bc0092020000ac
:020000040000fa
:0400c00092020000a8
:020000040000fa
:0400c40092020000a4
:020000040000fa
:0400c80092020000a0
:020000040000fa
:0400cc00920200009c
:020000040000fa
:0400d0009202000098
:020000040000fa
:0400d4009202000094
:020000040000fa
:0400d8009202000090
:020000040000fa
:04010800920200005f
:020000040000fa
:04010c00920200005b
:020000040000fa
:040110009202000057
:020000040000fa
:040114009202000053
:020000040000fa
:04011800920200004f
:020000040000fa
:04011c00920200004b
:020000040000fa
:040120009202000047
:020000040000fa
:040124009202000043
:020000040000fa
:04012800920200003f
:020000040000fa
:04012c00920200003b
:020000040000fa
:040130009202000037
:020000040000fa
:040134009202000033
:020000040000fa
:04013800920200002f
:020000040000fa
:04013c00920200002b
:020000040000fa
:040140009202000027
:020000040000fa
:040144009202000023
:020000040000fa
:04014800920200001f
:020000040000fa
:04014c002c02000081
:020000040000fa
:04015000d0010000da
:020000040000fa
:040154009202000013
:020000040000fa
:04015800920200000f
:020000040000fa
:04015c00920200000b
:020000040000fa
:040160009202000007
:020000040000fa
:040164009202000003
:020000040000fa
:0401680092020000ff
:020000040000fa
:04016c0092020000fb
:020000040000fa
:0401700092020000f7
:020000040000fa
:0401740092020000f3
:020000040000fa
:0401780092020000ef
:020000040000fa
:04017c0092020000eb
:020000040000fa
:0401800092020000e7
:020000040000fa
:0401840092020000e3
:020000040000fa
:0401880092020000df
:020000040000fa
:04018c0092020000db
:020000040000fa
:0401900092020000d7
:020000040000fa
:0401940092020000d3
:020000040000fa
:0401980092020000cf
:020000040000fa
:04019c0092020000cb
:020000040000fa
:0401a00092020000c7
:020000040000fa
:0401a40092020000c3
:020000040000fa
:0401a80092020000bf
:020000040000fa
:0401ac0092020000bb
:020000040000fa
:0401b00092020000b7
:020000040000fa
:0401b40092020000b3
:020000040000fa
:0401b80092020000af
:020000040000fa
:0401bc0092020000ab
:020000040000fa
:0401c00092020000a7
:020000040000fa
:0401c40092020000a3
:020000040000fa
:0401c800920200009f
:020000040000fa
:0401cc00920200009b
:020000040000fa
:0401d0009202000097
:020000040000fa
:0401d4009202000093
:020000040000fa
:0401d800920200008f
:020000040000fa
:100200000f8220000eff20000e0188000000000079
:10021000000020000000e000020032000001200089
:100220002002880014000700c00007000000e00062
:1002300003003a00a05a200001002000020037000d
:100240000000200001002000810f7000010032003a
:1002500014000700000020000000e000020032004f
:100260000000020000000000b205020000000000d3
:100270000040da000000fe004440a9000000200019
:100280000000e0000300320000002000a001880010
:100290004440a800000006008a1f78008b1f7800e9
:1002a0000000060091018800800478000000eb0047
:1002b0001a003700e284440032a0b4009905ba0065
:1002c000e284440032a0b4009906ba00e2844400fb
:1002d00032a0b4000006eb00476fde00fd07b2005d
:1002e000636ce10003003a00ebff07000000eb0045
:1002f0000a003700606ce10004003a00005deb008a
:100300008b05e900fdff3e00040037006168e10055
:10031000010032000086eb000b00070019c7ba008d
:100320001905ba000e04e00003003a000a00e000dc
:10033000e0ff3a0000000600fe07b2009e018800c0
:100340008a047800f5ff3700395dba008b05e900b3
:100350000c003200295dba008b05e900080032006c
:100360000c00e00003003a00e284440032a0b40034
:10037000f5ff370019ddba008b05e900faff3a00f6
:100380008904e800e184440032a0b40000000600c3
:10039000000000000000000000000000000000005d
:1003a0003600f800809fbe00829fbe00849fbe0082
:1003b000869fbe000000fa00e040800000000100bf
:1003c0003140800020408000808f500002003a00c1
:1003d0008d40a900190037008540a90010003700a2
:1003e00030408000904078008180fb0081108800c0
:1003f0000000e8003040880031408000208120006b
:10040000808f500002003a00908020003040880029
:100410003140800020408000808f50000600320074
:100420007110800000202000008060000000e000cb
:10043000ebff320001003700000000000080fa00ee
:100440004f03be004f02be004f01be004f00be0072
:100450003600f900004006003600f800809fbe001c
:10046000829fbe00849fbe00869fbe000000fa00ef
:10047000f0408000000001008520a9001e00370028
:100480000040800091108000814078000148780091
:1004900001408000a0812000808f500009003200c0
:1004a000004080008000e80010408000808f5000f5
:1004b00004003200004080000000e8000040880096
:1004c0000d00370001408000a0812000808f500087
:1004d00007003a001140800020812000808f5000ea
:1004e0000300320020812000004088000200370015
:1004f00010c0b30008e8b700701080006100600011
:100500000000e000deff3a000080fa004f03be006a
:100510004f02be004f01be004f00be003600f90082
:10052000004006000040da000000fe000000050068
:020000040000fa
:100530000000fa008d40a9008d20a90000f62d00d2
:1005400060108800d0792f007010880070002000a3
:10055000a01088009080200030408800908020000b
:100560002040880020812000104088002081200049
:10057000004088000868ef00602e20000700070098
:1005800040302000140007008d20a8000de2a800d4
:100590000f42a8000080fa00000006000200fa00e6
:1005a000000f78001e0078000000e00003003a0011
:1005b000602e2000e0408800020037001e00780016
:1005c000e04088000080fa00000006000000fa0009
:1005d0000080fa00000006000200fa00000f780018
:1005e0001e0078000000e00003003a0040302000c8
:1005f000f0408800020037001e007800f0408800bc
:100600000080fa00000006000000fa000080fa00f6
:10061000000006000200fa000040eb00004f7800e6
:10062000000000001140800000408000808f5000da
:10063000fcff320010408000104f78001040800016
:100640000000e8001040880011408000b0812000c8
:10065000808f500002003a00208120001040880066
:100660001e4078000080fa00000006000200fa0038
:10067000004f7800000000001c0007000004a200ea
:100680000004e000fcff3a00204080001e48780093
:10069000204080000000e8002040880021408000c9
:1006a00020812000808f500002003a0090802000be
:1006b000204088008d40a8000080fa00000006005d
:1006c0000000fa00114080000040800000806800b7
:1006d00000f0a7000000ea000000ea004f00de0082
:1006e000004078000080fa00000006000400fa00d4
:1006f0003140800011079800214080001e009000ca
:10070000808f5000060031009e0090002040800045
:10071000008050000000e900000f7800050037005d
:100720009e00900020408000008050006800400043
:10073000000f78001e00780000f0a7000000ea001b
:100740000000ea004f00de00004078000080fa0060
:10075000000006000000fa002140800030408000c8
:10076000808f500009003a007110800000102000b6
:100770000080600000f0a7000000ea000000ea002e
:100780004f00de0000407800010037000040eb0021
:100790000080fa00000006000400fa00014080001a
:1007a00011079800104080009e009000808f50003c
:1007b000060031009e009000104080000080500034
:1007c00069004000000f7800040037009e00900090
:1007d0001040800000805000000f7800f00f2000d3
:1007e0009e007800808f50000200360000c0eb00b1
:1007f000020037001e007800004078000080fa00f8
:10080000000006000400fa00314080001107980043
:10081000214080001e009000808f500006003100b3
:100820009e00900020408000008050000000e90001
:10083000000f7800050037009e00900020408000e7
:100840000080500068004000000f7800f00f20008a
:100850009e007800808f50000200360000c0eb0040
:10086000020037001e007800004078000080fa0087
:10087000000006000800fa002007980031079800e1
:10088000c5ff07000080fb00000f78003e009000cd
:100890009e0f500002003100be009000010f780052
:1008a0000000eb00100798000900370059ff07000f
:1008b000ae009000804878002e0090000000e80014
:1008c000200798001e0090000000e8001007980024
:1008d0001e0090009e0f5000f4ff39001e007800ab
:1008e0000080fa00000006000800fa0020079800c7
:1008f00031079800c3ff07000080fb00000f78005d
:100900003e0090009e0f500002003100be0090009b
:10091000010f78000000eb00100798000900370075
:100920002e00900010407800ae0090008100e8009a
:10093000210798004dff07001e0090000000e8000e
:10094000100798001e0090009e0f5000f4ff390021
:100950001e0078000080fa00000006000400fa0083
:100960000000eb00000f78008bff07002047980085
:10097000a4ff0700304798002e4090000080fb0045
:100980000000e00003003200e90f500003003200d5
:10099000040037001e20a000040037001e00a00045
:1009a000020037001e10a000000000003e40900032
:1009b0000080fb000000e00003003200e90f50005f
:1009c00003003200040037001e30a0000200370090
:1009d0001e40a000000000001e0078000080fa0009
:1009e000000006000400fa00100798001140800083
:1009f0001e009000008f4000020037009e0078002b
:100a0000698f5000b08120009e007800808f5000d8
:100a1000faff3e001e007800104078000080fa00c7
:100a2000000006000000fa005bff07000080fb00ea
:100a30000000e9004f00de00004078000080fa006e
:100a4000000006000000fa006eff07000080fb00b7
:100a50000000e9004f00de00004078000080fa004e
:100a6000000006000000fa00701080000080fa000c
:100a7000000006000000fa0062ff07000004e0002a
:100a8000100032003140800020408000808f5000f4
:100a90000600360030408000800078002040800052
:100aa000008050000000e90007003700304080005f
:100ab00080007800204080000080500068004000e6
:100ac000010037000000eb000080fa000000060083
:100ad0000000fa0030ff07000004e00010003200c0
:100ae0001140800000408000808f500006003600da
:100af000104080008000780000408000008050009e
:100b00000000e900070037001040800080007800f6
:100b10000040800000805000680040000100370065
:100b20000000eb000080fa00000006000000fa0060
:100b30000de2a8000f42a8000080fa0000000600a5
:100b40000000fa000de2a9000f42a9000080fa009f
:040b5000000006009b
:020000040000fa
:100b54000008000020000000000000000000000069
:020000040000fa
:0c0b64000000fa0071fe0700ffff3700e0
:020000040000fa
:0200000401f009
:04000000f7bf000046
:020000040000fa
:0200000401f009
:04000400ff7f00007a
:020000040000fa
:0200000401f009
:04000800ffff0000f6
:020000040000fa
:0200000401f009
:04001400ffff0000ea
:020000040000fa
:0200000401f009
:04001800ffff0000e6
:00000001FF
