:020000040000fa
:080000000001040000000000f3
:020000040000fa
:04000800c80100002b
:020000040000fa
:04000c00c801000027
:020000040000fa
:04001000d201000019
:020000040000fa
:04001400de01000009
:020000040000fa
:04001800ea010000f9
:020000040000fa
:04001c00c801000017
:020000040000fa
:04002000c801000013
:020000040000fa
:04002400c80100000f
:020000040000fa
:04002800c80100000b
:020000040000fa
:04002c00c801000007
:020000040000fa
:04003000c801000003
:020000040000fa
:040034003c03000089
:020000040000fa
:04003800c8010000fb
:020000040000fa
:04003c00c8010000f7
:020000040000fa
:040040005c0300005d
:020000040000fa
:04004400c8010000ef
:020000040000fa
:04004800c8010000eb
:020000040000fa
:04004c00c8010000e7
:020000040000fa
:04005000c8010000e3
:020000040000fa
:040054005402000052
:020000040000fa
:04005800c8010000db
:020000040000fa
:04005c00c8010000d7
:020000040000fa
:04006000c8010000d3
:020000040000fa
:04006400c8010000cf
:020000040000fa
:04006800c8010000cb
:020000040000fa
:04006c00c8010000c7
:020000040000fa
:04007000c8010000c3
:020000040000fa
:04007400c8010000bf
:020000040000fa
:04007800c8010000bb
:020000040000fa
:04007c00c8010000b7
:020000040000fa
:04008000c8010000b3
:020000040000fa
:04008400c8010000af
:020000040000fa
:04008800c8010000ab
:020000040000fa
:04008c00c8010000a7
:020000040000fa
:04009000c8010000a3
:020000040000fa
:04009400c80100009f
:020000040000fa
:04009800c80100009b
:020000040000fa
:04009c00c801000097
:020000040000fa
:0400a000c801000093
:020000040000fa
:0400a400c80100008f
:020000040000fa
:0400a800c80100008b
:020000040000fa
:0400ac00c801000087
:020000040000fa
:0400b000c801000083
:020000040000fa
:0400b400c80100007f
:020000040000fa
:0400b800c80100007b
:020000040000fa
:0400bc00c801000077
:020000040000fa
:0400c000c801000073
:020000040000fa
:0400c400f601000041
:020000040000fa
:0400c800c80100006b
:020000040000fa
:0400cc00c801000067
:020000040000fa
:0400d000c801000063
:020000040000fa
:0400d4000e02000018
:020000040000fa
:0400d800c80100005b
:020000040000fa
:04010800c80100002a
:020000040000fa
:04010c00c801000026
:020000040000fa
:04011000d201000018
:020000040000fa
:04011400de01000008
:020000040000fa
:04011800ea010000f8
:020000040000fa
:04011c00c801000016
:020000040000fa
:04012000c801000012
:020000040000fa
:04012400c80100000e
:020000040000fa
:04012800c80100000a
:020000040000fa
:04012c00c801000006
:020000040000fa
:04013000c801000002
:020000040000fa
:040134003c03000088
:020000040000fa
:04013800c8010000fa
:020000040000fa
:04013c00c8010000f6
:020000040000fa
:040140005c0300005c
:020000040000fa
:04014400c8010000ee
:020000040000fa
:04014800c8010000ea
:020000040000fa
:04014c00c8010000e6
:020000040000fa
:04015000c8010000e2
:020000040000fa
:040154005402000051
:020000040000fa
:04015800c8010000da
:020000040000fa
:04015c00c8010000d6
:020000040000fa
:04016000c8010000d2
:020000040000fa
:04016400c8010000ce
:020000040000fa
:04016800c8010000ca
:020000040000fa
:04016c00c8010000c6
:020000040000fa
:04017000c8010000c2
:020000040000fa
:04017400c8010000be
:020000040000fa
:04017800c8010000ba
:020000040000fa
:04017c00c8010000b6
:020000040000fa
:04018000c8010000b2
:020000040000fa
:04018400c8010000ae
:020000040000fa
:04018800c8010000aa
:020000040000fa
:04018c00c8010000a6
:020000040000fa
:04019000c8010000a2
:020000040000fa
:04019400c80100009e
:020000040000fa
:04019800c80100009a
:020000040000fa
:04019c00c801000096
:020000040000fa
:0401a000c801000092
:020000040000fa
:0401a400c80100008e
:020000040000fa
:0401a800c80100008a
:020000040000fa
:0401ac00c801000086
:020000040000fa
:0401b000c801000082
:020000040000fa
:0401b400c80100007e
:020000040000fa
:0401b800c80100007a
:020000040000fa
:0401bc00c801000076
:020000040000fa
:0401c000c801000072
:020000040000fa
:0401c400f601000040
:020000040000fa
:0401c800c80100006a
:020000040000fa
:0401cc00c801000066
:020000040000fa
:0401d000c801000062
:020000040000fa
:0401d4000e02000017
:020000040000fa
:0401d800c80100005a
:020000040000fa
:100200000f9920000eff20000e0188000000000062
:10021000000020000000e000020032000001200089
:100220002002880014000700c00107000000e00061
:1002300003003a0060f721000100200002003700af
:100240000000200001002000810f7000010032003a
:1002500014000700000020000000e000020032004f
:1002600000000200000000000e200200000000005c
:100270000040da000000fe004440a9006050200069
:100280000000e0000300320000002000a001880010
:100290004440a800000006008a1f78008b1f7800e9
:1002a0000000060091018800800478000000eb0047
:1002b0001a003700e284440032a0b4009905ba0065
:1002c000e284440032a0b4009906ba00e2844400fb
:1002d00032a0b4000006eb00476fde00fd07b2005d
:1002e000636ce10003003a00ebff07000000eb0045
:1002f0000a003700606ce10004003a00005deb008a
:100300008b05e900fdff3e00040037006168e10055
:10031000010032000086eb000b00070019c7ba008d
:100320001905ba000e04e00003003a000a00e000dc
:10033000e0ff3a0000000600fe07b2009e018800c0
:100340008a047800f5ff3700395dba008b05e900b3
:100350000c003200295dba008b05e900080032006c
:100360000c00e00003003a00e284440032a0b40034
:10037000f5ff370019ddba008b05e900faff3a00f6
:100380008904e800e184440032a0b40000000600c3
:10039000801f78000000fa0000702000400e8800e6
:1003a000ffff3700801f78000000fa000070200077
:1003b000400e88000060fe00feff3700801f7800be
:1003c0000000fa0000702000400e88000060fe006f
:1003d000feff3700801f78000000fa000070200048
:1003e000400e88000060fe00feff3700801f78008e
:1003f0000000fa00804380000000e800804388008d
:1004000072c8bf000040e80072e8b70088e0a900a9
:100410000080fa004f00780000400600809fbe0078
:10042000821f78000000fa0000c8bf00e24f5000b1
:1004300002003a008960a90017003700f1458000ea
:1004400010c0b300720c2000828f500001003600f3
:100450000040eb008100e800f14588000004e00066
:10046000020032008960a9000b00370000702000f4
:10047000400e880040c0b30000e8b70001c8bf00cc
:100480000004e00002003a0040c0b30001e8b700f9
:100490008960a900000000000080fa004f01780088
:1004a0004f00be00004006003600f800809fbe00ee
:1004b000829fbe00849fbe00869fbe000000fa009f
:1004c0008560a90041448000002020000080600079
:1004d0000000e0001a00320030158000e40f5000e8
:1004e00009003200e50f50000c003200e30f50000d
:1004f00010003a0000148000e04388004000200013
:10050000301588001000370000148000f043880088
:1005100050002000301588000b00370000148000c8
:1005200000448800300020003015880000000000e2
:100530000500370030002000301588000200370029
:1005400000148000c043880010148000a04388007d
:1005500020148000b043880030148000d04388000d
:1005600001c8bf000004e0000300320040c0b30037
:1005700000e8b70039003700b1438000a040800098
:10058000808f50000a00360000c8bf000004e00061
:100590000700320000702000400e880040c0b30009
:1005a00000e8b70020c0b30001e8b7002b00370017
:1005b000a1438000b0408000808f50000a003600c8
:1005c00000c8bf000004e0000700320000702000f7
:1005d000400e880040c0b30000e8b70030c0b30050
:1005e00001e8b7001d003700f20407004044800016
:1005f000680060000000e00002003200c04480009b
:1006000030158800414480000020200000806000f8
:100610000000e0000400320000c8bf000004e00059
:10062000010032000c060700414480000010200049
:10063000008060000000e00005003a0041448000b6
:1006400000042000008060000000e0000200320092
:100650005903070001003700000000000080fa0085
:100660004f03be004f02be004f01be004f00be0050
:100670003600f90000400600801f78000000fa00f4
:1006800000702000400e880040c0b30000e8b700b2
:1006900001c8bf000004e00002003a0060c0b300df
:1006a00001e8b7008c60a9008460a9000080fa000e
:1006b0004f00780000400600809fbe000000fa0056
:1006c0004144800000042000008060000000e00041
:1006d0001e0032008868a80040448000700060005e
:1006e0000000e00019003a00a368ef0080c0b300ea
:1006f000a2e8b70040448000640060000000e00011
:100700000900320002c8bf00e54f500002003a0065
:100710000268ef000d00370002c8bf000040e8008b
:1007200002e8b7000900370002c8bf000004e0007b
:1007300003003a0050c0b30002e8b70003003700de
:1007400002c8bf000040e90002e8b7005044800042
:10075000700060000000e000060032008a88a900f6
:1007600088c8a8008868a80080c0b300a2e8b700c5
:10077000a368ef0041448000000820000080600072
:100780000000e000040032008908a80088e8a90001
:1007900060c0b300a2e8b700a2c8bf000004e00038
:1007a00003003200a2c8bf000040e900a2e8b70081
:1007b0004144800000102000008060000000e00044
:1007c00003003a00a04a8000600888000621ef007c
:1007d00002c8bf000080fb00e20f5000180032008a
:1007e000e20f500005003c000000e0000a0032006b
:1007f000e10f50000d00320025003700e40f5000db
:1008000019003200e40f500012003500e50f5000cf
:100810001a0032001e003700f06f2000a00e880082
:1008200050002000c044880019003700f02f21003c
:10083000a00e880040002000c0448800140037004b
:10084000f08f2100a00e880030002000c0448800f6
:100850000f003700f09f2000a00e880050002000fd
:10086000c04488000a003700f01f2200a00e880054
:1008700040002000c044880005003700f04f2200ef
:10088000a00e880030002000c04488000000000056
:100890004144800000102000008060000000e00063
:1008a0001c003a00414480000004200000806000e9
:1008b0000000e00019003a0040448000640060003d
:1008c0000000e0000900320002c8bf00e54f500000
:1008d00002003a000268ef001000370002c8bf00b3
:1008e0000040e80002e8b7000c00370002c8bf0073
:1008f0000004e00003003a0050c0b30002e8b70073
:100900000600370002c8bf000040e90002e8b70057
:10091000020037008868a8008cc0a90084c0a90024
:100920000080fa004f00be000040060000000500f5
:10093000839f68000100e00002003d00600010009d
:10094000e08018000300e00002003d00600111009b
:10095000e0811900050007004f00e00002003b00a5
:1009600060001000e0801800000006006022b8005f
:10097000060220000000d0008180d2000482d20054
:100980008582d2000000a0000202520083825a0039
:10099000030031000202420083824a000000a100ed
:0c09a0000603e900f3ff3a000000060027
:020000040000fa
:1009ac00444900005245000043540000494f0000e8
:1009bc004e00000044440000004300004f4e000075
:1009cc00545200004f4c0000204d00004f440000da
:1009dc0045000000434d0000004c00006f63000018
:1009ec006b200000506f0000732e000031200000bf
:1009fc0020540000696d0000650000004c500000a0
:100a0c00310000004c6f0000636b000020500000b0
:100a1c006f7300002e32000020200000546900008b
:100a2c006d650000004c000050320000004c0000ce
:100a3c006f6300006b200000506f0000732e0000ed
:100a4c0031200000446500006d2e000020000000e5
:100a5c004c50000031440000004c00006f6300005b
:100a6c006b200000506f0000732e0000322000003d
:100a7c00446500006d2e0000200000004c5000006a
:100a8c003244000000520000616d00007020000034
:100a9c005374000061720000742000005370000059
:100aac006565000064000000525300005300000014
:100abc00526100006d700000204500006e64000063
:100acc0020530000706500006564000000520000b7
:100adc004553000000520000616d000070200000c2
:100aec005374000061720000742000004465000023
:100afc006d2e000020000000525300004400000046
:100b0c00526100006d700000204500006e64000012
:100b1c0020440000656d00002e20000000520000f3
:100b2c004544000000520000616d00007020000080
:100b3c004475000072610000746900006f6e000063
:100b4c002020000020000000524400000050000053
:100b5c0068610000736500002041000064760000ad
:100b6c002e200000456e0000616200006c650000e4
:100b7c00205300007064000000500000414500004c
:100b8c0053000000506800006173000065200000f5
:100b9c0041640000762e0000205300006c6f0000b2
:100bac00706500000050000041530000005300002d
:100bbc00746100006c6c000020540000696d000032
:100bcc00652000004c6900006d6900007400000095
:100bdc00535400004c0000004f760000657200007a
:100bec00205300007065000065640000204c00007c
:100bfc00696d000069740000004f0000534c000048
:100c0c00004f00007665000072200000566f000057
:100c1c006c740000732000004c6900006d690000ca
:100c2c00740000004f5600004c0000004f7600008e
:100c3c0065720000204300007572000072650000b0
:100c4c006e740000204c0000696d0000004f000025
:100c5c00434c0000004300007572000072650000f8
:100c6c006e740000205000002047000061690000f5
:100c7c006e20000020000000434b000050000000dc
:100c8c004375000072720000656e00007420000055
:100c9c004920000047610000696e00002020000020
:100cac00004300004b490000004300007572000037
:100cbc00726500006e7400002044000020470000a4
:100ccc00616900006e20000020000000434b000012
:100cdc0044000000537000006565000064200000b3
:100cec005020000047610000696e000020200000c9
:100cfc0020200000005300004b5000000053000067
:100d0c007065000065640000204900002047000069
:100d1c00616900006e20000020200000200000000f
:100d2c00534b000049000000566f00006c7400002b
:100d3c006167000065200000446500006d610000e3
:100d4c006e640000202000000056000044000000eb
:100d5c00566f00006c7400007320000050200000df
:100d6c0047610000696e0000202000002020000078
:100d7c00005600004b500000005600006f6c000045
:100d8c0074730000204900002047000061690000d6
:100d9c006e2000002020000020000000564b0000b8
:100dac00490000004e6f00002e2000004d6f000027
:100dbc00746f000072200000506f00006c65000022
:100dcc00732000000050000000430000757200000a
:100ddc00726500006e740000205300006361000017
:100dec006c650000205800002000000043530000f8
:100dfc00580000004375000072720000656e000020
:100e0c007420000053630000616c0000652000003a
:100e1c002f20000000430000534400000056000047
:100e2c006f6c0000747300002053000063610000bd
:100e3c006c650000205800002020000020000000fd
:100e4c005653000058000000566f00006c740000f0
:100e5c007320000053630000616c000065200000eb
:100e6c002f200000202000000056000053440000fa
:100e7c00005400006f6c000065720000616e000091
:100e8c00636500002043000068650000636b000090
:100e9c002000000054430000004100007574000065
:100eac006f200000526500002d610000637100008e
:100ebc0075690000726500002000000041520000be
:100ecc0041000000426c0000616e00006b69000084
:100edc006e670000204300006f7500006e74000008
:100eec002020000000420000430000005a65000072
:100efc00726f000020580000204c00006576000046
:100f0c00656c00002054000068640000005a00006a
:100f1c00584c00000041000063710000756900002e
:100f2c0072650000205400006872000065730000b8
:100f3c00686c000064000000415400000041000097
:100f4c00637100007569000072650000204c0000a0
:100f5c0065760000656c0000205400006400000001
:100f6c00414c0000005200006f74000061740000de
:100f7c00696f00006e200000546900006d65000070
:100f8c006f75000074000000525400000050000007
:100f9c006f740000202f0000206600006f720000ac
:100fac00204400007574000079200000200000002f
:100fbc005044000044000000506f000074200000fa
:100fcc002f200000666f00007220000043750000a7
:100fdc00727200006e740000005000004443000068
:100fec00005000006f7400002058000020660000c4
:100ffc006f720000205300007065000065640000f3
:10100c0020000000505800005300000053740000f2
:10101c0061720000746900006e67000020430000dc
:10102c006f6e0000747200006f6c000000530000c3
:10103c0043000000576900006e6400006d690000f9
:10104c006c6c0000696e00006720000044650000b5
:10105c006d2e00000057000044000000427200009a
:10106c00616b0000696e0000672000005261000097
:10107c006d70000020540000202000000042000091
:10108c0052540000004100006371000075690000bb
:10109c0072650000204d000065740000686f000050
:1010ac006420000020000000414d0000005a0000a8
:1010bc00657200006f580000204500006e61000052
:1010cc00626c00006520000053700000640000009a
:1010dc005a580000455300000000000000000000ba
:1010ec0001000000d6840000e08400000000000035
:1010fc0003000000e3840000f08400000000000006
:10110c00ff7f0000f3840000048500000000000055
:10111c00ff7f00000885000019850000000000001a
:10112c00640000001d8500002e85000000000000fa
:10113c0064000000338500004485000001000000bd
:10114c000f270000498500005a85000001000000af
:10115c000f2700005e8500006d8500000000000078
:10116c006400000071850000828500000000000012
:10117c0064000000868500009585000001000000d9
:10118c00ff7f000099850000aa8500000100000087
:10119c00ff7f0000ad850000c3850000010000004a
:1011ac00ff7f0000c8850000d98500000100000009
:1011bc00ff7f0000dd850000ee85000001000000cf
:1011cc00ff7f0000f2850000038600000100000094
:1011dc00ff7f000007860000188600000100000059
:1011ec00ff7f00001c8600002d8600000000000020
:1011fc00ff7f0000318600004286000000000000e6
:10120c00ff7f0000468600005786000000000000ab
:10121c00ff7f00005b8600006c8600000000000071
:10122c000f2700007086000081860000000000007f
:10123c000f27000085860000968600000000000045
:10124c00ff7f00009a860000ab86000000000000c3
:10125c00ff7f0000ae860000bf860000000000008b
:10126c00ff7f0000c3860000d4860000020000004f
:10127c0030000000d8860000e98600000100000064
:10128c00560e0000eb860000fc86000001000000fa
:10129c009619000000870000118700000100000073
:1012ac00560e000015870000268700000100000084
:1012bc00961900002a8700003b87000001000000ff
:1012cc00640000003f870000508700000000000011
:1012dc00010000005387000064870000000000003c
:1012ec00ff00000068870000798700000000000004
:1012fc00ff0000007c8700008d87000001000000cb
:10130c00ff03000091870000a2870000000000008e
:10131c00ff000000a5870000b68700000000000059
:10132c00ff7f0000b9870000ca87000001000000a1
:10133c0064000000cd870000de8700000100000083
:10134c0064000000e2870000f38700000100000049
:10135c0040000000f7870000088800000000000033
:10136c00010000000c8800001d8800000000000037
:10137c00640000002088000031880000010000009b
:10138c00ff7f00003488000045880000000000004a
:10139c0001000000498800005a880000010000008c
:0c13ac000f2700005d8800006e88000024
:020000040000fa
:1013b8000200fa0040448000680060000000e0007d
:1013c8001c0032008868a9007e29ef008069ef00c0
:1013d80088a8a9008888a9000048800000407800f3
:1013e80081e9b70040448000640060000000e0002c
:1013f8000800320002c8bf00614060000004e0003d
:1014080002003a008aa8a800660137008aa8a90045
:101418006401370002c8bf00614060000004e000ba
:1014280002003a008aa8a9005e0137008aa8a8002d
:101438005c01370081c9bf000004e00004003200ed
:1014480081c9bf000040e90081e9b70055013700b4
:1014580040448000700060000000e00050013a0045
:10146800a04380008000d100104c80000080400024
:101478000000d100104c880010488000804078009f
:1014880080c9bf0080cf500001003a0088a8a8009a
:101498005144800000022000008060000000e0004d
:1014a80017003200104880008040780080c9bf00d3
:1014b80080cf500007003600c1438000104c8000e8
:1014c800808f50000300360080c9bf000040e8004c
:1014d80080e9b70080c9bf000004e0001e003200a8
:1014e800c1438000104c8000808f50001a003e00dd
:1014f80080c9bf000040e90080e9b7001600370046
:10150800104880008040780080c9bf0080cf50001c
:1015180007003600c1438000104c8000808f5000c7
:101528000300310080c9bf000040e80080e9b7002f
:1015380080c9bf000004e00007003200c1438000fa
:10154800104c8000808f50000300390080c9bf0014
:101558000040e90080e9b700414480000002200013
:10156800008060000000e000090132005144800062
:1015780000022000008060000000e0000800320047
:10158800f14b8000104c8000808f500004003e001a
:10159800c1438000104c8000808f50000d00360041
:1015a8005144800000022000008060000000e0003c
:1015b800f7003a00f14b8000104c8000808f5000fb
:1015c800f3003900c1438000104c8000808f500028
:1015d800ef00390031098000010f78004044800095
:1015e800640060000000e0001d00320002c8bf0077
:1015f8000080fb00e50f500035003e001100200080
:101608000008dd0041022000810060000100e000c8
:101618000f003a00f20060000100e00007003a0005
:10162800690060000000e0002b0032006044800088
:101638001e001000e04a880028003700804480001f
:101648001e001000e04a8800000000002300370058
:10165800704480001e001000e04a88001f00370018
:1016680002c8bf000080fb00e50f50001b003e00d1
:10167800110020000008dd00410220008100600008
:101688000100e0000e003a00f20060000100e000f6
:1016980007003a00690060000000e0000f00320017
:1016a800704480001e001000e04a88000b003700dc
:1016b800604480001e001000e04a880007003700e0
:1016c800804480001e001000e04a880003003700b4
:1016d80000000000010037000000000002c8bf0041
:1016e8000004e00004003a00804480001e0010005e
:1016f800c04a88009c28ef00e04a80008000d100a2
:10170800f044800000805000004b8800004b8000af
:101718000000e00002003c0010002000004b8800a0
:10172800e14a8000400620000088b9008000780067
:10173800f04a800000017800110009008280d8007a
:10174800004588000145800050418000808f50008e
:1017580004003e000145800060418000808f5000f9
:1017680013003100a2c8bf000004e00010003a00d6
:1017780000702000400e88008cc0a9008908a900cc
:10178800f04780000000e000040032008928a8002b
:101798008868a8008a48a9008200370040c0b300c2
:1017a80000e8b70060c0b30001e8b7007d0037006b
:1017b80040448000640060000000e000090032003e
:1017c80002c8bf00e54f500002003a000268ef006f
:1017d8000d00370002c8bf000040e80002e8b7006b
:1017e8000900370002c8bf000004e00003003a0007
:1017f80050c0b30002e8b7000300370002c8bf00ba
:101808000040e90002e8b7004144800000042000dd
:10181800008060000000e0000c003a00004b8000ef
:10182800600888000621ef0084c0a9008cc0a800c9
:10183800e04a800000004000100888000021ef0006
:101848008460a9008c60a80012003700a3c8bf00fc
:101858000040e800a3e8b700a3c8bf00e14f50006c
:101868000c0036008cc0a90088c8a9008908a80007
:1018780030c0b30000e8b70060c0b300a2e8b7000a
:10188800004b8000600888000621ef0084c0a90092
:101898008cc0a80040448000640060000000e000a4
:1018a8001a00320002c8bf000080fb00e50f50009c
:1018b8002f003e00110020000008dd00410220003a
:1018c800810060000100e0000d003a00f2006000b5
:1018d8000100e00006003a00690060000000e00036
:1018e800250032009e0078006144880023003700fc
:1018f8001e01780082448800000000001f003700a5
:101908009e007800714488001c00370002c8bf00a0
:101918000080fb00e50f500018003e001100200079
:101928000008dd0041022000810060000100e000a5
:101938000c003a00f20060000100e00006003a00e6
:10194800690060000000e0000c0032001e01780011
:1019580072448800090037009e00780061448800be
:10196800060037001e017800824488000300370013
:10197800000000000100370000000000e04a80007d
:10198800f04a88008888a8008069ef0088a8a90024
:10199800c0438000f04b88000000000001003700c1
:1019a800000000000080fa00000006001800fa009d
:1019b800889fbe008a9fbe008c9fbe0000c8bf00e3
:1019c800e14f50000900320041448000002020000f
:1019d800008060000000e00004003a0050448000ed
:1019e800620060000000e000040032007829ef0087
:1019f8007a29ef008a68a8001001370000c8bf00e4
:101a0800e24f500007003a0080488000e10f500084
:101a180004003a007829ef007a29ef008a68a800c4
:101a28000601370000c8bf00e34f50000a003a0023
:101a380010468000e20f500003003200104680007c
:101a48000000e00004003a007829ef007a29ef004e
:101a58008a68a800f900370070418000800078008b
:101a6800b04a800080804000b04380000080500071
:101a7800300798008828a9003e0090006102b9004c
:101a8800004180006101b90002a8b9000003780094
:101a98000498b90000007800000343000220b80051
:101aa800010343008600780040079800510798001a
:101ab8004007980051079800e04b8000be00900056
:101ac800008050006102b900204180006101b90026
:101ad80002a8b900000378000498b9000000780053
:101ae800000343000220b800010343008600780089
:101af800008fbe00008fbe00504480006800600068
:101b08000000e000020032006000b800008fbe0054
:101b18004e009000de0090003e014000ae8148007b
:101b28000200be006007980071079800604a8000b4
:101b3800714a80006e019000fe019000800f5100f4
:101b4800818f5900170034008828a800604a800057
:101b5800714a8000e00f5000e08f580002003d00fd
:101b6800f01fb0000180b0004709dd00c901de00a8
:101b780083017100030f9800c989de00130f9800d4
:101b88000e0890009e08900080007800204e2000eb
:101b980000804000200798007829ef007a29ef009c
:101ba8001d003700804a8000914a80006e01900035
:101bb800fe019000800f5100818f590016003d00f2
:101bc8008828a800804a8000914a8000e00f5000d1
:101bd800e08f580002003d00f01fb0000180b00007
:101be800c709dd004901de0002817100220f98005b
:101bf8004989de00320f98002e089000be08900038
:101c080080007800204e20000080400020079800c7
:101c18007829ef007a29ef004044800062006000d4
:101c28000000e00072003a003e0090006101b90037
:101c380010418000cf80de00009ab90004027800cd
:101c4800028bb90086027800050242000010b80035
:101c58000102420084007800c24b8000d34b800010
:101c68000000410081804900c04b8800d14b8800aa
:101c7800c04b8000d14b80006e019000fe019000a7
:101c880002004000838048006007980071079800b0
:101c9800604a8000714a80006e019000fe01900049
:101ca800800f5100818f59001d0034008828a8003a
:101cb800604a8000714a8000e00f5000e08f5800b1
:101cc80002003d00f01fb0000180b000c709dd0030
:101cd8004906de000c867100c98ede000c00be00cd
:101ce80080007800204e20000080400020079800e7
:101cf800624a8000734a80004e009000de00900027
:101d080000005100818059003e015000ae8158000a
:101d18000200be00c04b8800d14b88003400370059
:101d2800804a8000914a80006e019000fe01900078
:101d3800800f5100818f59001d003d008828a800a0
:101d4800804a8000914a8000e00f5000e08f5800e0
:101d580002003d00f01fb0000180b000c709dd009f
:101d68004905de000a857100c98dde000a00be0043
:101d780080007800204e2000008040002007980056
:101d8800824a8000934a80004e009000de00900056
:101d980000005100818059003e015000ae8158007a
:101da8000200be00c04b8800d14b880010003700ed
:101db8006e009000fe009000e00f5000e08f580089
:101dc80002003d00f01fb0000180b000c709dd002f
:101dd8004904de0008847100c98cde000800be00da
:101de80080007800204e20000080400020079800e6
:101df8002e0090000000e00002003d000000eb0013
:101e0800200798002e009000419c20000080500080
:101e1800200798002e009000b00e88002e00900039
:101e2800c00e88002e009000d00e8800be009000e2
:101e3800e14b88008a68a900000000004f06be0038
:101e48004f05be004f04be000080fa0000000600e7
:101e58000600fa0040448000680060000000e000ce
:101e6800120032008868a9008948a9008968a90079
:101e78008988a9006a29ef006c29ef006e29ef0014
:101e88007069ef007169ef007269ef007429ef0063
:101e980050448000640060000000e000db013a006c
:101ea80040c0b30076e9b700d901370076c9bf0052
:101eb8000004e00009003a0001c8bf000004e00087
:101ec80006003a0040c0b30000e8b70010c0b300f5
:101ed80001e8b7008928a900cd013700e143800057
:101ee80010448000808f5000080031003048800086
:101ef8008040780070c9bf0080cf500003003600d2
:101f080070c9bf000040e80070e9b70030488000a1
:101f18008040780070c9bf0080cf500086003a002a
:101f2800514b800010448000808f5000820039009f
:101f3800e143800010448000808f50007e0039000b
:101f480031098000010f78004144800000402000e2
:101f5800008060000000e000090032008a48a80004
:101f680076c9bf000004e0000300320076c9bf0054
:101f78000040e90076e9b7008868a800a4013700a6
:101f88007069ef004144800000002100008060007b
:101f98000000e0003000320050c0b30002e8b70093
:101fa800f04f2200a00e8800a04b80001e001000f9
:101fb800100798001e0090004200de0020079800dd
:101fc8001e0090008000d1001e009000008040009c
:101fd800c04a88009c28ef00c14a8000204e20009b
:101fe800808f5000190036001e0090009e001000df
:101ff8002e00900000805000604488002e00900061
:102008001e001000704488001e0090009e00100002
:102018002e00900000804000804488001e00900040
:102028000000d100f04a88008928a90088e8a800a3
:1020380030c0b30000e8b70084c0a8008cc0a80076
:1020480070772000400e8800710137008868a8006a
:102058008a28a8006e0137004144800000802000d3
:10206800008060000000e0003000320020c0b300b3
:1020780002e8b700f08f2100a00e8800a04b800076
:102088001e001000100798001e0090004200de009d
:10209800200798001e0090008000d1001e009000cc
:1020a80000804000c04a88009c28ef00c14a800098
:1020b800204e2000808f5000190036001e0090002e
:1020c8009e0010002e0090000080500060448800a0
:1020d8001e0090009e0010002e009000008040001e
:1020e800704488002e0090001e0010008044880074
:1020f8001e0090000000d100f04a88008928a9003d
:1021080088e8a80030c0b30000e8b70084c0a80081
:102118008cc0a80070772000400e88003c01370072
:102128008868a8008a28a800390137009e0078002e
:10213800a14b88008948a800f14380002044800012
:10214800808f5000080031003048800080407800bf
:1021580071c9bf0080cf50000300360071c9bf00ad
:102168000040e80071e9b7003048800080407800fe
:1021780071c9bf0080cf500086003a00614b8000d3
:1021880020448000808f500082003900f143800095
:1021980020448000808f50007e0039003109800083
:1021a800010f78004144800000802000008060001a
:1021b8000000e000090032008a48a80076c9bf0084
:1021c8000004e0000300320076c9bf000040e900c7
:1021d80076e9b7008868a8000d0137007169ef003b
:1021e8004144800000402000008060000000e000c2
:1021f8003000320010c0b30002e8b700f02f210011
:10220800a00e8800a04b80001e0010001007980048
:102218001e0090004200de00200798001e0090007b
:102228008000d1001e00900000804000c04a880055
:102238009c28ef00c14a8000204e2000808f50006b
:10224800190036001e0090009e0010002e0090001d
:1022580000804000604488001e0090009e0010002e
:102268002e00900000805000704488002e009000de
:102278001e001000804488001e0090000000d1005d
:10228800f04a88008928a90088e8a80030c0b3006f
:1022980000e8b70084c0a8008cc0a80070772000b0
:1022a800400e8800da0037008868a8008a28a8004d
:1022b800d700370041448000000021000080600002
:1022c8000000e0003000320040c0b30002e8b70070
:1022d800f01f2200a00e8800a04b80001e001000f6
:1022e800100798001e0090004200de0020079800aa
:1022f8001e0090008000d1001e0090000080400069
:10230800c04a88009c28ef00c14a8000204e200067
:10231800808f5000190036002e0090001e0010001b
:10232800604488001e0090009e0010002e0090005f
:1023380000805000704488001e0090009e0010002d
:102348002e00900000804000804488001e0090000d
:102358000000d100f04a88008928a90088e8a80070
:1023680030c0b30000e8b70084c0a8008cc0a80043
:1023780070772000400e8800a50037008868a80004
:102388008a28a800a20037009e007800a14b880088
:102398008968a8000144800030448000808f500084
:1023a80008003100304880008040780072c9bf00c2
:1023b80080cf50000300360072c9bf000040e8001b
:1023c80072e9b700304880008040780072c9bf00c9
:1023d80080cf500085003a00714b80003044800067
:1023e800808f500081003900014480003044800013
:1023f800808f50007d00390031098000010f78007e
:102408004144800000002100008060000000e000de
:10241800090032008a48a80076c9bf000004e0001d
:102428000300320076c9bf000040e90076e9b70032
:102438008868a800760037007269ef004144800080
:1024480000802000008060000000e00030003200c2
:1024580030c0b30002e8b700f09f2000a00e88004b
:10246800a04b80001e001000100798001e0090006e
:102478004200de00200798001e0090008000d10076
:102488001e00900000804000c04a88009c28ef0091
:10249800c14a8000204e2000808f5000190036006d
:1024a8002e0090001e001000604488001e0090005e
:1024b8009e0010002e0090000080400070448800ac
:1024c8001e0090009e0010002e009000008050001a
:1024d800804488001e0090000000d100f04a880067
:1024e8008928a90088e8a80030c0b30000e8b70030
:1024f80084c0a8008cc0a80070772000400e880017
:10250800430037008868a8008a28a80040003700e0
:102518004144800000402000008060000000e0008e
:102528002f0032000268ef00f06f2000a00e880034
:10253800a04b80001e001000100798001e0090009d
:102548004200de00200798001e0090008000d100a5
:102558001e00900000804000c04a88009c28ef00c0
:10256800c14a8000204e2000808f5000190036009c
:102578001e0090009e0010002e0090000080400079
:10258800604488002e0090001e00100070448800ef
:102598001e0090009e0010002e0090000080500049
:1025a800804488001e0090000000d100f04a880096
:1025b8008928a90088e8a80030c0b30000e8b7005f
:1025c80084c0a8008cc0a80070772000400e880046
:1025d8000f0037008868a8008a28a8000c00370078
:1025e8009e007800a14b88008988a800e0438000fd
:1025f800504b8800f0438000604b88000044800006
:10260800704b880000000000010037000000000047
:102618000080fa00000006000400fa00218720006c
:1026280091407800f0c9b30080cf50007d0036009b
:102638007268ef007d050700a2c8bf000004e00033
:102648000300320070468000d04488001d00370027
:10265800904780006101b800c04a80008000eb000c
:10266800009ab90004027800028bb900860278004b
:10267800050242000010b800010242008400780000
:10268800008fbe001e01be00d011200001002000f6
:10269800800f5100818f590003003e000080eb003d
:1026a800d0448800070037001e00be000001be00ad
:1026b80000a32100e1112000aaf80700000078001b
:1026c800d044880000c8bf00e34f5000010032002a
:1026d8009c28ef0001c8bf000004e0001d003a007c
:1026e800e1468000d0448000808f50000b0031000c
:1026f8004144800000102000008060000000e000dd
:102708000600320000702000400e880040c0b30070
:1027180000e8b70050c0b30001e8b700d146800018
:10272800e0448000808f50000700310000702000d6
:10273800400e880040c0b30000e8b70070c0b30086
:1027480001e8b70003003700e04480000000e8001b
:10275800e0448800b1468000d0448000808f50005b
:102768000300360040012000f044880023003700b1
:10277800d1448000b0468000008050006101b8005c
:10278800c04680008000eb00009ab900040278007f
:10279800028bb90086027800050242000010b800da
:1027a8000102420084007800008fbe00008fbe0046
:1027b800c04a80008000eb001e0178000191b9003a
:1027c800020178009e019000009ab9008401780007
:1027d800030141009e0178000018b8000101410082
:1027e8008200780002f22b00230020004ef8070038
:1027f8000000780074004000f044880041448000e4
:1028080000102000008060000000e000010032009d
:102818000600070000c8bf00e24f500001003a0060
:10282800590107000080fa00000006001e00fa00a7
:10283800889fbe008a9fbe008c9fbe0000c8bf0054
:10284800e34f500003003a00a2c8bf000004e000b4
:10285800030032008c29ef008e29ef004501370074
:1028680010468000e10f500046003200e10f500092
:1028780034003900e20f500003003200e30f50002b
:102888001a003200470037008c29ef008e29ef002c
:10289800ca01a800c14580005048800000017800a6
:1028a800110009008280d80050079800de009000cf
:1028b800409c2000808f500002003600d621ef0097
:1028c800040037005e009000419c2000008050000a
:1028d800b00e8800b00e8000c00e8800b00e8000d8
:1028e800d00e8800ca01a900220137008c29ef0008
:1028f8008e29ef00c1458000604880008001780083
:10290800110009008380d80050079800de0090006d
:10291800a2408000b04a800000005100808f500023
:1029280005003900a1408000b04a800000805000b6
:10293800704188000f013700de0090007141880067
:102948000c013700624a8000734a80004518dd0098
:10295800cb10de00810070004510dd00008fbe0046
:10296800824a8000934a80004518dd00cb10de00c3
:10297800810070004510dd0020079800310798009d
:1029880008003700224a8000334a8000028fbe00c8
:10299800424a8000534a8000220798003307980073
:1029a8000000000071488000c04580000088b90020
:1029b80000007800d04a88008808a900d14a800021
:1029c800d044800000805000600798006e0090009e
:1029d8006102b900e04080006101b90002a8b900b5
:1029e800000378000498b900000078000003430051
:1029f8000220b800010343008600780070079800a1
:102a0800010f980070079800010f98007e00900051
:102a18008e089000be0f5000ae8f58001c00340086
:102a28008808a8001e00be00e00f5000e08f580084
:102a380004003d00f2ff23000300200000004100d5
:102a4800818049004209dd00ce01de00830171006a
:102a5800330f9800ce89de00430f98003e0890009f
:102a6800ce08900040079800104680000000e00063
:102a780004003a00ce009000204e20000080400064
:102a8800400798008c29ef008e29ef0023003700bb
:102a98007e0190008e0990002e009000be009000ec
:102aa800800f5100818f59001c003d008808a80044
:102ab8002e009000be009000e00f5000e08f5800fc
:102ac80004003d00f2ff2300030020000000410045
:102ad80081804900c209dd004e01de0002817100db
:102ae800520f98004e89de00620f98005e08900031
:102af800ee08900040079800104680000000e000b3
:102b080004003a00ce009000204e200000804000d3
:102b1800400798008c29ef008e29ef004044800080
:102b2800610060000000e0007a003a006e0090004a
:102b38006101b900f0408000cf80de00009ab90042
:102b480004027800028bb900860278000502420070
:102b58000010b8000102420084007800624c800036
:102b6800734c80000000410081804900604c88005f
:102b7800714c8800624c8000734c80007e0090008d
:102b88008e0890000200400083804800100f9800d3
:102b9800210f98001e089000ae089000be0f50004c
:102ba800ae8f58001e0034008808a8001e00be0022
:102bb800e00f5000e08f580004003d00f2ff2300b2
:102bc800030020000000410081804900c209dd00a7
:102bd8004e06de000c867100ce8ede000c00be00b4
:102be80040079800104680000000e00004003a000a
:102bf800ce009000204e2000008040004007980042
:102c08007e0090008e0890003e011000ae811800f2
:102c18000200be00604c8800714c88003d003700ff
:102c28001e099000ae0990002e009000be00900092
:102c3800800f5100818f590020003d008808a800ae
:102c48002e009000be009000e00f5000e08f58006a
:102c580004003d00f2ff23000300200000004100b3
:102c680081804900c209dd004e05de000a85710039
:102c7800ce8dde000a00be00400798001046800096
:102c88000000e00004003a00ce009000204e200032
:102c980000804000400798002e019000be0190007f
:102ca8007e0090008e08900000005100818059003d
:102cb800604c8800714c8800160037001e08900090
:102cc800ae089000e00f5000e08f580004003d006f
:102cd800f2ff23000300200000004100818049002a
:102ce8004209dd004e04de0008047100ce8cde00cf
:102cf8000800be0040079800104680000000e00071
:102d080004003a00ce009000204e200000804000d1
:102d180040079800104680000000e00012003a00ca
:102d28004e0090000000e00002003d000000eb00b3
:102d380040079800ca01a8004e009000419c20005e
:102d480000805000400798004e009000b00e8800a8
:102d58004e009000c00e88004e009000d00e8800f3
:102d6800ca01a90003003700ce0190007341880012
:102d7800000000004f06be004f05be004f04be0015
:102d88000080fa00000006001000fa00504480009d
:102d9800620060000000e0000b0032004200f80012
:102da80042e0a80042c0a80042a0a9008928a800c3
:102db8008868a8008a28a9004200f90040488000d5
:102dc800504c880013013700414480000020200047
:102dd800008060000000e00007003200504c8000d6
:102de8000000e00004003200504c80000000e900c0
:102df800504c8800070137008928a9004144800009
:102e080000002800008060000000e0008800320018
:102e180041458000404580000100b800008fbe0099
:102e2800824080001e02be00640798007507980063
:102e38006e029000fe0290001100090042aad8001c
:102e480020079800514080002e0090000100b80033
:102e5800008fbe00824080001e02be0064079800fa
:102e6800750798006e029000fe029000110009009c
:102e780042aad80020079800414080002e00900008
:102e88000080400080458800614580004045800002
:102e98000180b800008fbe00824080001e02be0084
:102ea80064079800750798006e029000fe02900073
:102eb8001100090042aad8007045880061408000ce
:102ec80070458000008040003007980080488000ee
:102ed8000000e0000d003200419c20003e00900000
:102ee8000080500030079800ca01a800be02900078
:102ef800b50e8800be009000c10e88003e0290000a
:102f0800d40e8800ca01a900020037003e009000d4
:102f180070418800804580006101b80090478000ba
:102f28008000eb00009ab90004027800028bb90017
:102f380086027800050242000010b8000102420033
:102f4800840078000001be0000e12500f1052000a2
:102f580084f6070040079800510798004e0190003a
:102f6800de019000f0ff2f0001002000800f5100cb
:102f7800818f5900030036000080eb00a04a8800ca
:102f8800020037004e009000a04a8800b048800038
:102f98000000e0000b003a00a14a80009040800049
:102fa800808f500007003e0041448000000420004c
:102fb800008060000000e00002003a008a88a80053
:102fc800a368ef00a14a800030458000808f500040
:102fd80017003e004200f80042e0a80042c0a800e6
:102fe80042a0a90089e8a90000702000400e8800ce
:102ff8008cc0a900b0488000e10f500006003a00dc
:103008008928a8008868a8008a48a90030c0b300a9
:1030180000e8b7000400370040c0b30000e8b7007c
:1030280010c0b30001e8b7004200f900790037008a
:103038004144800000002200008060000000e000a1
:1030480020003a0041448000000024000080600015
:103058000000e0001b003a00414480000000280006
:10306800008060000000e00016003a00a828ef0089
:1030780089a8a800804880000000e0000b0032000a
:10308800ca01a80020408000419c20000080500018
:10309800b00e8800b00e8000c00e8800b00e800010
:1030a800d00e8800ca01a900020037002040800025
:1030b80070418800f06f2000a00e88007077200013
:1030c800400e88002146800040458000808f5000d7
:1030d80021003e0041448000000022000080600082
:1030e8000000e0001c003200a828ef0089a8a90011
:1030f80089c8a800804880000000e0000b0032006a
:10310800ca01a80030408000419c20000080500087
:10311800b00e8800b00e8000c00e8800b00e80008f
:10312800d00e8800ca01a900020037003040800094
:103138007041880040448000640060000000e000a6
:1031480003003200f02f2100a00e88000200370093
:10315800f04f2200a00e88003146800040458000d4
:10316800808f500027003100414480000000240077
:10317800008060000000e0002200320089c8a90039
:1031880089e8a800a828ef00804880000000e00037
:103198000b003200ca01a80060408000419c20005a
:1031a80000805000b00e8800b00e8000c00e88006d
:1031b800b00e8000d00e8800ca01a90002003700b6
:1031c8006040800070418800b04880000000e00046
:1031d80006003a002145800090408000808f500012
:1031e80002003e008a88a800a368ef0030c0b30040
:1031f80002e8b70020458000a04a880084c0a800e3
:103208008cc0a800404580000000e80040458800c8
:10321800000000000080fa00000006000000fa002c
:1032280081438000f0632000808f50001a00360030
:10323800a1458000a0438000008040000000d1002c
:10324800a0458800c1458000d04380000080400030
:103258000000d100c045880091458000d04480001e
:10326800008040000000d10090458800b1458000f2
:10327800b0438000008040000000d100b0458800c5
:1032880000c8bf00e14f500001003a0004000700e9
:10329800e00107007028ef000080fa000000060037
:1032a8000400fa0000468000004078006140600099
:1032b8000080fb00610060004200dd0041448000a6
:1032c8000120a1000100700040448800b043800044
:1032d800b04a8800004780008000eb00e20c200024
:1032e8000289b900020178006002b90084017800ff
:1032f80003014100e30c20000300b8000101410074
:1033080082007800008fbe00008fbe00a0478000ba
:103318008000eb001e0190000091b90002017800c6
:103328009e017800019ab9008401780003014100e8
:103338009e0178000018b800010141008200780061
:10334800008fbe00008fbe00b04780006a00b90041
:10335800000078008000eb000001be001e00be00e7
:1033680080f5070080007800b04a800000804000a7
:10337800a0408800804880000000e000450032003e
:10338800404680008000eb00429c20000289b90082
:10339800020178006002b90084017800030141004d
:1033a800439c20000300b80001014100820078001e
:1033b80042062000030020006af50700000078009c
:1033c80020408800504680008000eb00429c20008e
:1033d8000289b900020178006002b900840178000e
:1033e80003014100439c20000300b8000101410093
:1033f80082007800420620000300200059f50700eb
:103408000000780030408800804680008000eb0093
:10341800429c20000289b900020178006002b900cc
:103428008401780003014100439c20000300b80098
:1034380001014100820078004206200003002000bc
:1034480048f507000000780060408800904680003a
:103458008000eb00429c20000289b900020178003c
:103468006002b9008401780003014100439c2000f8
:103478000300b800010141008200780042062000e4
:103488000300200037f5070000007800704088002e
:103498004d003700a1408000b04a800000805000f5
:1034a8008000eb00008fbe00404680008000eb00eb
:1034b8001e0178000191b900020178009e01900078
:1034c800009ab90084017800030141009e01780048
:1034d8000018b8000101410082007800420620006f
:1034e800030020001ff50700000078002040880036
:1034f800504680008000eb001e0178000191b90061
:10350800020178009e019000009ab90084017800b9
:10351800030141009e0178000018b8000101410034
:103528008200780042062000030020000df5070005
:103538000000780030408800804680008000eb0062
:103548001e0178000191b900020178009e019000e7
:10355800009ab90084017800030141009e017800b7
:103568000018b800010141008200780042062000de
:1035780003002000fbf4070000007800604088008a
:10358800904680008000eb001e0178000191b90090
:10359800020178009e019000009ab9008401780029
:1035a800030141009e0178000018b80001014100a4
:1035b800820078004206200003002000e9f407009a
:1035c80000007800704088007140800060408000f2
:1035d8000080500060458800604680006101b800a6
:1035e800904780008000eb00009ab9000402780040
:1035f800028bb90086027800050242000010b8006c
:1036080001024200840078004201200003002000eb
:10361800d4f40700008fbe001e01be00404b2c00f2
:1036280041002000cff407000001be00f0ff2f008a
:1036380001002000800f5100818f590015003600cd
:103648000080eb0020458800904780008000eb0058
:103658000081eb000289b900020178006002b9001c
:1036680084017800030141008081eb000300b80069
:1036780001014100820078000001be0000e1250040
:10368800f1052000b7f407000000780040408800ea
:10369800080037001e01be00404b2c0041002000ee
:1036a800b0f40700000078002045880060468000dc
:1036b80040408800704680006101b8009047800053
:1036c8008000eb00009ab90004027800028bb90070
:1036d80086027800050242000010b800010242008c
:1036e8008400780042012000030020009df40700b8
:1036f800008fbe001e01be00404b2c004100200080
:1037080098f407000001be00f0ff2f000100200020
:10371800800f5100818f5900030036000080eb00b4
:1037280030458800060037001e01be00404b2c00c3
:10373800410020008bf40700000078003045880025
:10374800714680006046800000805000504088002c
:10375800c04880006101b800904780008000eb00fd
:10376800009ab90004027800028bb900860278003a
:10377800050242000010b8000102420084007800ef
:10378800420120000300200076f40700008fbe00ed
:103798001e01be00404b2c004100200071f40700c0
:1037a8000001be00f0ff2f0001002000800f510033
:1037b800818f5900030036000080eb00904088009c
:1037c800060037001e01be00404b2c0041002000bf
:1037d80064f407000000780090408800a04680004c
:1037e8008040880010478000004188002047800002
:1037f8001041880030478000204188004047800001
:10380800e040880050478000f04088007047800002
:10381800304188008047800040418800a1408000f6
:10382800b04a8000008050008000eb00f2052000c4
:103838000289b900020178006002b90084017800a9
:1038480003014100f30520000300b8000101410015
:1038580082007800420620000300200032f40700ae
:10386800204a8800314a8800224a8000334a800072
:103878004e18dd00c210de00810070004e10dd0021
:10388800204a8800314a8800204a8000314a800056
:1038980060001000e0801800404a8800514a880003
:1038a800c04780008000eb00e20c20000289b900cc
:1038b800020178006002b900840178000301410028
:1038c800e30c20000300b8000101410082007800e9
:1038d800008fbe00008fbe00f04680008000eb0025
:1038e8001e0178000191b900020178009e01900044
:1038f800009ab90084017800030141009e01780014
:10390800001ab8000501410082027800d047800003
:103918008000eb006a09b900020178006003b90071
:103928008601780003014100a30020000300b800cd
:1039380001014100820078000001be000400be00c1
:1039480008f4070000007800b04088006047800055
:103958008000eb001e0178000191b9000201780097
:103968009e019000009ab90084017800030141008b
:103978009e017800001ab800050141008202780013
:10398800d04780008000eb006a09b9000201780086
:103998006003b9008601780003014100a3002000fc
:1039a8000300b80001014100820078000001be0058
:1039b8000400be00ebf3070000007800d040880048
:1039c800e04780004006b00050418800e047800092
:1039d8004106200000805000604188002148800096
:1039e800e0438000008040001044880021488000a7
:1039f800f043800000804000204488002148800077
:103a08000044800000804000304488000080fa00b4
:103a1800000006000000fa0040c9bf00e14f500056
:103a280002003a0010c0b30000e8b70040c9bf0068
:103a38000004e0000300320040c9bf000040e90074
:103a480040e9b70041c9bf000080fb006800600082
:103a58000000e00007003a0062c9bf000080fb00d8
:103a6800680060000000e000020032008409a8003d
:103a7800010037008409a90062c9bf0041e9b70005
:103a880000c8bf000080fb00e20f50002b0032008e
:103a9800e20f500005003c000000e0005800320032
:103aa800e10f5000060032005e003700e30f5000bf
:103ab8002f003200e40f50003a003200590037005e
:103ac800204c8000610060000000e0004e003200e1
:103ad8004200f80042e0a80042c0a80042a0a900a5
:103ae8008a28a8008a48a90089a8a90089c8a90025
:103af80089e8a9008908a9008928a90088c8a90017
:103b08000046800000407800614060000080fb00b3
:103b1800610060004200dd00414480000120a100f6
:103b280001007000404488004200f90020c0b30042
:103b380000e8b700be28ef003a003700204c8000ac
:103b4800610060000000e0003100320000702000d9
:103b5800400e88008908a9008928a9008c60a9005e
:103b68008cc0a90010c0b30000e8b7002d003700d2
:103b7800204c8000610060000000e0002600320058
:103b880000702000400e88008908a9008928a90033
:103b98008c60a9008cc0a90010c0b30000e8b70071
:103ba80020003700204c8000610060000000e00029
:103bb8001b0032000168ef004200f80042e0a80054
:103bc80042c0a80042a0a90089a8a90089c8a900e4
:103bd80089e8a9008908a90088c8a9008928a90036
:103be8008c60a9008cc0a9004200f900803e20002a
:103bf800c04a880010c0b30000e8b70009003700c9
:103c08000000000007003700000000000500370032
:103c1800000000000300370000000000010037002a
:103c2800000000000080fa00000006000200fa0010
:103c38007116800000002400008060000000e00091
:103c480003003a0080c0b300004f7800020037003c
:103c58000040eb00004f780086c9bf009e40780006
:103c680080cf50000600320086c9bf0087e9b70040
:103c78001e417800619820008248780014003700bf
:103c8800619820009140780087c9bf0080cf50001c
:103c98000600320086c9bf0087e9b7001e417800d8
:103ca8006198200082487800090037001e4178009a
:103cb800219620008248780086c9bf0087e9b700ae
:103cc8001e417800619820008248780000000000ba
:103cd8000080fa00000006000000fa00c822ef0089
:103ce800ce22ef00d422ef00da22ef00007020008d
:103cf800400e88000080eb00301688000000260087
:103d080060168800300020009016880000102000ff
:103d1800c01688000080fa00000006000400fa00bf
:103d280000002800000e8800204e2000200e880089
:103d3800204e2000300e880000702000400e8800c1
:103d4800ca21ef00cc21ef00f0f02f00800e880090
:103d5800f0ff2300a00e8800409c2000b00e8800d1
:103d6800409c2000c00e8800409c2000d00e880097
:103d7800400020003d000700000f78009e007800fa
:103d8800110798009e0090000070200000806000dd
:103d98004800de00100798001e009000e40f500055
:103da80007003200f00f2f001e0f60001ea0a000b9
:103db8001e007800800078004000200033000700d3
:103dc80088e0a9008960a9000080fa0000000600c8
:103dd8000000fa00e00620000015880000202000fe
:103de80010158800300020002015880030002000c1
:103df80030158800000028004015880000022700c0
:103e0800501588008560a900a1e2a8000080fa008a
:103e1800000006000000fa00009120001009880048
:103e28002421ef000080eb00400988008900a900e8
:103e38000080fa00000006000000fa0000022800d6
:103e4800200888000080eb00100888008460a90022
:103e580000022800800888000080eb0060088800c5
:103e680084c0a9000080fa00000006000200fa00e1
:103e7800000f7800820f2000920188001000ba001d
:103e8800000080000080fa00000006000400fa002c
:103e9800000f780011079800820f20009201880017
:103ea80082002400023b88000108bb0061c7a8000b
:103eb80052052000323b8800a20a2000323b8800cd
:103ec80061e7a80000000000013b80000000280016
:103ed800008060000000e000fbff3a000080fa006c
:043ee80000000600d0
:020000040000fa
:103eec0000080000c00000000000000044090000b1
:103efc00260000000200000000d4300000002c005e
:103f0c00cfff0000c4090000e05ef800ff001800bd
:103f1c000002e80003f401000100010000010000b0
:103f2c00ff00010000010000010000006a09000010
:103f3c001a00000000000000c0080000840000000f
:103f4c0002000000010000000032000032003200cc
:103f5c00003200006400b8000b3a000055001e004f
:103f6c0000dc05001900640000ac0d00f4016400d5
:103f7c000084030064000000007017006400ea0075
:103f8c000110270088130a00006400001b02f000d7
:103f9c00000004005a0001000003000002000c00a5
:103fac0000060000050001000008000003000100ed
:103fbc00001400000100000000bc02000000000022
:103fcc0000000000000000000000000000000000e5
:103fdc0000000000000000000000000000000000d5
:103fec0000000000000000000000000000001400b1
:103ffc00ff01000084090000060000000000000022
:10400c008a0900000600000000000000000000000b
:020000040000fa
:10401c000200fa000068ef002eff07003eff0700c9
:10402c006aff07007aff070082ff07008960a9007a
:10403c008140a8008120a8008100a80041058000d3
:10404c0000002700010070004005880090e0a800e7
:10405c009160a8008d60a8008928a8000000eb00e2
:10406c00000f7800010037001e0fe800f0702200ee
:10407c009e007800808f5000fbff36008928a90035
:10408c0086fc07000060fe0062f9070062fc070076
:04409c00fcff3700ee
:020000040000fa
:0200000401f009
:04000000f7bf000046
:020000040000fa
:0200000401f009
:04000400ff7f00007a
:020000040000fa
:0200000401f009
:04000800efff000006
:00000001FF
