:020000040000fa
:080000000001040000000000f3
:020000040000fa
:04000800d001000023
:020000040000fa
:04000c00d00100001f
:020000040000fa
:04001000da01000011
:020000040000fa
:04001400e601000001
:020000040000fa
:04001800f2010000f1
:020000040000fa
:04001c00d00100000f
:020000040000fa
:04002000d00100000b
:020000040000fa
:04002400d001000007
:020000040000fa
:04002800d001000003
:020000040000fa
:04002c00d0010000ff
:020000040000fa
:04003000d0010000fb
:020000040000fa
:040034004403000081
:020000040000fa
:04003800d0010000f3
:020000040000fa
:04003c00d0010000ef
:020000040000fa
:040040006403000055
:020000040000fa
:04004400d0010000e7
:020000040000fa
:04004800d0010000e3
:020000040000fa
:04004c000e0500009d
:020000040000fa
:04005000b2040000f6
:020000040000fa
:040054005c0200004a
:020000040000fa
:04005800d0010000d3
:020000040000fa
:04005c00d0010000cf
:020000040000fa
:04006000d0010000cb
:020000040000fa
:04006400d0010000c7
:020000040000fa
:04006800d0010000c3
:020000040000fa
:04006c00d0010000bf
:020000040000fa
:04007000d0010000bb
:020000040000fa
:04007400d0010000b7
:020000040000fa
:04007800d0010000b3
:020000040000fa
:04007c00d0010000af
:020000040000fa
:04008000d0010000ab
:020000040000fa
:04008400d0010000a7
:020000040000fa
:04008800d0010000a3
:020000040000fa
:04008c00d00100009f
:020000040000fa
:04009000d00100009b
:020000040000fa
:04009400d001000097
:020000040000fa
:04009800d001000093
:020000040000fa
:04009c00d00100008f
:020000040000fa
:0400a000d00100008b
:020000040000fa
:0400a400d001000087
:020000040000fa
:0400a800d001000083
:020000040000fa
:0400ac00d00100007f
:020000040000fa
:0400b000d00100007b
:020000040000fa
:0400b400d001000077
:020000040000fa
:0400b800d001000073
:020000040000fa
:0400bc00d00100006f
:020000040000fa
:0400c000d00100006b
:020000040000fa
:0400c400fe01000039
:020000040000fa
:0400c800d001000063
:020000040000fa
:0400cc00d00100005f
:020000040000fa
:0400d000d00100005b
:020000040000fa
:0400d4001602000010
:020000040000fa
:0400d800d001000053
:020000040000fa
:04010800d001000022
:020000040000fa
:04010c00d00100001e
:020000040000fa
:04011000da01000010
:020000040000fa
:04011400e601000000
:020000040000fa
:04011800f2010000f0
:020000040000fa
:04011c00d00100000e
:020000040000fa
:04012000d00100000a
:020000040000fa
:04012400d001000006
:020000040000fa
:04012800d001000002
:020000040000fa
:04012c00d0010000fe
:020000040000fa
:04013000d0010000fa
:020000040000fa
:040134004403000080
:020000040000fa
:04013800d0010000f2
:020000040000fa
:04013c00d0010000ee
:020000040000fa
:040140006403000054
:020000040000fa
:04014400d0010000e6
:020000040000fa
:04014800d0010000e2
:020000040000fa
:04014c000e0500009c
:020000040000fa
:04015000b2040000f5
:020000040000fa
:040154005c02000049
:020000040000fa
:04015800d0010000d2
:020000040000fa
:04015c00d0010000ce
:020000040000fa
:04016000d0010000ca
:020000040000fa
:04016400d0010000c6
:020000040000fa
:04016800d0010000c2
:020000040000fa
:04016c00d0010000be
:020000040000fa
:04017000d0010000ba
:020000040000fa
:04017400d0010000b6
:020000040000fa
:04017800d0010000b2
:020000040000fa
:04017c00d0010000ae
:020000040000fa
:04018000d0010000aa
:020000040000fa
:04018400d0010000a6
:020000040000fa
:04018800d0010000a2
:020000040000fa
:04018c00d00100009e
:020000040000fa
:04019000d00100009a
:020000040000fa
:04019400d001000096
:020000040000fa
:04019800d001000092
:020000040000fa
:04019c00d00100008e
:020000040000fa
:0401a000d00100008a
:020000040000fa
:0401a400d001000086
:020000040000fa
:0401a800d001000082
:020000040000fa
:0401ac00d00100007e
:020000040000fa
:0401b000d00100007a
:020000040000fa
:0401b400d001000076
:020000040000fa
:0401b800d001000072
:020000040000fa
:0401bc00d00100006e
:020000040000fa
:0401c000d00100006a
:020000040000fa
:0401c400fe01000038
:020000040000fa
:0401c800d001000062
:020000040000fa
:0401cc00d00100005e
:020000040000fa
:0401d000d00100005a
:020000040000fa
:0401d400160200000f
:020000040000fa
:0401d800d001000052
:020000040000fa
:10020000efa120000eff20000e018800000000007a
:10021000000020000000e000020032000001200089
:100220002002880014000700710207000000e000af
:1002300003003a0040a6220001002000020037001f
:100240000000200001002000810f7000010032003a
:1002500014000700000020000000e000020032004f
:100260000000020000000000622b020000000000fd
:100270000040da000000fe004440a9004057200082
:100280000000e0000300320000002000a001880010
:100290004440a800000006008a1f78008b1f7800e9
:1002a0000000060091018800800478000000eb0047
:1002b0001a003700e284440032a0b4009905ba0065
:1002c000e284440032a0b4009906ba00e2844400fb
:1002d00032a0b4000006eb00476fde00fd07b2005d
:1002e000636ce10003003a00ebff07000000eb0045
:1002f0000a003700606ce10004003a00005deb008a
:100300008b05e900fdff3e00040037006168e10055
:10031000010032000086eb000b00070019c7ba008d
:100320001905ba000e04e00003003a000a00e000dc
:10033000e0ff3a0000000600fe07b2009e018800c0
:100340008a047800f5ff3700395dba008b05e900b3
:100350000c003200295dba008b05e900080032006c
:100360000c00e00003003a00e284440032a0b40034
:10037000f5ff370019ddba008b05e900faff3a00f6
:100380008904e800e184440032a0b40000000600c3
:10039000000000000000000000000000000000005d
:1003a000801f78000000fa0000702000400e8800d6
:1003b000ffff3700801f78000000fa000070200067
:1003c000400e88000060fe00feff3700801f7800ae
:1003d0000000fa0000702000400e88000060fe005f
:1003e000feff3700801f78000000fa000070200038
:1003f000400e88000060fe00feff3700801f78007e
:100400000000fa00804380000000e800804388007c
:1004100072c8bf000040e80072e8b70088e0a90099
:100420000080fa004f00780000400600809fbe0068
:10043000821f78000000fa0000c8bf00e24f5000a1
:1004400002003a008960a90017003700f1458000da
:1004500010c0b300720c2000828f500001003600e3
:100460000040eb008100e800f14588000004e00056
:10047000020032008960a9000b00370000702000e4
:10048000400e880040c0b30000e8b70001c8bf00bc
:100490000004e00002003a0040c0b30001e8b700e9
:1004a0008960a900000000000080fa004f01780078
:1004b0004f00be00004006003600f800809fbe00de
:1004c000829fbe00849fbe00869fbe000000fa008f
:1004d0008560a90041448000002020000080600069
:1004e0000000e0001a00320030158000e40f5000d8
:1004f00009003200e50f50000c003200e30f5000fd
:1005000010003a0000148000e04388004000200002
:10051000301588001000370000148000f043880078
:1005200050002000301588000b00370000148000b8
:1005300000448800300020003015880000000000d2
:100540000500370030002000301588000200370019
:1005500000148000c043880010148000a04388006d
:1005600020148000b043880030148000d0438800fd
:1005700001c8bf000004e0000300320040c0b30027
:1005800000e8b70039003700b1438000a040800088
:10059000808f50000a00360000c8bf000004e00051
:1005a0000700320000702000400e880040c0b300f9
:1005b00000e8b70020c0b30001e8b7002b00370007
:1005c000a1438000b0408000808f50000a003600b8
:1005d00000c8bf000004e0000700320000702000e7
:1005e000400e880040c0b30000e8b70030c0b30040
:1005f00001e8b7001d003700c40807004044800030
:10060000680060000000e00002003200c04480008a
:1006100030158800414480000020200000806000e8
:100620000000e0000400320000c8bf000004e00049
:1006300001003200de090700414480000010200064
:10064000008060000000e00005003a0041448000a6
:1006500000042000008060000000e0000200320082
:100660002b07070001003700000000000080fa009f
:100670004f03be004f02be004f01be004f00be0040
:100680003600f90000400600801f78000000fa00e4
:1006900000702000400e880040c0b30000e8b700a2
:1006a00001c8bf000004e00002003a0060c0b300cf
:1006b00001e8b7008c60a9008460a9000080fa00fe
:1006c0004f007800004006003600f800809fbe0012
:1006d000829fbe00849fbe00869fbe000000fa007d
:1006e0004144800000042000008060000000e00021
:1006f0001e0032008868a80040448000700060003e
:100700000000e00019003a00a368ef0080c0b300c9
:10071000a2e8b70040448000640060000000e000f0
:100720000900320002c8bf00e54f500002003a0045
:100730000268ef000d00370002c8bf000040e8006b
:1007400002e8b7000900370002c8bf000004e0005b
:1007500003003a0050c0b30002e8b70003003700be
:1007600002c8bf000040e90002e8b7005044800022
:10077000700060000000e000060032008a88a900d6
:1007800088c8a8008868a80080c0b300a2e8b700a5
:10079000a368ef0041448000000820000080600052
:1007a0000000e00006003200001429003e010700ae
:1007b0008908a80088e8a90060c0b300a2e8b700d3
:1007c000a2c8bf000004e00003003200a2c8bf00be
:1007d0000040e900a2e8b70041448000001020007a
:1007e000008060000000e00003003a00a04a8000a2
:1007f000600888000621ef0002c8bf000080fb00ef
:10080000e20f500018003200e20f500005003c00db
:100810000000e0000a003200e10f50000d0032003d
:1008200025003700e40f500019003200e40f50009b
:1008300012003500e50f50001a0032001e0037008c
:10084000f06f2000a00e880050002000c0448800f7
:1008500019003700f02f2100a00e88004000200072
:10086000c044880014003700f08f2100a00e8800db
:1008700030002000c04488000f003700f09f2000a7
:10088000a00e880050002000c04488000a003700f5
:10089000f01f2200a00e880040002000c044880005
:1008a00005003700f04f2200a00e88003000200025
:1008b000c044880000000000414480000010200077
:1008c000008060000000e0001c003a00414480000d
:1008d00000042000008060000000e00019003a00e1
:1008e00040448000640060000000e0000900320025
:1008f00002c8bf00e54f500002003a000268ef0056
:100900001000370002c8bf000040e80002e8b7004e
:100910000c00370002c8bf000004e00003003a00ea
:1009200050c0b30002e8b7000600370002c8bf009d
:100930000040e90002e8b700020037008868a8001c
:100940008cc0a90084c0a9000080fa004f03be003b
:100950004f02be004f01be004f00be003600f9003e
:10096000004006003600f800809fbe00829fbe0057
:10097000849fbe00869fbe000000fa00304c8000bd
:1009800000000100814b8000704b8000808f500080
:1009900002003a008d40a900190037008540a900e7
:1009a00010003700804b8000904078008180fb0071
:1009b000811088000000e800804b8800814b800097
:1009c000c0972000808f500002003a00309720002e
:1009d000804b8800814b8000704b8000808f5000de
:1009e00006003200711080000020200000806000ae
:1009f0000000e000ebff32000100370000000000c3
:100a00000080fa004f03be004f02be004f01be003f
:100a10004f00be003600f900004006003600f80026
:100a2000809fbe00829fbe00849fbe00869fbe0046
:100a30000000fa00404c8000000001008520a90061
:100a40001e003700504b80009110800081407800dc
:100a500001487800514b800040982000808f500062
:100a600009003200504b80008000e800604b80009d
:100a7000808f500004003200504b80000000e800de
:100a8000504b88000d003700514b800040982000eb
:100a9000808f500007003a00614b8000c097200013
:100aa000808f500003003200c0972000504b880018
:100ab0000200370010c0b30072e9b7007010800068
:100ac000610060000000e000deff3a000080fa00f4
:100ad0004f03be004f02be004f01be004f00be00dc
:100ae0003600f900004006000a00fa00e20f50004c
:100af00034003e00e0508000e10f5000030032005f
:100b0000e20f500011003a000c003700c320200013
:100b10000300e00001003a000040da000c02e200ad
:100b2000020035001422ef000de2a8000f42ab00d6
:100b30000d003a000f42a8000b003700632120008f
:100b40000300e00001003a000040da001602e20073
:100b5000020035001e22ef0017e2a8001942ab0088
:100b600001003a001942a800820178000b0037000a
:100b70003102fb00e10f500004003a000f22ab00ed
:100b8000feff3a0084108800030037001922ab00f2
:100b9000feff3a00d41088008301e9000300e00062
:100ba000f3ff3a00e10f500003003a000f02ab00e0
:100bb000feff32000b0037001902ab00feff3200cf
:100bc0000800370033002000b3bf9f00c0bf9f0064
:100bd000d1bf9f00e2bf9f006a8057000a03070051
:100be0006fb99700020078000080fa00000006004c
:100bf00000000500839f68000100e00002003d0046
:100c000060001000e08018000300e00002003d00da
:100c100060011100e0811900050007004f00e000ad
:100c200002003b0060001000e08018000000060099
:100c30006022b800060220000000d0008180d200af
:100c40000482d2008582d2000000a000020252007d
:100c500083825a00030031000202420083824a006c
:100c60000000a1000603e900f3ff3a0000000600bf
:100c7000889fbe000004be00050037000000fb0096
:100c80008900780012000700e10f400004003200e4
:100c9000384078000004e000f8ff3a000000eb0064
:100ca0004f04be0000000600881f7800c19f20008e
:100cb000efff070000047800c19f2000a000200083
:100cc00003000700080078004f04780000000600c9
:100cd000889fbe0001047800b80090008084eb007b
:100ce0000118a3003a003200180190000198a300f7
:100cf00002003a000200e00035003a000190a00036
:100d00003104980080047800f90fb2000200e0007e
:100d100002003a0028009000000c7800ea8f54008e
:100d200005003a000178a30003003a00880078002b
:100d3000d0002000e6ff070018009000d8009000c7
:100d4000810f50000b0032000000e80010049800f2
:100d50001800780009487800000ce80011c0b300c2
:100d600060a1200001487800ea8f540018003a0082
:100d70000500370088007800094078001e00070051
:100d80008004780012003700380090000088a3002b
:100d90000f00320018019000a80090004800900059
:100da00051ff070098009000810f500004003200ae
:100db000380090000003b300300498008084eb00fa
:100dc0000000eb001004980028009000000c780050
:100dd000090078004f04be00000006000000fa0081
:100de00068815700cfb89700c09f20004a000700d5
:100df0000080fa00000006000200fa00889fbe0092
:100e0000a0ff9f0001047800380090000068a30054
:100e100033003a00e200600005003a000003b3002e
:100e200030049800110498000080eb002e00370079
:100e3000d80490000900e00006003a0012002000eb
:100e4000e68057004800900027ff0700190498002b
:100e500023003700a80090000100e00008003a00dd
:100e600091a1200021049800010c780021002000ad
:100e700051049800110498000030a000300498003c
:100e800018019000a80090004800900016ff07008d
:100e9000280090008080eb0011049800aff89700c4
:100ea00001487800000ce8002ff89700ea4f500046
:100eb0000b003a00380090000088a30008003200c0
:100ec00018019000a80090004800900006ff07005d
:100ed0000000eb0010049800a8009000010c7800be
:100ee000aff897000100fb004f04be000080fa003d
:100ef00000000600d0019000028151004240a9008c
:100f00000300340010017800014978000208e8006d
:100f10000100780000000600f4874700889fbe00ab
:100f20008a9fbe008c9fbe008e1f780080047800d0
:100f3000d1b79f00020778000004eb0026023700bb
:100f4000dfb097008100e800d1b79f0051c2b30025
:100f5000814f500003003a005fb097008046eb00dd
:100f600011003700b90090000000fb000168a300e9
:100f7000070032000801780080007800090078003e
:100f8000dcff07000000e00005003a001202370015
:100f9000890078004eff0700e10f40000e0232008a
:100fa0000804e8000c023700800078003041780027
:100fb000d3c2b300834f51000c00320007003c0045
:100fc000edc15100834f51000a003200ebc14100d6
:100fd000834f51000d003a000800370003c3b300ef
:100fe000834f510009003a00060037000d34a0007d
:100ff000edff37000d04a000ebff37000d14a0003b
:10100000e9ff37000d24a000e7ff37000d18a3000b
:10101000010032000d04a1000d38a30001003200d0
:101020000d24a1000200fb000003b100e90f5000f5
:101030000c003e00010178000000eb006a00b900de
:10104000b201fb000303b100008041008200780080
:101050009201fb000303b100e98f5100f7ff360056
:10106000060037000000eb00a3c2b300834f51001d
:1010700002003a004e0078008100e8000006eb0014
:10108000e2c2b300914f110008003a0064415100e0
:10109000d14f110003003200010178000d427800a9
:1010a000060037004e0678008100e8000101780054
:1010b000090037006a66b9000c864100820078009a
:1010c000b201fb000303b100e98f5100f9ff3600c4
:1010d00084467800f5ff370082017800b34078003d
:1010e0000301780034c7b30084cf500018003200e9
:1010f0000a003c007042520084cf5000730032005e
:101100006942420084cf50000c003200d3b79f00e8
:101110000104e000b501320082003700d3b79f0020
:1011200052c7b30082cf50008300320063414100b8
:1011300082cf50007b003a00020037000d44a0002f
:10114000e5ff370081e79f000d74a0007d003700a8
:10115000d3b79f0081e79f00ce007800010578009b
:101160000100e00001003a000a9b20000a0178001b
:101170008000eb00010037008100e800e2c1780048
:101180000304e000fcff3a00810578000c00e00059
:10119000030032008b0f5600010031008c057800ef
:1011a0000006eb008b0f5000010036000b065000cc
:1011b000e88666002a003a001100370039009000e6
:1011c0000068a30007003200080178000102200037
:1011d0000900780047ff07000000e00006003a0021
:1011e000060037008900780000022000b8fe0700e2
:1011f000e10f4000010032000804e8000c06e9009d
:101200000c00e000edff3a000086eb001400370010
:10121000390090000068a300090032000a0078003d
:10122000b000fb0000057800080178000900780094
:1012300030ff07000000e00008003a000800370017
:101240008a0078003100fb000105780089007800f1
:101250009ffe0700e10f4000010032000804e80093
:101260000b0078008005e9000000e000e8ff3a008c
:101270000d00e000580132001100370039009000e5
:101280000068a30007003200080178000102200076
:101290000900780017ff07000000e00006003a0090
:1012a00006003700890078000002200088fe070051
:1012b000e10f4000010032000804e8000c06e900dc
:1012c0000c00e000edff3a0043013700d3b79f0068
:1012d0004e017800cf91de00c81ade00c818dd008c
:1012e0004812de000482700084e79f000d48a300ce
:1012f000080032000404e00006003200e14f420022
:101300000400320094e79f00a2e79f002b0020001a
:101310000200370092e79f001b0020007f855700e6
:101320009aff370081e79f000afe2f000f05450056
:101330001b00200095ff370081e79f0001ccb30020
:1013400081c676008d86fb00edb79f008d01780089
:10135000f0816100b3b79f00020032004e05be006d
:10136000020037004e0578008005eb000c00e0001d
:1013700005003a000a8675000cf0a7000c06ea008a
:101380000c06e9004f66de006fb29700040cb20055
:10139000c4b79f0001082000810f52000d003200e9
:1013a000010c2000810f520018003a00829c20009e
:1013b00011c0b30064014100b20f5500a28f5d005f
:1013c000110039008140e800eacf5000f9ff3a00ef
:1013d0000d00370011c0b3000201200003002000ff
:1013e000820f5500838f5d0007003900441add002d
:1013f000cc11de00830172004411dd008140e80061
:10140000e8cf5000f6ff3a0081e79f000fe1970018
:101410008200fb008c8f500002003d008ce79f0093
:1014200003003700810f560001003d0001067800df
:101430000000e00004003200efb19700e38061009b
:10144000010032000000e9000fe297008400fb0079
:101450008006eb00810f500001003400810650002f
:101460006fb097000028a3003800320061016000cf
:101470000018a3000f003200390090000068a3009c
:1014800006003200b10220000200e000010032003c
:101490008180e800080178000d003700b0022000cc
:1014a0000200e000010032000080e80089007800be
:1014b0000e0037000200e0001000320039009000fa
:1014c0000068a30007003200080178000102200034
:1014d0000900780087fe07000000e00006003a00df
:1014e000060037008900780000022000f8fd0700a0
:1014f000e10f4000010032000804e8000d00e000a8
:101500004e003200390090000068a300070032004e
:1015100008017800010320000900780075fe07002b
:101520000000e00006003a0006003700890078005d
:1015300000032000e6fd0700e10f4000010032003b
:101540000804e8008d06e900ecff37000d00e0001c
:1015500015003200efb097000138a30012003a00e6
:10156000390090000068a3000700320008017800ed
:1015700001022000090078005efe07000000e00084
:1015800006003a00060037008900780000022000bb
:10159000cffd0700e10f4000010032000804e80021
:1015a0008d06e900eeff3a00efb19700618161001e
:1015b0000318a3000f003200390090000068a30058
:1015c00006003200b10220000200e00001003200fb
:1015d0008180e800080178000d003700b00220008b
:1015e0000200e000010032000080e800890078007d
:1015f0000e0037000200e0001000320039009000b9
:101600000068a300070032000801780001022000f2
:101610000900780037fe07000000e00006003a00ed
:10162000060037008900780000022000a8fd0700ae
:10163000e10f4000010032000804e8000c03e9005b
:101640004233dd00809c200000034300adb79f00c3
:101650008c06780006067800450037008d06e90004
:10166000000820004fb29700800f52002100320086
:10167000000c2000800f52002b003a003fb0970072
:101680000000e000100032001c02be000401be0099
:101690000a00be00f4b79f0085bf9f0064fd0700ed
:1016a00080e79f000000fb00cf80de007fb2970044
:1016b0008fba97000401be005500070000055500d1
:1016c00081855d00070037001c01780011000900ca
:1016d0000285d800a2002000110009000280d80075
:1016e00081e79f008fe097000143b00081e79f00f2
:1016f0000d003700809c2000000056000a01be004b
:10170000000278000402e900030033008301d100e5
:101710000281d300fbff37006f006100719b200046
:101720006140780080e79f00b90090000fe19700ca
:101730000200fb000168a3000700320008017800e6
:101740008000780009007800eafd07000000e00052
:1017500005003a0005003700890078005cfd0700ad
:10176000e10f4000010032000804e8006406560062
:101770000d00e000b9ff3a00afb69700efb1970057
:101780000338a300140032000d00e0001200340002
:10179000390090000068a3000700320008017800bb
:1017a0000102200009007800d2fd07000000e000df
:1017b00006003a0006003700890078000002200089
:1017c00043fd0700e10f4000010032000804e8007b
:1017d0008d06e900eeff3a005fb2970014407800f2
:1017e00080e79f000004e000d5fd3a000800780083
:1017f0004f0778004f06be004f05be004f04be00e5
:101800004f01b1000000060000c0da000000060031
:10181000020ab900001bb9000200b80081004200b2
:081820008100430000000600f6
:020000040000fa
:10182800444900005245000043540000494f00005d
:101838004e00000044440000004300004f4e0000ea
:10184800545200004f4c0000204d00004f4400004f
:1018580045000000434d0000004c00006f6300008d
:101868006b200000506f0000732e00003120000034
:1018780020540000696d0000650000004c50000015
:10188800310000004c6f0000636b00002050000026
:101898006f7300002e320000202000005469000001
:1018a8006d650000004c000050320000004c000044
:1018b8006f6300006b200000506f0000732e000063
:1018c80031200000446500006d2e0000200000005b
:1018d8004c50000031440000004c00006f630000d1
:1018e8006b200000506f0000732e000032200000b3
:1018f800446500006d2e0000200000004c500000e0
:101908003244000000520000616d000070200000a9
:1019180053740000617200007420000053700000ce
:101928006565000064000000525300005300000089
:10193800526100006d700000204500006e640000d8
:10194800205300007065000065640000005200002c
:101958004553000000520000616d00007020000037
:101968005374000061720000742000004465000098
:101978006d2e0000200000005253000044000000bb
:10198800526100006d700000204500006e64000088
:1019980020440000656d00002e2000000052000069
:1019a8004544000000520000616d000070200000f6
:1019b8004475000072610000746900006f6e0000d9
:1019c80020200000200000005244000000500000c9
:1019d8006861000073650000204100006476000023
:1019e8002e200000456e0000616200006c6500005a
:1019f80020530000706400000050000041450000c2
:101a0800530000005068000061730000652000006a
:101a180041640000762e0000205300006c6f000027
:101a280070650000005000004153000000530000a2
:101a3800746100006c6c000020540000696d0000a7
:101a4800652000004c6900006d690000740000000a
:101a5800535400004c0000004f76000065720000ef
:101a6800205300007065000065640000204c0000f1
:101a7800696d000069740000004f0000534c0000bd
:101a8800004f00007665000072200000566f0000cd
:101a98006c740000732000004c6900006d69000040
:101aa800740000004f5600004c0000004f76000004
:101ab8006572000020430000757200007265000026
:101ac8006e740000204c0000696d0000004f00009b
:101ad800434c00000043000075720000726500006e
:101ae8006e7400002050000020470000616900006b
:101af8006e20000020000000434b00005000000052
:101b08004375000072720000656e000074200000ca
:101b18004920000047610000696e00002020000095
:101b2800004300004b4900000043000075720000ac
:101b3800726500006e740000204400002047000019
:101b4800616900006e20000020000000434b000087
:101b58004400000053700000656500006420000028
:101b68005020000047610000696e0000202000003e
:101b780020200000005300004b50000000530000dc
:101b880070650000656400002049000020470000df
:101b9800616900006e200000202000002000000085
:101ba800534b000049000000566f00006c740000a1
:101bb8006167000065200000446500006d61000059
:101bc8006e64000020200000005600004400000061
:101bd800566f00006c740000732000005020000055
:101be80047610000696e00002020000020200000ee
:101bf800005600004b500000005600006f6c0000bb
:101c0800747300002049000020470000616900004b
:101c18006e2000002020000020000000564b00002d
:101c2800490000004e6f00002e2000004d6f00009c
:101c3800746f000072200000506f00006c65000097
:101c4800732000000050000000430000757200007f
:101c5800726500006e74000020530000636100008c
:101c68006c6500002058000020000000435300006d
:101c7800580000004375000072720000656e000095
:101c88007420000053630000616c000065200000b0
:101c98002f200000004300005344000000560000bd
:101ca8006f6c000074730000205300006361000033
:101cb8006c65000020580000202000002000000073
:101cc8005653000058000000566f00006c74000066
:101cd8007320000053630000616c00006520000061
:101ce8002f20000020200000005600005344000070
:101cf800005400006f6c000065720000616e000007
:101d0800636500002043000068650000636b000005
:101d180020000000544300000041000075740000da
:101d28006f200000526500002d6100006371000003
:101d38007569000072650000200000004152000033
:101d480041000000426c0000616e00006b690000f9
:101d58006e670000204300006f7500006e7400007d
:101d68002020000000420000430000005a650000e7
:101d7800726f000020580000204c000065760000bb
:101d8800656c00002054000068640000005a0000e0
:101d9800584c0000004100006371000075690000a4
:101da800726500002054000068720000657300002e
:101db800686c00006400000041540000004100000d
:101dc800637100007569000072650000204c000016
:101dd80065760000656c0000205400006400000077
:101de800414c0000005200006f7400006174000054
:101df800696f00006e200000546900006d650000e6
:101e08006f7500007400000052540000005000007c
:101e18006f740000202f0000206600006f72000021
:101e280020440000757400007920000020000000a4
:101e38005044000044000000506f0000742000006f
:101e48002f200000666f000072200000437500001c
:101e5800727200006e7400000050000044430000dd
:101e6800005000006f740000205800002066000039
:101e78006f72000020530000706500006564000068
:101e88002000000050580000530000005374000068
:101e980061720000746900006e6700002043000052
:101ea8006f6e0000747200006f6c00000053000039
:101eb80043000000576900006e6400006d6900006f
:101ec8006c6c0000696e000067200000446500002b
:101ed8006d2e000000570000440000004272000010
:101ee800616b0000696e000067200000526100000d
:101ef8006d70000020540000202000000042000007
:101f08005254000000410000637100007569000030
:101f180072650000204d000065740000686f0000c5
:101f28006420000020000000414d0000005a00001d
:101f3800657200006f580000204500006e610000c7
:101f4800626c00006520000053700000640000000f
:101f58005a5800004553000000000000000000002f
:101f680001000000148c00001e8c0000000000001e
:101f780003000000218c00002e8c000000000000ef
:101f8800ff7f0000318c0000428c00000000000040
:101f9800ff7f0000468c0000578c00000000000006
:101fa800640000005b8c00006c8c000000000000e6
:101fb80064000000718c0000828c000001000000a9
:101fc8000f270000878c0000988c0000010000009b
:101fd8000f2700009c8c0000ab8c00000000000064
:101fe80064000000af8c0000c08c000000000000fe
:101ff80064000000c48c0000d38c000001000000c5
:10200800ff7f0000d78c0000e88c00000100000072
:10201800ff7f0000eb8c0000018d00000100000034
:10202800ff7f0000068d0000178d000001000000f2
:10203800ff7f00001b8d00002c8d000001000000b8
:10204800ff7f0000308d0000418d0000010000007e
:10205800ff7f0000458d0000568d00000100000044
:10206800ff7f00005a8d00006b8d0000000000000b
:10207800ff7f00006f8d0000808d000000000000d1
:10208800ff7f0000848d0000958d00000000000097
:10209800ff7f0000998d0000aa8d0000000000005d
:1020a8000f270000ae8d0000bf8d0000000000006b
:1020b8000f270000c38d0000d48d00000000000031
:1020c800ff7f0000d88d0000e98d000000000000af
:1020d800ff7f0000ec8d0000fd8d00000000000077
:1020e800ff7f0000018e0000128e00000200000039
:1020f80030000000168e0000278e0000010000004e
:10210800560e0000298e00003a8e000001000000e3
:10211800961900003e8e00004f8e0000010000005e
:10212800560e0000538e0000648e0000010000006f
:1021380096190000688e0000798e000001000000ea
:10214800640000007d8e00008e8e000000000000fc
:1021580001000000918e0000a28e00000000000027
:10216800ff000000a68e0000b78e000000000000ef
:10217800ff000000ba8e0000cb8e000001000000b6
:10218800ff030000cf8e0000e08e0000000000007a
:10219800ff000000e38e0000f48e00000000000045
:1021a800ff7f0000f78e0000088f0000010000008c
:1021b800640000000b8f00001c8f0000010000006d
:1021c80064000000208f0000318f00000100000033
:1021d80040000000358f0000468f0000000000001e
:1021e800010000004a8f00005b8f00000000000023
:1021f800640000005e8f00006f8f00000100000087
:10220800ff7f0000728f0000838f00000000000035
:1022180001000000878f0000988f00000100000077
:102228000f2700009b8f0000ac8f00002053000098
:10223800544100004e440000425900000d000000c7
:10224800535400004152000054540000494e00000d
:10225800470d000000520000554e00004e4e000091
:10226800494e0000470d000000460000415500009f
:102278004c5400000d0000007377000061700000ee
:102288000d000000464100004c53000045000000ce
:10229800636f00006e740000726f00006c5f0000d6
:1022a800666c000061670000732e00004143000067
:1022b8005155000049520000453200005f420000bd
:1022c8004c550000453d00003d54000052550000ab
:1022d800450d000000000000205300004554000098
:1022e80055500000204f00004b4500000d00000035
:1022f8007370000065650000645f00006c6f00008b
:082308006f7000000d000000e1
:020000040000fa
:102310000200fa0040448000680060000000e00015
:102320001c0032008868a9009e29ef00a069ef0018
:1023300088a8a9008888a90000488000004078008b
:10234000a1e9b70040448000640060000000e000a4
:102350000800320002c8bf00614060000004e000d5
:1023600002003a008aa8a800660137008aa8a900de
:102370006401370002c8bf00614060000004e00053
:1023800002003a008aa8a9005e0137008aa8a800c6
:102390005c013700a1c9bf000004e0000400320066
:1023a000a1c9bf000040e900a1e9b700550137000d
:1023b00040448000700060000000e00050013a00de
:1023c000a04380008000d100104d800000804000bc
:1023d0000000d100104d8800104880008040780037
:1023e000a0c9bf0080cf500001003a0088a8a80013
:1023f0005144800000022000008060000000e000e6
:10240000170032001048800080407800a0c9bf004b
:1024100080cf500007003600c1438000104d80007f
:10242000808f500003003600a0c9bf000040e800c4
:10243000a0e9b700a0c9bf000004e0001e00320000
:10244000c1438000104d8000808f50001a003e0074
:10245000a0c9bf000040e900a0e9b700160037009e
:102460001048800080407800a0c9bf0080cf500095
:1024700007003600c1438000104d8000808f50005f
:1024800003003100a0c9bf000040e800a0e9b70088
:10249000a0c9bf000004e00007003200c143800073
:1024a000104d8000808f500003003900a0c9bf008c
:1024b0000040e900a0e9b70041448000000220008c
:1024c000008060000000e0000901320051448000fb
:1024d00000022000008060000000e00008003200e0
:1024e000f14c8000104d8000808f500004003e00b1
:1024f000c1438000104d8000808f50000d003600d9
:102500005144800000022000008060000000e000d4
:10251000f7003a00f14c8000104d8000808f500091
:10252000f3003900c1438000104d8000808f5000bf
:10253000ef00390031098000010f7800404480002d
:10254000640060000000e0001d00320002c8bf000f
:102550000080fb00e50f500035003e001100200018
:102560000008dd0041022000810060000100e00061
:102570000f003a00f20060000100e00007003a009e
:10258000690060000000e0002b0032006044800021
:102590001e001000e04a88002800370080448000b8
:1025a0001e001000e04a88000000000023003700f1
:1025b000704480001e001000e04a88001f003700b1
:1025c00002c8bf000080fb00e50f50001b003e006a
:1025d000110020000008dd004102200081006000a1
:1025e0000100e0000e003a00f20060000100e0008f
:1025f00007003a00690060000000e0000f003200b0
:10260000704480001e001000e04a88000b00370074
:10261000604480001e001000e04a88000700370078
:10262000804480001e001000e04a8800030037004c
:1026300000000000010037000000000002c8bf00d9
:102640000004e00004003a00804480001e001000f6
:10265000c04a88009c28ef00e04a80008000d1003a
:10266000f044800000805000004b8800004b800048
:102670000000e00002003c0010002000004b880039
:10268000e14a8000400620000088b9008000780000
:10269000f04a800000017800110009008280d80013
:1026a000004588000145800050418000808f500027
:1026b00004003e000145800060418000808f500092
:1026c00013003100a2c8bf000004e00010003a006f
:1026d00000702000400e88008cc0a9008908a90065
:1026e000f04780000000e000040032008928a800c4
:1026f0008868a8008a48a9008200370040c0b3005b
:1027000000e8b70060c0b30001e8b7007d00370003
:1027100040448000640060000000e00009003200d6
:1027200002c8bf00e54f500002003a000268ef0007
:102730000d00370002c8bf000040e80002e8b70003
:102740000900370002c8bf000004e00003003a009f
:1027500050c0b30002e8b7000300370002c8bf0052
:102760000040e90002e8b700414480000004200076
:10277000008060000000e0000c003a00004b800088
:10278000600888000621ef0084c0a9008cc0a80062
:10279000e04a800000004000100888000021ef009f
:1027a0008460a9008c60a80012003700a3c8bf0095
:1027b0000040e800a3e8b700a3c8bf00e14f500005
:1027c0000c0036008cc0a90088c8a9008908a800a0
:1027d00030c0b30000e8b70060c0b300a2e8b700a3
:1027e000004b8000600888000621ef0084c0a9002b
:1027f0008cc0a80040448000640060000000e0003d
:102800001a00320002c8bf000080fb00e50f500034
:102810002f003e00110020000008dd0041022000d2
:10282000810060000100e0000d003a00f20060004d
:102830000100e00006003a00690060000000e000ce
:10284000250032009e007800614488002300370094
:102850001e01780082448800000000001f0037003d
:102860009e007800714488001c00370002c8bf0039
:102870000080fb00e50f500018003e001100200012
:102880000008dd0041022000810060000100e0003e
:102890000c003a00f20060000100e00006003a007f
:1028a000690060000000e0000c0032001e017800aa
:1028b00072448800090037009e0078006144880057
:1028c000060037001e0178008244880003003700ac
:1028d000000000000100370000000000e04a800016
:1028e000f04a88008888a800a069ef0088a8a9009d
:1028f000c0438000f04c8800000000000100370059
:10290000000000000080fa00000006001800fa0035
:10291000889fbe008a9fbe008c9fbe0000c8bf007b
:10292000e14f5000090032004144800000202000a7
:10293000008060000000e00004003a005044800085
:10294000620060000000e000040032009829ef00ff
:102950009a29ef008a68a8001001370000c8bf005c
:10296000e24f500007003a0080488000e10f50001d
:1029700004003a009829ef009a29ef008a68a8001d
:102980000601370000c8bf00e34f50000a003a00bc
:1029900010468000e20f5000030032001046800015
:1029a0000000e00004003a009829ef009a29ef00a7
:1029b0008a68a800f9003700704180008000780024
:1029c000b04a800080804000b0438000008050000a
:1029d000300798008828a9003e0090006102b900e5
:1029e000004180006101b90002a8b900000378002d
:1029f0000498b90000007800000343000220b800ea
:102a000001034300860078004007980051079800b2
:102a10004007980051079800e04c8000be009000ed
:102a2000008050006102b900204180006101b900be
:102a300002a8b900000378000498b90000007800eb
:102a4000000343000220b800010343008600780021
:102a5000008fbe00008fbe00504480006800600000
:102a60000000e000020032006000b800008fbe00ed
:102a70004e009000de0090003e014000ae81480014
:102a80000200be006007980071079800604a80004d
:102a9000714a80006e019000fe019000800f51008d
:102aa000818f5900170034008828a800604a8000f0
:102ab000714a8000e00f5000e08f580002003d0096
:102ac000f01fb0000180b0004709dd00c901de0041
:102ad00083017100030f9800c989de00130f98006d
:102ae0000e0890009e08900080007800204e200084
:102af00000804000200798009829ef009a29ef00f5
:102b00001d003700804a8000914a80006e019000cd
:102b1000fe019000800f5100818f590016003d008a
:102b20008828a800804a8000914a8000e00f500069
:102b3000e08f580002003d00f01fb0000180b0009f
:102b4000c709dd004901de0002817100220f9800f3
:102b50004989de00320f98002e089000be089000d0
:102b600080007800204e2000008040002007980060
:102b70009829ef009a29ef0040448000620060002d
:102b80000000e00072003a003e0090006101b900d0
:102b900010418000cf80de00009ab9000402780066
:102ba000028bb90086027800050242000010b800ce
:102bb0000102420084007800c24c8000d34c8000a7
:102bc0000000410081804900c04c8800d14c880041
:102bd000c04c8000d14c80006e019000fe0190003e
:102be0000200400083804800600798007107980049
:102bf000604a8000714a80006e019000fe019000e2
:102c0000800f5100818f59001d0034008828a800d2
:102c1000604a8000714a8000e00f5000e08f580049
:102c200002003d00f01fb0000180b000c709dd00c8
:102c30004906de000c867100c98ede000c00be0065
:102c400080007800204e200000804000200798007f
:102c5000624a8000734a80004e009000de009000bf
:102c600000005100818059003e015000ae815800a3
:102c70000200be00c04c8800d14c880034003700f0
:102c8000804a8000914a80006e019000fe01900011
:102c9000800f5100818f59001d003d008828a80039
:102ca000804a8000914a8000e00f5000e08f580079
:102cb00002003d00f01fb0000180b000c709dd0038
:102cc0004905de000a857100c98dde000a00be00dc
:102cd00080007800204e20000080400020079800ef
:102ce000824a8000934a80004e009000de009000ef
:102cf00000005100818059003e015000ae81580013
:102d00000200be00c04c8800d14c88001000370083
:102d10006e009000fe009000e00f5000e08f580021
:102d200002003d00f01fb0000180b000c709dd00c7
:102d30004904de0008847100c98cde000800be0072
:102d400080007800204e200000804000200798007e
:102d50002e0090000000e00002003d000000eb00ab
:102d6000200798002e009000419c20000080500019
:102d7000200798002e009000b00e88002e009000d2
:102d8000c00e88002e009000d00e8800be0090007b
:102d9000e14c88008a68a900000000004f06be00d0
:102da0004f05be004f04be000080fa000000060080
:102db0000600fa0040448000680060000000e00067
:102dc000120032008868a9008948a9008968a90012
:102dd0008988a9008a29ef008c29ef008e29ef004d
:102de0009069ef009169ef009269ef009429ef007c
:102df00050448000640060000000e000e1013a00ff
:102e000040c0b30096e9b700df01370096c9bf00a4
:102e10000004e0000d003a0001c8bf000004e0001b
:102e20000a003a0040c0b30000e8b70010c0b30089
:102e300001e8b7008928a90060142900801f7800e4
:102e4000e6f707008f87e900cf013700e1438000f4
:102e500010448000808f500008003100304880000e
:102e60008040780090c9bf0080cf5000030036003a
:102e700090c9bf000040e80090e9b70030488000ea
:102e80008040780090c9bf0080cf500088003a0091
:102e9000514c800010448000808f50008400390025
:102ea000e143800010448000808f50008000390092
:102eb00031098000010f780041448000004020006b
:102ec000008060000000e000090032008a48a8008d
:102ed00096c9bf000004e0000300320096c9bf009d
:102ee0000040e90096e9b7008868a800a60137000d
:102ef0009069ef00414480000000210000806000e4
:102f00000000e00032003200c014290066f707001c
:102f100050c0b30002e8b700f04f2200a00e8800b6
:102f2000a04c80001e001000100798001e009000aa
:102f30004200de00200798001e0090008000d100b3
:102f40001e00900000804000c04a88009c28ef00ce
:102f5000c14a8000204e2000808f500019003600aa
:102f60001e0090009e0010002e0090000080500077
:102f7000604488002e0090001e00100070448800fd
:102f80001e0090009e0010002e0090000080400067
:102f9000804488001e0090000000d100f04a8800a4
:102fa0008928a90088e8a80030c0b30000e8b7006d
:102fb00084c0a8008cc0a80070772000400e880054
:102fc000710137008868a8008a28a8006e013700c0
:102fd0004144800000802000008060000000e0008c
:102fe0003000320020c0b30002e8b700f08f2100ab
:102ff000a00e8800a04c80001e0010001007980052
:103000001e0090004200de00200798001e00900085
:103010008000d1001e00900000804000c04a88005f
:103020009c28ef00c14a8000204e2000808f500075
:10303000190036001e0090009e0010002e00900027
:1030400000805000604488001e0090009e00100028
:103050002e00900000804000704488002e009000f8
:103060001e001000804488001e0090000000d10067
:10307000f04a88008928a90088e8a80030c0b30079
:1030800000e8b70084c0a8008cc0a80070772000ba
:10309000400e88003c0137008868a8008a28a800f4
:1030a000390137009e007800a14c88008948a800ab
:1030b000f143800020448000808f500008003100e0
:1030c000304880008040780091c9bf0080cf500018
:1030d0000300360091c9bf000040e80091e9b70045
:1030e000304880008040780091c9bf0080cf5000f8
:1030f00086003a00614c800020448000808f5000a0
:1031000082003900f143800020448000808f50000d
:103110007e00390031098000010f780041448000b1
:1031200000802000008060000000e0000900320004
:103130008a48a80096c9bf000004e00003003200de
:1031400096c9bf000040e90096e9b7008868a8006a
:103150000d0137009169ef004144800000402000dc
:10316000008060000000e0003000320010c0b300ba
:1031700002e8b700f02f2100a00e8800a04c8000cc
:103180001e001000100798001e0090004200de0094
:10319000200798001e0090008000d1001e009000c3
:1031a00000804000c04a88009c28ef00c14a80008f
:1031b000204e2000808f5000190036001e00900025
:1031c0009e0010002e0090000080400060448800a7
:1031d0001e0090009e0010002e0090000080500005
:1031e000704488002e0090001e001000804488006b
:1031f0001e0090000000d100f04a88008928a90034
:1032000088e8a80030c0b30000e8b70084c0a80078
:103210008cc0a80070772000400e8800da003700cc
:103220008868a8008a28a800d70037004144800099
:1032300000002100008060000000e000300032004b
:1032400040c0b30002e8b700f01f2200a00e8800c3
:10325000a04c80001e001000100798001e00900077
:103260004200de00200798001e0090008000d10080
:103270001e00900000804000c04a88009c28ef009b
:10328000c14a8000204e2000808f50001900360077
:103290002e0090001e001000604488001e00900068
:1032a0009e0010002e0090000080500070448800a6
:1032b0001e0090009e0010002e0090000080400034
:1032c000804488001e0090000000d100f04a880071
:1032d0008928a90088e8a80030c0b30000e8b7003a
:1032e00084c0a8008cc0a80070772000400e880021
:1032f000a50037008868a8008a28a800a200370027
:103300009e007800a14c88008968a80001448000d4
:1033100030448000808f5000080031003048800029
:103320008040780092c9bf0080cf50000300360073
:1033300092c9bf000040e80092e9b7003048800021
:103340008040780092c9bf0080cf500085003a00cd
:10335000714c800030448000808f50008100390023
:103360000144800030448000808f50007d0039008f
:1033700031098000010f78004144800000002100e5
:10338000008060000000e000090032008a48a800c8
:1033900096c9bf000004e0000300320096c9bf00d8
:1033a0000040e90096e9b7008868a8007600370079
:1033b0009269ef004144800000802000008060009e
:1033c0000000e0003000320030c0b30002e8b70077
:1033d000f09f2000a00e8800a04c80001e0010006e
:1033e000100798001e0090004200de0020079800a1
:1033f0001e0090008000d1001e0090000080400060
:10340000c04a88009c28ef00c14a8000204e20005e
:10341000808f5000190036002e0090001e00100012
:10342000604488001e0090009e0010002e00900056
:1034300000804000704488001e0090009e00100034
:103440002e00900000805000804488001e009000f4
:103450000000d100f04a88008928a90088e8a80067
:1034600030c0b30000e8b70084c0a8008cc0a8003a
:1034700070772000400e8800430037008868a8005d
:103480008a28a80040003700414480000040200006
:10349000008060000000e0002f0032000268ef00b2
:1034a000f06f2000a00e8800a04c80001e001000cd
:1034b000100798001e0090004200de0020079800d0
:1034c0001e0090008000d1001e009000008040008f
:1034d000c04a88009c28ef00c14a8000204e20008e
:1034e000808f5000190036001e0090009e001000d2
:1034f0002e00900000804000604488002e00900064
:103500001e001000704488001e0090009e001000f5
:103510002e00900000805000804488001e00900023
:103520000000d100f04a88008928a90088e8a80096
:1035300030c0b30000e8b70084c0a8008cc0a80069
:1035400070772000400e88000f0037008868a800c0
:103550008a28a8000c0037009e007800a14c880043
:103560008988a800e0438000504c8800f043800028
:10357000604c880000448000704c8800000000000f
:1035800001003700000000000080fa000000060083
:103590000400fa002187200091407800f0c9b300b0
:1035a00080cf50007d0036007268ef0010070700e2
:1035b000a2c8bf000004e000030032007046800093
:1035c000d04488001d003700904780006101b8009a
:1035d000c04a80008000eb00009ab9000402780025
:1035e000028bb90086027800050242000010b80084
:1035f0000102420084007800008fbe001e01be0060
:10360000d011200001002000800f5100818f59004f
:1036100003003e000080eb00d04488000700370024
:103620001e00be000001be0000a32100e111200029
:103630007ff5070000007800d044880000c8bf0074
:10364000e34f5000010032009c28ef0001c8bf008a
:103650000004e0001d003a00e1468000d0448000f4
:10366000808f50000b00310041448000001020008a
:10367000008060000000e0000600320000702000c2
:10368000400e880040c0b30000e8b70050c0b3004f
:1036900001e8b700d1468000e0448000808f5000f0
:1036a0000700310000702000400e880040c0b300c9
:1036b00000e8b70070c0b30001e8b70003003700ae
:1036c000e04480000000e800e0448800b14680004b
:1036d000d0448000808f500003003600400120005d
:1036e000f044880023003700d1448000b0468000b9
:1036f000008050006101b800c04680008000eb00ef
:10370000009ab90004027800028bb90086027800a2
:10371000050242000010b800010242008400780057
:10372000008fbe00008fbe00c04a80008000eb000a
:103730001e0178000191b900020178009e019000fd
:10374000009ab90084017800030141009e017800cd
:103750000018b800010141008200780002f22b003d
:103760002300200023f507000000780074004000cb
:10377000f044880041448000001020000080600078
:103780000000e000010032000600070000c8bf0092
:10379000e24f500001003a005b0107000080fa0090
:1037a000000006001e00fa00889fbe008a9fbe002f
:1037b0008c9fbe00c01729003bf5070000c8bf0062
:1037c000e34f500003003a00a2c8bf000004e0002d
:1037d00003003200ac29ef00ae29ef0045013700ad
:1037e00010468000e10f500046003200e10f50000b
:1037f00034003900e20f500003003200e30f5000a4
:103800001a00320047003700ac29ef00ae29ef0064
:10381000ca01a800c145800050488000000178001e
:10382000110009008280d80050079800de00900047
:10383000409c2000808f500002003600d621ef000f
:10384000040037005e009000419c20000080500082
:10385000b00e8800b00e8000c00e8800b00e800050
:10386000d00e8800ca01a90022013700ac29ef0060
:10387000ae29ef00c14580006048800080017800db
:10388000110009008380d80050079800de009000e6
:10389000a2408000b04a800000005100808f50009c
:1038a00005003900a1408000b04a8000008050002f
:1038b000704188000f013700de00900071418800e0
:1038c0000c013700624a8000734a80004518dd0011
:1038d000cb10de00810070004510dd00008fbe00bf
:1038e000824a8000934a80004518dd00cb10de003c
:1038f000810070004510dd00200798003107980016
:1039000008003700224a8000334a8000028fbe0040
:10391000424a8000534a80002207980033079800eb
:103920000000000071488000c04580000088b90098
:1039300000007800d04a88008808a900d14a800099
:10394000d044800000805000600798006e00900016
:103950006102b900e04080006101b90002a8b9002d
:10396000000378000498b9000000780000034300c9
:103970000220b80001034300860078007007980019
:10398000010f980070079800010f98007e009000ca
:103990008e089000be0f5000ae8f58001c003400ff
:1039a0008808a8001e00be00e00f5000e08f5800fd
:1039b00004003d00f2ff230003002000000041004e
:1039c000818049004209dd00ce01de0083017100e3
:1039d000330f9800ce89de00430f98003e08900018
:1039e000ce08900040079800104680000000e000dc
:1039f00004003a00ce009000204e200000804000dd
:103a000040079800ac29ef00ae29ef0023003700f3
:103a10007e0190008e0990002e009000be00900064
:103a2000800f5100818f59001c003d008808a800bc
:103a30002e009000be009000e00f5000e08f580074
:103a400004003d00f2ff23000300200000004100bd
:103a500081804900c209dd004e01de000281710053
:103a6000520f98004e89de00620f98005e089000a9
:103a7000ee08900040079800104680000000e0002b
:103a800004003a00ce009000204e2000008040004c
:103a900040079800ac29ef00ae29ef0040448000b9
:103aa000610060000000e0007a003a006e009000c3
:103ab0006101b900f0408000cf80de00009ab900bb
:103ac00004027800028bb9008602780005024200e9
:103ad0000010b8000102420084007800624d8000ae
:103ae000734d80000000410081804900604d8800d6
:103af000714d8800624d8000734d80007e00900003
:103b00008e0890000200400083804800100f98004b
:103b1000210f98001e089000ae089000be0f5000c4
:103b2000ae8f58001e0034008808a8001e00be009a
:103b3000e00f5000e08f580004003d00f2ff23002a
:103b4000030020000000410081804900c209dd001f
:103b50004e06de000c867100ce8ede000c00be002c
:103b600040079800104680000000e00004003a0082
:103b7000ce009000204e20000080400040079800ba
:103b80007e0090008e0890003e011000ae8118006b
:103b90000200be00604d8800714d88003d00370076
:103ba0001e099000ae0990002e009000be0090000b
:103bb000800f5100818f590020003d008808a80027
:103bc0002e009000be009000e00f5000e08f5800e3
:103bd00004003d00f2ff230003002000000041002c
:103be00081804900c209dd004e05de000a857100b2
:103bf000ce8dde000a00be0040079800104680000f
:103c00000000e00004003a00ce009000204e2000aa
:103c100000804000400798002e019000be019000f7
:103c20007e0090008e0890000000510081805900b5
:103c3000604d8800714d8800160037001e08900006
:103c4000ae089000e00f5000e08f580004003d00e7
:103c5000f2ff2300030020000000410081804900a2
:103c60004209dd004e04de0008047100ce8cde0047
:103c70000800be0040079800104680000000e000e9
:103c800004003a00ce009000204e2000008040004a
:103c900040079800104680000000e00012003a0043
:103ca0004e0090000000e00002003d000000eb002c
:103cb00040079800ca01a8004e009000419c2000d7
:103cc00000805000400798004e009000b00e880021
:103cd0004e009000c00e88004e009000d00e88006c
:103ce000ca01a90003003700ce019000734188008b
:103cf000000000004f06be004f05be004f04be008e
:103d00000080fa00000006001000fa005044800015
:103d1000620060000000e0000b0032004200f8008a
:103d200042e0a80042c0a80042a0a9008928a8003b
:103d30008868a8008a28a9004200f900404880004d
:103d4000504d8800130137004144800000202000be
:103d5000008060000000e00007003200504d80004d
:103d60000000e00004003200504d80000000e90037
:103d7000504d8800070137008928a9004144800080
:103d800000002800008060000000e0008800320091
:103d900041458000404580000100b800008fbe0012
:103da000824080001e02be006407980075079800dc
:103db0006e029000fe0290001100090042aad80095
:103dc00020079800514080002e0090000100b800ac
:103dd000008fbe00824080001e02be006407980073
:103de000750798006e029000fe0290001100090015
:103df00042aad80020079800414080002e00900081
:103e0000008040008045880061458000404580007a
:103e10000180b800008fbe00824080001e02be00fc
:103e200064079800750798006e029000fe029000eb
:103e30001100090042aad800704588006140800046
:103e40007045800000804000300798008048800066
:103e50000000e0000d003200419c20003e00900078
:103e60000080500030079800ca01a800be029000f0
:103e7000b50e8800be009000c10e88003e02900082
:103e8000d40e8800ca01a900020037003e0090004d
:103e900070418800804580006101b8009047800033
:103ea0008000eb00009ab90004027800028bb90090
:103eb00086027800050242000010b80001024200ac
:103ec000840078000001be0000e12500f10520001b
:103ed00057f3070040079800510798004e019000e3
:103ee000de019000f0ff2f0001002000800f510044
:103ef000818f5900030036000080eb00a04a880043
:103f0000020037004e009000a04a8800b0488000b0
:103f10000000e0000b003a00a14a800090408000c1
:103f2000808f500007003e004144800000042000c4
:103f3000008060000000e00002003a008a88a800cb
:103f4000a368ef00a14a800030458000808f5000b8
:103f500017003e004200f80042e0a80042c0a8005e
:103f600042a0a90089e8a90000702000400e880046
:103f70008cc0a900b0488000e10f500006003a0054
:103f80008928a8008868a8008a48a90030c0b30022
:103f900000e8b7000400370040c0b30000e8b700f5
:103fa00010c0b30001e8b7004200f9007900370003
:103fb0004144800000002200008060000000e0001a
:103fc00020003a004144800000002400008060008e
:103fd0000000e0001b003a0041448000000028007f
:103fe000008060000000e00016003a00a828ef0002
:103ff00089a8a800804880000000e0000b00320083
:10400000ca01a80020408000419c20000080500090
:10401000b00e8800b00e8000c00e8800b00e800088
:10402000d00e8800ca01a90002003700204080009d
:1040300070418800f06f2000a00e8800707720008b
:10404000400e88002146800040458000808f50004f
:1040500021003e00414480000000220000806000fa
:104060000000e0001c003200a828ef0089a8a90089
:1040700089c8a800804880000000e0000b003200e2
:10408000ca01a80030408000419c20000080500000
:10409000b00e8800b00e8000c00e8800b00e800008
:1040a000d00e8800ca01a90002003700304080000d
:1040b0007041880040448000640060000000e0001f
:1040c00003003200f02f2100a00e8800020037000c
:1040d000f04f2200a00e880031468000404580004d
:1040e000808f5000270031004144800000002400f0
:1040f000008060000000e0002200320089c8a900b2
:1041000089e8a800a828ef00804880000000e000af
:104110000b003200ca01a80060408000419c2000d2
:1041200000805000b00e8800b00e8000c00e8800e5
:10413000b00e8000d00e8800ca01a900020037002e
:104140006040800070418800b04880000000e000be
:1041500006003a002145800090408000808f50008a
:1041600002003e008a88a800a368ef0030c0b300b8
:1041700002e8b70020458000a04a880084c0a8005b
:104180008cc0a800404580000000e8004045880041
:10419000000000000080fa00000006000000fa00a5
:1041a00081438000f0632000808f50001a003600a9
:1041b000a1458000a0438000008040000000d100a5
:1041c000a0458800c1458000d043800000804000a9
:1041d0000000d100c045880091458000d044800097
:1041e000008040000000d10090458800b14580006b
:1041f000b0438000008040000000d100b04588003e
:1042000000c8bf00e14f500001003a000400070061
:10421000690307007028ef000080fa000000060024
:104220000400fa0000468000004078006140600011
:104230000080fb00610060004200dd00414480001e
:104240000120a1000100700040448800b0438000bc
:10425000b04a8800004780008000eb00e20c20009c
:104260000289b900020178006002b9008401780077
:1042700003014100e30c20000300b80001014100ec
:1042800082007800008fbe00008fbe00a047800033
:104290008000eb001e0190000091b900020178003f
:1042a0009e017800019ab900840178000301410061
:1042b0009e0178000018b8000101410082007800da
:1042c000008fbe00008fbe00b04780006a00b900ba
:1042d000000078008000eb000001be001e00be0060
:1042e00053f2070080007800b04a80000080400050
:1042f000a0408800804880000000e00045003200b7
:10430000404680008000eb00429c20000289b900fa
:10431000020178006002b9008401780003014100c5
:10432000439c20000300b800010141008200780096
:1043300042062000030020003df207000000780044
:1043400020408800504680008000eb00429c200006
:104350000289b900020178006002b9008401780086
:1043600003014100439c20000300b800010141000b
:104370008200780042062000030020002cf2070093
:104380000000780030408800804680008000eb000c
:10439000429c20000289b900020178006002b90045
:1043a0008401780003014100439c20000300b80011
:1043b0000101410082007800420620000300200035
:1043c0001bf20700000078006040880090468000e3
:1043d0008000eb00429c20000289b90002017800b5
:1043e0006002b9008401780003014100439c200071
:1043f0000300b8000101410082007800420620005d
:10440000030020000af207000000780070408800d6
:104410004d003700a1408000b04a8000008050006d
:104420008000eb00008fbe00404680008000eb0063
:104430001e0178000191b900020178009e019000f0
:10444000009ab90084017800030141009e017800c0
:104450000018b800010141008200780042062000e7
:1044600003002000f2f107000000780020408800df
:10447000504680008000eb001e0178000191b900d9
:10448000020178009e019000009ab9008401780032
:10449000030141009e0178000018b80001014100ad
:1044a000820078004206200003002000e0f10700af
:1044b0000000780030408800804680008000eb00db
:1044c0001e0178000191b900020178009e01900060
:1044d000009ab90084017800030141009e01780030
:1044e0000018b80001014100820078004206200057
:1044f00003002000cef10700000078006040880033
:10450000904680008000eb001e0178000191b90008
:10451000020178009e019000009ab90084017800a1
:10452000030141009e0178000018b800010141001c
:10453000820078004206200003002000bcf1070042
:10454000000078007040880071408000604080006a
:104550000080500060458800604680006101b8001e
:10456000904780008000eb00009ab90004027800b8
:10457000028bb90086027800050242000010b800e4
:104580000102420084007800420120000300200064
:10459000a7f10700008fbe001e01be00404b2c009b
:1045a00041002000a2f107000001be00f0ff2f0033
:1045b00001002000800f5100818f59001500360046
:1045c0000080eb0020458800904780008000eb00d1
:1045d0000081eb000289b900020178006002b90095
:1045e00084017800030141008081eb000300b800e2
:1045f00001014100820078000001be0000e12500b9
:10460000f10520008af10700000078004040880092
:10461000080037001e01be00404b2c004100200066
:1046200083f1070000007800204588006046800084
:1046300040408800704680006101b80090478000cb
:104640008000eb00009ab90004027800028bb900e8
:1046500086027800050242000010b8000102420004
:1046600084007800420120000300200070f1070060
:10467000008fbe001e01be00404b2c0041002000f8
:104680006bf107000001be00f0ff2f0001002000c9
:10469000800f5100818f5900030036000080eb002d
:1046a00030458800060037001e01be00404b2c003c
:1046b000410020005ef107000000780030458800ce
:1046c00071468000604680000080500050408800a5
:1046d000c04880006101b800904780008000eb0076
:1046e000009ab90004027800028bb90086027800b3
:1046f000050242000010b800010242008400780068
:10470000420120000300200049f10700008fbe0095
:104710001e01be00404b2c004100200044f1070068
:104720000001be00f0ff2f0001002000800f5100ab
:10473000818f5900030036000080eb009040880014
:10474000060037001e01be00404b2c004100200037
:1047500037f107000000780090408800a0468000f4
:10476000804088001047800000418800204780007a
:104770001041880030478000204188004047800079
:10478000e040880050478000f0408800704780007b
:10479000304188008047800040418800a14080006f
:1047a000b04a8000008050008000eb00f20520003d
:1047b0000289b900020178006002b9008401780022
:1047c00003014100f30520000300b800010141008e
:1047d00082007800420620000300200005f1070057
:1047e000204a8800314a8800224a8000334a8000eb
:1047f0004e18dd00c210de00810070004e10dd009a
:10480000204a8800314a8800204a8000314a8000ce
:1048100060001000e0801800404a8800514a88007b
:10482000c04780008000eb00e20c20000289b90044
:10483000020178006002b9008401780003014100a0
:10484000e30c20000300b800010141008200780061
:10485000008fbe00008fbe00f04680008000eb009d
:104860001e0178000191b900020178009e019000bc
:10487000009ab90084017800030141009e0178008c
:10488000001ab8000501410082027800d04780007c
:104890008000eb006a09b900020178006003b900ea
:1048a0008601780003014100a30020000300b80046
:1048b00001014100820078000001be000400be003a
:1048c000dbf0070000007800b040880060478000ff
:1048d0008000eb001e0178000191b9000201780010
:1048e0009e019000009ab900840178000301410004
:1048f0009e017800001ab80005014100820278008c
:10490000d04780008000eb006a09b90002017800fe
:104910006003b9008601780003014100a300200074
:104920000300b80001014100820078000001be00d0
:104930000400be00bef0070000007800d0408800f0
:10494000e04780004006b00050418800e04780000a
:10495000410620000080500060418800214880000e
:10496000e04380000080400010448800214880001f
:10497000f0438000008040002044880021488000ef
:104980000044800000804000304488000080fa002d
:10499000000006000000fa008d40a9008d20a9004b
:1049a00000f62d0060108800d0792f00701088006c
:1049b000f00b2000a010880030972000804b88006a
:1049c00030972000704b8800c0972000604b880013
:1049d000c0972000504b88007269ef008051220080
:1049e0000700070060532200140007008d20a80074
:1049f0000de2a8000f42a8000080fa0000000600a7
:104a00000200fa00000f78001e0078000000e000ad
:104a100003003a0080512200304c88000200370029
:104a20001e007800304c88000080fa00000006006c
:104a30000000fa000080fa00000006000200fa0000
:104a4000000f78001e0078000000e00003003a002c
:104a500060532200404c8800020037001e0078009e
:104a6000404c88000080fa00000006000000fa00b8
:104a70000080fa00000006000200fa000040eb008f
:104a8000004f780000000000614b8000504b800018
:104a9000808f5000fcff3200604b8000104f780088
:104aa000604b80000000e800604b8800614b800094
:104ab00050982000808f500002003a00c0972000dc
:104ac000604b88001e4078000080fa00000006005d
:104ad0000200fa00004f7800000000001c000700f0
:104ae0000004a2000004e000fcff3a00704b8000cc
:104af0001e487800704b80000000e800704b880072
:104b0000714b8000c0972000808f500002003a0057
:104b100030972000704b88008d40a8000080fa007c
:104b2000000006000000fa00614b8000504b80003e
:104b30000080680000f0a7000000ea000000ea0022
:104b40004f00de00004078000080fa000000060000
:104b50000400fa00814b800011079800714b80001f
:104b60001e009000808f5000060031009e009000d3
:104b7000704b8000008050000000e900000f7800ba
:104b8000050037009e009000704b800000805000b0
:104b900068004000000f78001e00780000f0a700b9
:104ba0000000ea000000ea004f00de00004078004c
:104bb0000080fa00000006000000fa00714b80003f
:104bc000804b8000808f500009003a0071108000f7
:104bd000001020000080600000f0a7000000ea0044
:104be0000000ea004f00de000040780001003700be
:104bf0000040eb000080fa00000006000400fa000c
:104c0000514b800011079800604b80009e0090007f
:104c1000808f5000060031009e009000604b8000a5
:104c20000080500069004000000f78000400370049
:104c30009e009000604b800000805000000f7800c4
:104c4000f00f20009e007800808f50000200360098
:104c500000c0eb00020037001e0078000040780022
:104c60000080fa00000006000400fa00814b80007a
:104c700011079800714b80001e009000808f50003b
:104c8000060031009e009000704b800000805000b4
:104c90000000e900000f7800050037009e0090003a
:104ca000704b80000080500068004000000f7800ca
:104cb000f00f20009e007800808f50000200360028
:104cc00000c0eb00020037001e00780000407800b2
:104cd0000080fa00000006000800fa002007980093
:104ce00031079800c5ff07000080fb00000f780027
:104cf0003e0090009e0f500002003100be00900068
:104d0000010f78000000eb00100798000900370041
:104d100059ff0700ae009000804878002e009000f8
:104d20000000e800200798001e0090000000e80046
:104d3000100798001e0090009e0f5000f4ff3900ed
:104d40001e0078000080fa00000006000800fa004b
:104d50002007980031079800c3ff07000080fb0080
:104d6000000f78003e0090009e0f500002003100be
:104d7000be009000010f78000000eb0010079800c3
:104d8000090037002e00900010407800ae0090001f
:104d90008100e800210798004dff07001e009000e9
:104da0000000e800100798001e0090009e0f5000c1
:104db000f4ff39001e0078000080fa0000000600b1
:104dc0000400fa000000eb00000f78008bff0700e2
:104dd00020479800a4ff0700304798002e4090001d
:104de0000080fb000000e00003003200e90f5000eb
:104df00003003200040037001e20a000040037002a
:104e00001e00a000020037001e10a00000000000dd
:104e10003e4090000080fb000000e00003003200f4
:104e2000e90f500003003200040037001e30a000dc
:104e3000020037001e40a000000000001e007800a5
:104e40000080fa00000006000400fa001007980035
:104e5000614b80001e009000008f40000200370070
:104e60009e007800698f5000509820009e007800c6
:104e7000808f5000faff3e001e007800104078003e
:104e80000080fa00000006000000fa005bff070047
:104e90000080fb000000e9004f00de0000407800c9
:104ea0000080fa00000006000000fa006eff070014
:104eb0000080fb000000e9004f00de0000407800a9
:104ec0000080fa00000006000000fa007010800068
:104ed0000080fa00000006000000fa0062ff0700f0
:104ee0000004e00010003200814b8000704b800015
:104ef000808f500006003600804b800080007800d4
:104f0000704b8000008050000000e900070037006f
:104f1000804b800080007800704b80000080500043
:104f200068004000010037000000eb000080fa003c
:104f3000000006000000fa0030ff07000004e00057
:104f400010003200614b8000504b8000808f500079
:104f500006003600604b800080007800504b8000d7
:104f6000008050000000e90007003700604b80001f
:104f700080007800504b80000080500068004000a6
:104f8000010037000000eb000080fa00000006007e
:104f90000000fa000de2a8000f42a8000080fa000d
:104fa000000006000000fa000de2a9000f42a9006f
:104fb0000080fa00000006000000fa0040c9bf00af
:104fc000e14f500002003a0010c0b30000e8b70003
:104fd00040c9bf000004e0000300320040c9bf0028
:104fe0000040e90040e9b70041c9bf000080fb0074
:104ff000680060000000e00007003a0062c9bf00de
:105000000080fb00680060000000e0000200320049
:10501000a409a80001003700a409a90062c9bf00c3
:1050200041e9b70000c8bf000080fb00e20f50005c
:105030002d003200e20f500005003c000000e000af
:1050400060003200e10f50000600320066003700b9
:10505000e30f500033003200e40f500040003200f4
:1050600061003700204d8000610060000000e0001a
:10507000560032004200f80042e0a80042c0a800fa
:1050800042a0a900a011290007ef07008a28a80064
:105090008a48a90089a8a90089c8a90089e8a900a7
:1050a0008908a9008928a90088c8a90000468000ad
:1050b00000407800614060000080fb0061006000fb
:1050c0004200dd00414480000120a1000100700089
:1050d000404488004200f90020c0b30000e8b70057
:1050e000be28ef0040003700204d800061006000c6
:1050f0000000e0003700320000702000400e880001
:1051000040122900e8ee07008908a9008928a900b3
:105110008c60a9008cc0a90010c0b30000e8b700e3
:1051200031003700204d8000610060000000e00089
:105130002a00320000702000400e8800f012290082
:10514000d9ee07008908a9008928a9008c60a90068
:105150008cc0a90010c0b30000e8b70022003700df
:10516000204d8000610060000000e0001d00320062
:105170000168ef004200f80042e0a80042c0a80029
:1051800042a0a90090132900c7ee070089a8a90032
:1051900089c8a90089e8a9008908a90088c8a900c8
:1051a0008928a9008c60a9008cc0a9004200f900e0
:1051b000803e2000c04a880010c0b30000e8b7005d
:1051c0000900370000000000070037000000000061
:1051d0000500370000000000030037000000000059
:1051e00001003700000000000080fa000000060007
:1051f0000200fa00a0168000610060000000e000dc
:1052000003003a0080c0b300004f7800020037006e
:105210000040eb00004f7800a6c9bf009e40780018
:1052200080cf500006003200a6c9bf00a7e9b70032
:105230001e417800619a20008248780014003700ef
:10524000619a200091407800a7c9bf0080cf50002c
:1052500006003200a6c9bf00a7e9b7001e417800ca
:10526000619a200082487800090037001e417800ca
:105270002196200082487800a6c9bf00a7e9b700a0
:105280001e417800619a20008248780000000000ea
:105290000080fa00000006000000fa00dc22ef00a7
:1052a00000fc2f00c016880000702000400e88000f
:1052b0000080eb0030168800000026006016880091
:1052c000300020009016880000102000c0168800d2
:1052d0000080fa00000006000400fa000000280028
:1052e000000e8800204e2000200e8800204e200056
:1052f000300e880000702000400e8800ca21ef00a8
:10530000cc21ef00d021ef00f0ff2300a00e880099
:10531000409c2000b00e8800409c2000c00e8800f9
:10532000409c2000d00e880040002000480007006c
:10533000000f78009e007800110798009e009000f2
:1053400000702000008060004800de001007980018
:105350001e009000e40f500007003200f00f2f00f5
:105360001e0f60001ea0a0001e00780080007800c4
:10537000400020003e00070088e0a9008960a900e5
:105380000080fa00000006000000fa00e00620009d
:105390000015880000202000101588003000200033
:1053a0002015880030002000301588000080eb00b8
:1053b00040158800a802a900a822a900a842a900b7
:1053c000a8c2a900a8e2a900a902a900aa22ef0088
:1053d000aa02a800aa22a800aa42a800aac2a8005d
:1053e000aae2a800ab02a8008560a900a1e2a8007b
:1053f0000080fa00000006000000fa000091200082
:10540000100988002421ef000080eb00400988008b
:105410008900a9000080fa00000006000000fa00e0
:1054200000022800200888000080eb001008880097
:105430008460a90000022800800888000080eb003a
:105440006008880084c0a9000080fa0000000600ff
:105450000200fa00000f7800820f200092018800fd
:105460001000ba00000080000080fa000000060072
:105470000400fa00000f780011079800820f200046
:105480009201880082002400023b88000108bb00d2
:1054900061c7a80052052000323b8800a20a200004
:1054a000323b880061e7a80000000000013b80005b
:1054b00000002800008060000000e000fbff3a00d0
:0854c0000080fa000000060064
:020000040000fa
:1054c80000080000c00000000000000044090000bf
:1054d800260000000200000000d4300000002c006c
:1054e800cfff0000c4090000e05ef800ff001800cc
:1054f8000002e80003f401000100010000010000bf
:10550800ff00010000010000010000008a090000fe
:105518001a00000000000000c0080000840000001d
:105528000200000001000200001e00001e001e0014
:10553800001e00006400e800033a00003a00b800ca
:105548000bf401001900640000e80300f401640092
:105558000084030064000000007017006400ea0083
:105568000110270088130a00006400001b02f000e5
:10557800000004005a0001000003000002000c00b3
:1055880000060000050001000008000003000100fb
:10559800001400000100000000900100000000005d
:1055a80000000000000000000000000000000000f3
:1055b80000000000000000000000000000000000e3
:1055c80000000000000000000000000000001400bf
:1055d800ff010000a4090000060000000000000010
:1055e800aa09000006000000000000006a09000087
:1055f8002000000000000000f00900002600000064
:1056080002000000170a000000170a000900000045
:1056180000020000190a000000190a000e02010029
:105628000000000000000000000000000602020068
:1056380000000000f0090000160a00000600000043
:1056480000000000b0090000400000000200000057
:10565800286e75006c6c290000303100323334003c
:1056680035363700383961006263640065660000ca
:1056780001000000000a00000000640000000000b3
:10568800e8030000001027000000a00086010000c9
:1056980040420f000080960098000000e1f50500e8
:1056a80000ca9a003b0000001c0a0000020000002b
:0c56b800020000000100000000000000e3
:020000040000fa
:1056c4000200fa000068ef00f2fe070001ff070085
:1056d4002cff070050ff0700adfc07008960a900fc
:1056e4008140a8008120a8008100a8004105800015
:1056f40000002700010070004005880090e0a80029
:105704009160a8008d60a8008928a8000000eb0023
:10571400000f7800010037001e0fe800f07022002f
:105724009e007800808f5000fbff36008928a90076
:10573400bafa0700001729005aed07000060fe00be
