:020000040000fa
:080000000001040000000000f3
:020000040000fa
:040008003a030000b7
:020000040000fa
:04000c003a030000b3
:020000040000fa
:040010003a030000af
:020000040000fa
:040014003a030000ab
:020000040000fa
:040018003a030000a7
:020000040000fa
:04001c003a030000a3
:020000040000fa
:040020003a0300009f
:020000040000fa
:040024003a0300009b
:020000040000fa
:040028003a03000097
:020000040000fa
:04002c003a03000093
:020000040000fa
:040030003a0300008f
:020000040000fa
:0400340012030000b3
:020000040000fa
:040038003a03000087
:020000040000fa
:04003c003a03000083
:020000040000fa
:040040003a0300007f
:020000040000fa
:040044003a0300007b
:020000040000fa
:040048003a03000077
:020000040000fa
:04004c003a03000073
:020000040000fa
:040050003a0300006f
:020000040000fa
:04005400bc010000eb
:020000040000fa
:040058003a03000067
:020000040000fa
:04005c003a03000063
:020000040000fa
:040060003a0300005f
:020000040000fa
:040064003a0300005b
:020000040000fa
:040068003a03000057
:020000040000fa
:04006c003a03000053
:020000040000fa
:040070003a0300004f
:020000040000fa
:040074003a0300004b
:020000040000fa
:040078003a03000047
:020000040000fa
:04007c003a03000043
:020000040000fa
:040080003a0300003f
:020000040000fa
:040084003a0300003b
:020000040000fa
:040088003a03000037
:020000040000fa
:04008c003a03000033
:020000040000fa
:040090003a0300002f
:020000040000fa
:040094003a0300002b
:020000040000fa
:040098003a03000027
:020000040000fa
:04009c003a03000023
:020000040000fa
:0400a0003a0300001f
:020000040000fa
:0400a4003a0300001b
:020000040000fa
:0400a8003a03000017
:020000040000fa
:0400ac003a03000013
:020000040000fa
:0400b0003a0300000f
:020000040000fa
:0400b4003a0300000b
:020000040000fa
:0400b8003a03000007
:020000040000fa
:0400bc003a03000003
:020000040000fa
:0400c0003a030000ff
:020000040000fa
:0400c4003002000006
:020000040000fa
:0400c8003a030000f7
:020000040000fa
:0400cc003a030000f3
:020000040000fa
:0400d0003a030000ef
:020000040000fa
:0400d4003a030000eb
:020000040000fa
:0400d8003a030000e7
:020000040000fa
:040108003a030000b6
:020000040000fa
:04010c003a030000b2
:020000040000fa
:040110003a030000ae
:020000040000fa
:040114003a030000aa
:020000040000fa
:040118003a030000a6
:020000040000fa
:04011c003a030000a2
:020000040000fa
:040120003a0300009e
:020000040000fa
:040124003a0300009a
:020000040000fa
:040128003a03000096
:020000040000fa
:04012c003a03000092
:020000040000fa
:040130003a0300008e
:020000040000fa
:0401340012030000b2
:020000040000fa
:040138003a03000086
:020000040000fa
:04013c003a03000082
:020000040000fa
:040140003a0300007e
:020000040000fa
:040144003a0300007a
:020000040000fa
:040148003a03000076
:020000040000fa
:04014c003a03000072
:020000040000fa
:040150003a0300006e
:020000040000fa
:04015400bc010000ea
:020000040000fa
:040158003a03000066
:020000040000fa
:04015c003a03000062
:020000040000fa
:040160003a0300005e
:020000040000fa
:040164003a0300005a
:020000040000fa
:040168003a03000056
:020000040000fa
:04016c003a03000052
:020000040000fa
:040170003a0300004e
:020000040000fa
:040174003a0300004a
:020000040000fa
:040178003a03000046
:020000040000fa
:04017c003a03000042
:020000040000fa
:040180003a0300003e
:020000040000fa
:040184003a0300003a
:020000040000fa
:040188003a03000036
:020000040000fa
:04018c003a03000032
:020000040000fa
:040190003a0300002e
:020000040000fa
:040194003a0300002a
:020000040000fa
:040198003a03000026
:020000040000fa
:04019c003a03000022
:020000040000fa
:0401a0003a0300001e
:020000040000fa
:0401a4003a0300001a
:020000040000fa
:0401a8003a03000016
:020000040000fa
:0401ac003a03000012
:020000040000fa
:0401b0003a0300000e
:020000040000fa
:0401b4003a0300000a
:020000040000fa
:0401b8003a03000006
:020000040000fa
:0401bc003a03000002
:020000040000fa
:0401c0003a030000fe
:020000040000fa
:0401c4003002000005
:020000040000fa
:0401c8003a030000f6
:020000040000fa
:0401cc003a030000f2
:020000040000fa
:0401d0003a030000ee
:020000040000fa
:0401d4003a030000ea
:020000040000fa
:0401d8003a030000e6
:020000040000fa
:100200008f8220000eff20000e01880000000000f9
:10021000000020000000e000020032000001200089
:10022000200288000e00070000622000010020006c
:10023000810f700001003200140007000000200050
:100240000000e00002003200000002000000000098
:10025000ae030200000000000040da000000fe00d3
:100260004440a900000720000000e0000300320025
:1002700000002000a00188004440a8000000060003
:100280008a1f78008b1f780000000600910188000b
:10029000800478000000eb001a003700e28444007c
:1002a00032a0b4009905ba00e284440032a0b40040
:1002b0009906ba00e284440032a0b4000006eb00c4
:1002c000476fde00fd07b200636ce10003003a00f7
:1002d000ebff07000000eb000a003700606ce10054
:1002e00004003a00005deb008b05e900fdff3e00d5
:1002f000040037006168e100010032000086eb0075
:100300000b00070019c7ba001905ba000e04e00077
:1003100003003a000a00e000e0ff3a000000060097
:10032000fe07b2009e0188008a047800f5ff3700be
:10033000395dba008b05e9000c003200295dba0076
:100340008b05e900080032000c00e00003003a00d1
:10035000e284440032a0b400f5ff370019ddba0092
:100360008b05e900faff3a008904e800e1844400c3
:1003700032a0b40000000600809fbe003400f800e8
:1003800000002000a00188000000fa000014800096
:100390003041880030418000f90f500002003e00db
:1003a000a0012000304188001014800080408800a7
:1003b000201480009040880030148000a040880005
:1003c000814080009040800080804000a0408000fc
:1003d00080804000b0aa2a000008b8000100d100c7
:1003e000704088000cc8bf00e54f50001600360072
:1003f0001628ef008140800070408000808f500000
:1004000003003600b04080000000e800b0408800e3
:100410009140800070408000808f500003003600c3
:10042000b04080000080e800b0408800a14080001b
:1004300070408000808f500003003600b040800084
:1004400064004000b0408800a002a9008560a900b7
:100450000080fa003400f9004f00be0000400600a2
:100460003600f800809fbe00829fbe00849fbe00c1
:10047000869fbe003400f80000002000a001880024
:100480000000fa00e1408000000a2000808f500048
:100490000a003600e04080000000d10000f0a1001a
:1004a00000f0a100320e80000100280081006100f0
:1004b00001007000300e880012003700e14080001b
:1004c000c0042000808f50000a003600e040800009
:1004d0004300de0000f0a10000f0a100320e800019
:1004e000010028008100610001007000300e8800ca
:1004f00004003700310e80000000280000806000fa
:10050000300e880000408000620060000000e000c3
:100510000d00320000408000610060000000e0003b
:1005200009003200e0408000d00e8800d00e80002c
:10053000c00e8800c00e8000b00e880020408000f1
:100540000000e80020408800204080000000e80013
:100550002040880021408000e04c2000808f500027
:1005600001003600e70007000cc8bf000040e800ab
:100570000ce8b7000cc8bf00e54f50002000360063
:1005800007c8bf000080fb0080004000e035280065
:100590000080400090007800b040800080806800bb
:1005a00007c8bf000080fb0000014000e0342800c5
:1005b0000000410010007800008060000000e000b2
:1005c0000300320008c8bf000004a00008e8b7001c
:1005d00008c8bf000080fb00e136280061407800b9
:1005e00008e8b70008c8bf000080fb006100600099
:1005f000004078000004e00001003200c100070064
:1006000088e0a9000080fa003400f9004f03be0022
:100610004f02be004f01be004f00be003600f90081
:1006200000400600809fbe003400f800000020005b
:10063000a00188000000fa0007c8bf000080fb008e
:1006400080004000e0332800008040001000780067
:10065000a00e88000c68ef008460a90005e1a900e5
:100660000021ef000080fa003400f9004f00be00c6
:0c067000004006000040da000000fe0020
:020000040000fa
:10067c000000000001200000042000000402000023
:10068c00100200001008000001080000000000002b
:10069c000000000002000000010000000400000047
:1006ac000200000001000000040000000000000037
:1006bc000000000000000000ffff00000000000030
:1006cc00ffff000000000000ffff00000000000022
:1006dc000002000004060000080a00000c0e0000d6
:1006ec001012000014160000181a00001c1e000046
:1006fc002022000024260000282a00002c2e0000b6
:10070c000101000001360000013a00003c3e0000ef
:10071c000002000004060000080a00000c0e000095
:10072c000101000001160000011a00001c1e00004f
:10073c000101000001260000012a00002c2e0000ff
:10074c000101000001360000013a00003c3e0000af
:020000040000fa
:10075c000000fa00dca2a900d8a2a900dc82a90042
:10076c00d882a900dc62a900d862a900dc42a900e9
:10077c00d842a900dc22a900d822a900dc02a900d9
:10078c00d802a900d602a900d202a800d622a9003c
:10079c00d222a80081e0a900d8000700bf00070002
:1007ac00f3000700fa0007000028a9000008a900c0
:1007bc0000000000a0168000620060000000e00055
:1007cc00fcff3a0002003700400120000101070045
:1007dc00a0168000620060000000e000faff32000a
:1007ec0011e1a80070772000400e88000028a800b6
:1007fc000008a80080022000e04088008002200051
:10080c00d04088000428ef0010c0b3001ee8b700e9
:10081c00140037001ec8bf000080fb0080004000a1
:10082c00e03328000080400010007800a00e880003
:10083c000100370000000000204080000000e800ac
:10084c002040880021408000d04c2000808f500038
:10085c00f0ff36000428ef001ec8bf000040e8007f
:10086c001ee8b7001ec8bf00e64f5000f1ff36006f
:10087c000028a900f04c2000204088000000eb006c
:10088c00d400070016003700a0168000620060003c
:10089c000000e00012003a00020037004001200086
:1008ac00cc000700a0168000620060000000e00091
:1008bc00faff320000702000400e8800d421ef00b7
:1008cc000028a9000008a90010002000e0408800c2
:1008dc0011e1a9000621ef002028ef002228ef00eb
:1008ec0000408000610060000000e000e6ff3a007c
:1008fc0000000000afff37000000fa0011e1a90072
:10090c001141800000418000808040003008800050
:10091c0080804000b0aa2a000008b8000100d10075
:10092c001041880030088000004188000621ef004b
:10093c0011e1a800104180007900b9008000780016
:10094c00908828000008b8004508de005040880058
:10095c00104180008000d100504080000080500089
:10096c002041880020418000e10f50000300360038
:10097c00204180001008880004003700100020007f
:10098c0020418800204180001008880005e1a80063
:10099c000428ef0070c0b3001ee8b70000408000d0
:1009ac00620060000000e00005003a00004080009a
:1009bc00610060000000e000010032000b00070045
:1009cc000868ef0007c8bf000040e80007e8b70060
:1009dc0007c8bf00e64f50000200360010c0b3003d
:1009ec0007e8b7000080fa00000006000000fa00db
:1009fc00304180006300b900000078000000d10095
:100a0c00d0408800e1408000d0408000808f5000b2
:100a1c000e003200e1408000d0408000808f5000fa
:100a2c0003003100e04080000000e800e040880056
:100a3c00e1408000d0408000808f500003003600e1
:100a4c00e04080000000e900e0408800e1408000c8
:100a5c0070022000808f500002003e0080022000b7
:100a6c00e0408800e140800080572000808f5000db
:100a7c000200360080572000e0408800e0408000f3
:100a8c00b00e8800e0408000c00e8800e04080007e
:100a9c00d00e88000080fa00000006000000fa006a
:100aac0000fc2f0040158800c006200000158800af
:100abc002002200030158800aa22ef004000200000
:100acc00201588000030200010158800a002a90015
:100adc00c1048000f0ff2800808060000000250029
:100aec0001007000c00488008560a9008d60a8001a
:100afc00a1e2a8000080fa00000006000000fa0045
:100b0c00002e2000200e8800010e8000c0ff2f0058
:100b1c00008060000010a000000e88000070200013
:100b2c00400e8800d421ef00c7e1a900310e8000ef
:100b3c000000280000806000300e8800f0082000c3
:100b4c00800e8800ca21ef0031058000f0ff2800dc
:100b5c000080600000e0a0003005880088e0a9005b
:100b6c0090e0a800c1e1a8000080fa000000060097
:100b7c000000fa000621ef000080eb0060088800fe
:100b8c0000032000800888000080fa0000000600a6
:100b9c000000fa000021ef00a000200010088800df
:100bac000003200020088800a1048000f0ff28002a
:100bbc00808060000000250001007000a004880007
:100bcc008460a9008c60a80005e1a8000080fa00f0
:100bdc00000006000400fa00100798000800370017
:100bec000000eb00000f7800010037001e0fe8003a
:100bfc00703e20009e007800808f5000fbff360076
:100c0c001e00900000f0a7000000ea000000ea00bf
:100c1c004f00de00004078009e0090008100e9004b
:100c2c00110798000004e000edff3a000080fa0084
:040c3c0000000600ae
:020000040000fa
:100c40000008000028000000000000000000000074
:020000040000fa
:0200000401f009
:0400000003c3000036
:020000040000fa
:0200000401f009
:040004003f000000b9
:00000001FF
